:100000000C94D5160C9406170C9406170C9406172E
:100010000C9406170C9406170C9406170C940617EC
:100020000C9406170C9406170C9406170C940617DC
:100030000C9406170C9406170C9406170C940617CC
:100040000C9406170C9406170C9406170C940617BC
:100050000C9406170C9406170C9406170C944F2357
:100060000C9406170C9434220C940B220C94061753
:100070000C9406170C9406170C9406170C9406178C
:100080000C9406170C9406170C9406170C9406177C
:100090000C9406170C9406170C9406170C949923CD
:1000A0000C9406170C9406170C9406170C9406175C
:1000B0000C9406170C9406170C9406170C9406174C
:1000C0000C9406170C9406170C9406170C9406173C
:1000D0000C9406170C9406170C94E2210C94B92189
:1000E0000C9406176B326B32AF32AF32EB32EB321D
:1000F00010331033103310331033103310331033E8
:10010000EB32EB32833389338F339B33A73336346F
:10011000B333BC33C533D133DD33E933FA3306347B
:10012000363412341E342A34C217C617CA17CE17F3
:10013000D117E517FA1722182618331878227B22D0
:100140006A226E227422B2227F22832289228D2289
:10015000912297229B229F22B222A522A922AD2280
:1001600031313A313220504D004D6F6E20323820FF
:100170004E6F760000000A0B02090C0D0E080703F3
:10018000040100000000000000000000000000006A
:10019000000000000000000000000000000000005F
:1001A000121110000000000000000000000000001C
:1001B00000000000000000000000000005072061B2
:1001C000000000000000005F0000000700070014AE
:1001D0007F147F14242A7F2A12231308646236496D
:1001E0005522500005030000001C2241000041225E
:1001F0001C00082A1C2A0808083E08080050300085
:1002000000080808080800606000002010080402C8
:100210003E5149453E00427F4000426151494621DE
:1002200041454B311814127F1027454545393C4A4A
:10023000494930017109050336494949360649499A
:10024000291E003636000000563600000008142231
:100250004114141414144122140800020151090617
:10026000324979413E7E1111117E7F494949363E1E
:10027000414141227F4141221C7F494949417F0937
:100280000901013E414151327F0808087F00417F4A
:1002900041002040413F017F081422417F404040FF
:1002A000407F0204027F7F0408107F3E4141413EAF
:1002B0007F090909063E4151215E7F0919294646F9
:1002C0004949493101017F01013F4040403F1F2022
:1002D00040201F7F2018207F6314081463030478D4
:1002E0000403615149454300007F41410204081065
:1002F0002041417F00000402010204404040404090
:10030000000102040020545454787F484444383893
:1003100044444420384444487F3854545418087E98
:10032000090102081454543C7F0804047800447DF9
:1003300040002040443D00007F10284400417F40A1
:10034000007C041804787C08040478384444443859
:100350007C14141408081414187C7C08040408483D
:1003600054545420043F4440203C4040207C1C20F6
:1003700040201C3C4030403C44281028440C505045
:10038000503C4464544C44000836410000007F0057
:1003900000004136080008082A1C08081C2A080822
:1003A000000609090614610A0B2060020203060513
:1003B00008080103030505020302050506050506F5
:1003C00005050505050202050505050A06060507DA
:1003D00005050707020306040907070508060506C1
:1003E00007060A06060503050305060205050405BA
:1003F00005030605020205020805050505030403B9
:10040000050508050504030104050600000000BEFB
:10041000BE20200E000E00000048E85EE85E4800A6
:1004200020002000009C3E33F2E400206020000CFD
:10043000128C6018C620C00000200000002000C000
:10044000EC3E327ECCE00000202020200020200E58
:1004500000F0FC060060C006FCF0C06000120C3F1B
:100460000C1200000000002020F8202000000000F6
:10047000008080E06020202000000080802020009C
:1004800080700C03C020000000FCFE02FEFC002077
:100490002020000804FEFE000020202020202084D0
:1004A000C2623E1C2020202020841212FEEC00207C
:1004B000202000605846FEFE400000002020001E64
:1004C0001E12F2E22020202000FCFE12F2E20020A8
:1004D00020200002C2FA3E060020200000ECFE129E
:1004E000FEEC00202020001C3E22FEFC20202020CC
:1004F00000989820209898E060205050888800004C
:1005000000000050505050500000000000888850FB
:100510005020000000000002B2B21E0C002020009B
:1005200000F00864928A4AF29A84780020404040A1
:100530004040000000E0F84E4EF8E020200000208F
:1005400020FEFE1212FEEC202020202000FCFE02E5
:1005500002840020202000FEFE020286FC7820207B
:100560002020200000FEFE1212122020202020FE5B
:10057000FE1212122020000000FCFE020222E2E421
:1005800000202020202000FEFE101010FEFE202063
:100590000000002020FEFE202000FEFE202000FEA5
:1005A000FE30FCCE02202000002020FEFE000020B5
:1005B000202020FEFE1C70C0701CFEFE20200000CB
:1005C0002000002020FEFE0C30C0FEFE2020000097
:1005D000002020FCFE020202FEFC00202020202041
:1005E00000FEFE223E1C2020000000FCFE02020253
:1005F000FEFC000020202020204040FEFE1232FEA3
:10060000CC2020000020209C3E32F2E4002020205C
:10061000000202FEFE0202000020200000FEFE009A
:100620000000FEFE002020202020000E7EE0E07E64
:100630000E000020200000063EF8C03E3EC0F83EFE
:10064000060000202000002020000086CE7878CE12
:1006500086202000002020061EF8F81E060000203C
:1006600020000082E27A1E062020202020FEFE02CA
:10067000E0E080030C70800000000020C002FEFE5D
:1006800080E0E0100C020C100000000000000000F0
:1006900000000080808080808001020000C8E8287F
:1006A000F8F00020202020FEFE08F8F02020202076
:1006B00000F0F8080800202020F0F808FEFE0020D6
:1006C000202020F0F82838300020202020FCFE0ACE
:1006D000202000B0F848783808C0E0A0E06000FEB4
:1006E000FE08F8F02020002020FBFB2020FBFBE090
:1006F00060FEFE60F8982020002020FEFE2020F8FA
:10070000F808F8F008F8F02020002020002020F859
:10071000F808F8F02020002020F0F808F8F0002079
:10072000202000F8F808F8F0E0E0202000F0F808B9
:10073000F8F8002020E0E0F8F8082020003078E801
:10074000C820202000FCFC08002020F8F800F8F861
:10075000002020202038F880F838002020200038A1
:10076000F8C03838C0F83800202000002020009859
:10077000F860F898202000202038F880F83800C071
:10078000E0200088E8781820202020FCDE0260E0CD
:1007900080FEE002DEFC2080E060001008181008F7
:1007A0000000000000FE026A3A02FE202020202005
:1007B0002000321C2420600808101616201B080A8E
:1007C0000A0E13080A080A150F1514161515141425
:1007D000150808141314141B1C17181715131A18CE
:1007E00008141B141D181A151B191718181C241C83
:1007F0001C180B0A0B13120816151515160E1514D6
:10080000080A160820141615150E140E14162216B2
:1008100016120E040E14000000000000000000007C
:1008200000000000000000000000000000000000C8
:10083000000000000000000000000000000000FCBC
:10084000FCFCFCFCFCFCFC07FFFFFFFFFFFF07C0FC
:10085000C7CFCFCFCFC7C00F0F0F0F0F0F0F0F0096
:1008600000000000000000FCFCFCFCFCFCFC0000A4
:10087000FCFCFCFCFCFCFC010F0F0F0F0F01000047
:10088000010F0F0F0F0F010000000000000000001B
:100890000000000000000000000000000000000058
:1008A0000000000000000000000000000000000048
:1008B00000000000000000000000000080FCFCFCC4
:1008C000FC7C000000C0FCFCFCFC3C00001F1F1F67
:1008D0001FFFFFFFFFFF1F1F1F1FFFFFFFFFFF1F68
:1008E0001F1F1F3E3EFEFEFFFFFF7F3F3E3EFEFFFF
:1008F000FFFFFF3F3E3E3E3E3C00080F0F0F0F073D
:100900000000000C0F0F0F0F03000000000000009C
:1009100000000000000000000000000000000000D7
:1009200000000000000080E0F0F0F8F8FC7C7CFFA4
:10093000FF7CFCFCF8F8F8F0E0C000000F3F7FFF00
:10094000FFFFFFFCF8FFFFF0F0F1E1E1C1C1810022
:100950000030F0F0F0F0F0F0E18183FFFF8787CF07
:10096000FFFFFFFFFFFF3C00000303070F0F0F1FF8
:100970001FFFFF1F1F0F0F0F0703010000000000E4
:100980000000000000000000000000000000000067
:10099000000000C0F0F8FC7C1C1C1C7CFCF8F8C0BB
:1009A000000000000000C0F0FC7C1C0400000000FF
:1009B000000000071F3F7F7C7070707C7F3F3F0707
:1009C0000080E0F8FE3F1F0701000000000000006B
:1009D00000000000000000000000000000C0E0F87F
:1009E000FE3F0F030000F0FEFEFF1F0707071FFF7B
:1009F000FEFCF000000000000000101C1F1F070399
:100A0000000000000000010F0F1F1F1C1C1C1F1FF7
:100A10000F070100000000000000000000000000BF
:100A200000000000000000000000000000000000C6
:100A300000000000000000E0F0F8F8FCFC7C3C3C0A
:100A40003C7CFCF8F8F0E000000000000000000032
:100A50000080C7DFFFFFFFFFFEFCFCFCFEBF1F1F87
:100A60000F0300000000000000FCFEFFFFFFFFFF7F
:100A7000C7830303070F9FBFFFFFFFFEFEFFFFFFBC
:100A8000FFCF800000010307070F0F0F0F0F0F0F9D
:100A90000F0F0F0F0707030303070F0F07030000D4
:100AA0000000000000000000000000000000000046
:100AB0000000000000000000000038FCFCFCFCFC12
:100AC000FC7800070F0F0F0F070000000000000068
:100AD0000000000000000000000000000000000016
:100AE0000000000000C0F0F8FCFC7C1CC0FCFFFF14
:100AF000FFFFFF030000FFFFFFFFFFFFF10000000B
:100B000000071F7FFFFFFFF880000000000010704B
:100B1000F0F0F0E00C7CFCFCF8F0C00000000000FD
:100B200003FFFFFFFFFFFCC0000000F1FFFFFFFF1E
:100B3000FFFF0080F8FFFFFF7F1F0700E0F0F0F0ED
:100B400070100000000000E0E0E0C0DCFCFCDCC055
:100B5000E0E0E0000000193D3F1F070F3F3D3D1959
:100B60000000000000000000000000000000000085
:100B70000000000000000000000000000000000075
:100B80000000000000000000000000000000000065
:100B9000000000C0C0C0C0C0C0000000000000F0E5
:100BA000F0F0F0F0F0F0FFFFFFFFFFFFF0F0F0F0EB
:100BB000F0F003030303030303FFFFFFFFFFFF0343
:100BC0000303030303000000000000000101010112
:100BD0000101000000000000000000000000000013
:100BE0000000000000000000000000000000000005
:100BF0000000000000000000000000E0E0E0E0E095
:100C0000E0E0E00F8F8FEFFFFFFF1F30707030309C
:100C100010000000000000000000000000000000C4
:100C2000000000000000001F1F1F1F1F1F1F1F1FAD
:100C30001F00000000000000000000000000000095
:100C400000000000000000000000000000000000A4
:100C50000000000000E0E0E0E0E0E0E0E00F0F0F67
:100C60000F0F0F0F0F000000000000000000000039
:100C70000000C0FCFCFC0C000000C0FCFFFF1F00DB
:100C80000000C0FCFFFF1F010000000C0F0F0F0150
:100C90000000000000000000000000000000000054
:100CA000C0F0F0F8F8FCFC7C7C7C7CFCFCF8F8F0F4
:100CB000E0C00000FFFFFFFFFFFFFF00000000009B
:100CC00000FFFFFFFFFFFFFF003FFFFFFFFFFFFFF2
:100CD000C080808080C0FFFFFFFFFFFF3F0000005B
:100CE0000307070F0F0F0F0F0F0F0F0F0F0707034C
:100CF00001000000000000000000000000000000F3
:100D000000000000000000000000008080C0E0F053
:100D1000FCFCFCFCFCFCFC3F3F3F1F1F0F07FFFFE0
:100D2000FFFFFFFFFFFF00000000000000FFFFFFCC
:100D3000FFFFFFFFFF000000000000000F0F0F0F7C
:100D40000F0F0F0F00000000000000000000000067
:100D500000000000C0E0F0F8F8FCFCFC7C7C7C7C2F
:100D6000FCFCFCF8F8F0E0C00003030303030303FA
:100D70000080C0C0E0F8FFFFFFFF7F3F0F0080C092
:100D8000F0F8FCFEFFFFFFFFDFCFC7C7C3C1C0C045
:100D9000C0C00F0F0F0F0F0F0F0F0F0F0F0F0F0F01
:100DA0000F0F0F0F0F0F0F000000000000000000DA
:100DB00000000000000000000000000080E0F0F8EB
:100DC000F8FCFC7C7C3C7C7CFCFCFCF8F8F0C00073
:100DD0000101010101010100F0F0F8F8FFFFFFFF40
:100DE000DF8F8700E0E0E0E0E0E0E080010101016A
:100DF00083FFFFFFFFFFFFFF00010307070F0F0F38
:100E00000F0F0F0F0F0F0F07070301000000000067
:100E100000000000000000000000000000000000D2
:100E2000000000000000000080C0E0F8FCFCFCFCBA
:100E3000FCFCFC0000000080C0E0F0FCFEFF7F1F17
:100E40000F0703FFFFFFFFFFFF0000007F7F7F7F93
:100E50007F7F7D7C7C7C7C7C7CFFFFFFFFFFFF7CB9
:100E60007C7C000000000000000000000000000F7B
:100E70000F0F0F0F0F000000000000000000000027
:100E80000000000000000000000000000000000062
:100E9000FCFCFCFCFCFCFCFCFCFCFCFCFCFCFCFC92
:100EA000FC00000000FFFFFFFFFFF878787878F87B
:100EB000F8F8F8F0E0E0800000E0E0E1E1E1E18056
:100EC0000000000080FFFFFFFFFFFF7F1E00010307
:100ED00007070F0F0F0F0F0F0F0F0F0F070703015C
:100EE0000000000000000000000000000000000002
:100EF0000000000000000000C0E0F0F8F8FCFC7CFE
:100F00003C3C3C7CFCFCF8F8F0E00000FEFFFFFFFE
:100F1000FFFFFFE1F0787878F8F8F8F8F0E0C080AB
:100F2000003FFFFFFFFFFFFFC18000000080C1FF07
:100F3000FFFFFFFFFF3E0000010307070F0F0F0F2A
:100F40000F0F0F0F0F0F070303000000000000003A
:100F50000000000000000000000000000000000091
:100F6000FCFCFCFCFCFCFCFCFCFCFCFCFCFCFCFCC1
:100F7000FCFCFCFC0000000000000000C0F0F8FEDB
:100F8000FFFF7F1F0F0301000000000000E0FCFFD7
:100F9000FFFFFFFF0F010000000000000000000045
:100FA0000E0F0F0F0F0F0F010000000000000000D8
:100FB0000000000000000000000000000000000031
:100FC0000000000080E0F0F8F8FCFC7C3C3C3C7C3D
:100FD000FCFCFCF8F8F0E080030F9FFFFFFFFFF838
:100FE000F0F0F0F0FCFFFFFFFF9F0F03FEFFFFFF9D
:100FF000FFFFFF830100000183FFFFFFFFFFFFFEF4
:10100000000307070F0F0F0F0F0F0F0F0F0F0F0723
:1010100007070100000000000000000000000000C1
:10102000000000000000000000C0E0F0F8F8FCFC48
:101030007C3C3C7C7CFCFCF8F8F0E0C0003F7FFF8F
:10104000FFFFFFFFE0C0808080C0E0FFFFFFFFFFE9
:10105000FFFE00C0C1C3C3C7C7C78707070783E137
:10106000FFFFFFFFFFFF3F00000103070F0F0F0F00
:101070000F0F0F0F0F0F0707030100000000000004
:101080000000000000000000000000000000000060
:10109000000000000000000000FEFEFEFEFEFEFE5E
:1010A000FEE0E0E0E0E0E0E0E00F0F0F0F0F0F0FD9
:1010B0000F00000000000000000000000000000021
:1010C00000FEFEFEFEFEFEFEFEE0E0E0E0E0E0E010
:1010D000E00F8F8FEFFFFFFF1F1070703030100098
:1010E000000000000000000000000000008080C040
:1010F000C0C0E0E0F0F0F0F8F8F8FCFCFEFE3E3F87
:101100003F1F1F1F0F0F070707030307070F0F0FCF
:101110001F1F3F3F7E7E7EFCFCF8F8F8F0000000C9
:1011200000000000000000000000000000010101BC
:1011300003000000000000000000000000000000AC
:10114000000000000000000000000000000000009F
:1011500000000000000000003E3E3E3E3E3E3E3E9F
:101160003E3E3E3E3E3E3E3E3E3E3E3E3E3E3E3E9F
:101170003E3E3E3E3E3E3E3E3E3E3E3E3E3E00000B
:10118000000000000000000000000000000000005F
:10119000000000000000000000000000000000004F
:1011A00000000000F0E0E0C0C0808080000000008F
:1011B00000000000000000000707070F0F1F1F1F9F
:1011C0003F3F7EFEFEFCFCF8F8F0F0F0F0F8F8FC93
:1011D000FCFC7E7E3E3F3F1F1F0F0F0F07070303E0
:1011E00003010101000000000000000000000000F9
:1011F00000000000000000000000000000000000EF
:10120000000000000000000000C0E0F0F8F8FCFC66
:10121000FC7C7CFCFCFCF8F8F8F0E08000030307A1
:1012200007070781C0E0F0F8FFFFFF7F7F3F1F0F38
:10123000000000000000CECFCFCFCFCFCF01000005
:10124000000000000000000000000F0F0F0F0F0F44
:101250000F0000000000000000000000000000007F
:1012600000000000000000000000000000000080FE
:10127000C0E0707838181C9C9C8C0C1C1C1C1C3802
:101280007870E0C0800000E0FCFF0F03C0F0FCFEBF
:101290003F0F07030307DEFEFFFF1F00000107FFEC
:1012A000FEF03FFFFFC0003FFFFFFFC0808080C017
:1012B000F0FFFFFF8780C0E0F07C3F0F00000003DD
:1012C000070F1C38717163E3E3E3E1E0E1E3E363FB
:1012D000737139381C0C040000000000000000008D
:1012E00000000000000000000000000000000000FE
:1012F0000000000000000000000000E0F8FCFCFC22
:10130000FCFCFCFCFCF8E000000000000000000019
:1013100000000000E0F8FFFFFFFFFF3F03073FFF73
:10132000FFFFFFFFFCE000000000000000E0F8FF0E
:10133000FFFFFFFFFFFFFDFCFCFCFCFDFFFFFFFFCD
:10134000FFFFFFFCE00000080F0F0F0F0F0F0F074C
:1013500000000000000000000000070F0F0F0F0F3B
:101360000F0F0C0000000000000000000000000053
:10137000000000000000000000000000000000FC71
:10138000FCFCFCFCFCFCFC7C7C7C7CFCFCFCFCF8A1
:10139000F8F8F0F0C000FFFFFFFFFFFFFFFFF0F0E5
:1013A000F0F0F0F0FFFFFFFFFFBF9F0700FFFFFF20
:1013B000FFFFFFFFFFC1C1C1C1C1C1C3FFFFFFFFED
:1013C000FFFFFFFE0F0F0F0F0F0F0F0F0F0F0F0F6E
:1013D0000F0F0F0F0F0F07070301000000000000A1
:1013E00000000000000000000000000000000000FD
:1013F00000000080C0E0F0F8F8F8FCFCFCFCFCFC0D
:10140000FCFCFCFCF8F8F0E0C080FCFFFFFFFFFFF5
:10141000FFFF0701000000000001010707070707A1
:1014200007070F7FFFFFFFFFFFFFF0E0C0C0C0C056
:10143000C0C0E0FCFCFCFCFCFC7C000000010307DD
:10144000070F0F0F0F0F0F0F0F0F0F0F0F070301D6
:10145000000000000000000000000000000000008C
:1014600000000000000000000000FCFCFCFCFCFC94
:10147000FCFCFCFCFCFCFCFCFCF8F8F8F0E0C08098
:1014800000FFFFFFFFFFFFFFFF000000000101035F
:10149000FFFFFFFFFFFFFFFEFFFFFFFFFFFFFFFF5D
:1014A000C0C0C0C0E0E0F0FFFFFFFFFFFF7F1F0FE5
:1014B0000F0F0F0F0F0F0F0F0F0F0F0F0F0F07074C
:1014C000070303000000000000000000000000000F
:1014D00000000000000000000000000000FCFCFC18
:1014E000FCFCFCFCFCFCFCFCFCFCFCFCFCFCFCFC3C
:1014F000FCFCFFFFFFFFFFFFFFFFF0F0F0F0F0F05C
:10150000F0F0F0F0F0F000FFFFFFFFFFFFFFFFC182
:10151000C1C1C1C1C1C1C1C1C1C1C1C00F0F0F0F84
:101520000F0F0F0F0F0F0F0F0F0F0F0F0F0F0F0FCB
:101530000F0000000000000000000000000000009C
:10154000000000000000FCFCFCFCFCFCFCFCFCFCC3
:10155000FCFCFCFCFCFCFCFCFCFFFFFFFFFFFFFFB6
:10156000FFF0F0F0F0F0F0F0F0F0F000FFFFFFFF20
:10157000FFFFFFFF01010101010101010101000F56
:101580000F0F0F0F0F0F0F000000000000000000F2
:10159000000000000000000000000000000000004B
:1015A00000000000000000C0E0F0F0F8F8FCFCFCD7
:1015B000FCFCFCFCFCFCFCFCFCF8F8F0E08000FC13
:1015C000FFFFFFFFFFFFFF070100000000E0E0E179
:1015D000E3E3E3E3E3E3E3E3E00F7FFFFFFFFFFF8A
:1015E000FFF0E0C0C080808787C7C7E7FFFFFFFF2D
:1015F000FFFFFF00000001030707070F0F0F0F0F8A
:101600000F0F0F0F0F0F0F0707030301010000005B
:1016100000000000000000000000000000000000CA
:1016200000000000000000FCFCFCFCFCFCFCFC00DA
:1016300000000000000000FCFCFCFCFCFCFCFCFFCB
:10164000FFFFFFFFFFFFFFF8F8F8F8F8F8F8F8FFE2
:10165000FFFFFFFFFFFFFFFFFFFFFFFFFFFFFF0396
:1016600003030303030303FFFFFFFFFFFFFFFF0F5E
:101670000F0F0F0F0F0F0F00000000000000000FF2
:101680000F0F0F0F0F0F0F000000000000000000F1
:10169000000000000000000000000000000000FC4E
:1016A000FCFCFCFCFCFCFCFFFFFFFFFFFFFFFFFF5F
:1016B000FFFFFFFFFFFFFF0F0F0F0F0F0F0F0F00B9
:1016C000000000000000000000000000000000001A
:1016D000000000FCFCFCFCFCFCFCFC00000000002A
:1016E00000000000000000FFFFFFFFFFFFFFFF788A
:1016F000F8F8F8F8F8F8E0C0C0C0C0FFFFFFFFFF3F
:10170000FFFF7F00010307070F0F0F0F0F0F0F0FD2
:101710000F0F070703010000000000000000000099
:101720000000000000000000000000FCFCFCFCFCCD
:10173000FCFCFC0000000080C0E0F0F8FCFCFCFCBD
:101740007C3C1C0C0400FFFFFFFFFFFFFFFFF8FCC9
:10175000FEFFFFFFFFFFFFFFC301000000000000CE
:1017600000FFFFFFFFFFFFFFFF1F0F0703071F7FA4
:10177000FFFFFFFFFFFEF8E0C00000000F0F0F0F9C
:101780000F0F0F0F0000000000000001070F0F0FE8
:101790000F0F0F0F0F0C08000000000000000000EA
:1017A0000000000000000000000000000000000039
:1017B0000000FCFCFCFCFCFCFCFC00000000000049
:1017C000000000000000FFFFFFFFFFFFFFFF000021
:1017D00000000000000000000000FFFFFFFFFFFF0F
:1017E000FFFFC0C0C0C0C0C0C0C0C0C0C0C00F0FDD
:1017F0000F0F0F0F0F0F0F0F0F0F0F0F0F0F0F0FF9
:101800000F0F0000000000000000000000000000BA
:10181000000000000000FCFCFCFCFCFCFCFCFCFCF0
:10182000F0000000000000E0FCFCFCFCFCFCFCFC08
:10183000FCFCFCFFFFFFFFFFFF033FFFFFFFFFF08C
:101840000000F0FFFFFFFF3F03FFFFFFFFFFFFFF71
:10185000FFFFFFFFFFFF0000033FFFFFFFFFFFFF52
:10186000FFFF3F030000FFFFFFFFFFFFFF0F0F0F12
:101870000F0F0F00000000030F0F0F0F0F0F0300DB
:101880000000000F0F0F0F0F0F0F000000000000EF
:101890000000000000000000000000000000000048
:1018A00000000000000000FCFCFCFCFCFCFCF8F06C
:1018B000C080000000000000FCFCFCFCFCFCFCFF05
:1018C000FFFFFFFFFFFF7FFFFFFFFEFCF0E0800058
:1018D000FFFFFFFFFFFFFFFFFFFFFFFFFFFF000016
:1018E00001070F3F7FFFFFFFFFFFFFFFFFFFFF0F1E
:1018F0000F0F0F0F0F0F0000000000000001030F7B
:101900000F0F0F0F0F0F0F0000000000000000006E
:1019100000000000000000000000000000000000C7
:1019200080C0E0F0F0F8F8FCFCFCFCFCFCFCFCFCEB
:10193000FCF8F8F0F0E0C08000FCFFFFFFFFFFFFC5
:10194000FF07010000000000000107FFFFFFFFFF8D
:10195000FFFFFC0F7FFFFFFFFFFFFFF0E0C0C0C0F5
:10196000C0C0C0E0F0FFFFFFFFFFFF7F0F000000DF
:10197000010307070F0F0F0F0F0F0F0F0F0F0F0FA1
:101980000707030100000000000000000000000045
:101990000000000000000000000000000000000047
:1019A00000FCFCFCFCFCFCFCFC7C7C7C7CFCFCFC73
:1019B000FCF8F8F0E0C0FFFFFFFFFFFFFFFFE0E0F3
:1019C000E0E0F0F9FFFFFFFFFFFF3FFFFFFFFFFF3A
:1019D000FFFFFF03030303030303030301010000ED
:1019E0000F0F0F0F0F0F0F0F00000000000000007F
:1019F00000000000000000000000000000000000E7
:101A0000000000000000000000000000C0E0F0F056
:101A1000F8F8FCFCFCFCFCFCFCFCFCFCF8F8F0F02E
:101A2000E0C0800000FCFFFFFFFFFFFFFF07010099
:101A300000000000000107FFFFFFFFFFFFFFFC00A9
:101A40001F7FFFFFFFFFFFFFF0E0C0C0CCDCFCFC0E
:101A5000F8F0FFFFFFFFFFFF3F0F00000000010352
:101A600003070F0F1F1F1F1F1F1F1F1F0F0F070F22
:101A70001F1F3F3E3C00000000000000000000006F
:101A80000000000000000000000000000000000056
:101A900000FCFCFCFCFCFCFCFC7C7C7C7CFCFCFC82
:101AA000FCFCF8F8F8F0E0800000FFFFFFFFFFFF0C
:101AB000FFFFE0E0E0E0F0F0F9FFFFFFFFFF7F3F16
:101AC0000F0000FFFFFFFFFFFFFFFF0303030F1FD8
:101AD0003FFFFFFFFEFCF8E0C00000000F0F0F0FFC
:101AE0000F0F0F0F0000000000000003070F0F0F83
:101AF0000F0F0F0C000000000000000000000000AD
:101B0000000000000000000000000000000000E0F5
:101B1000F0F0F8F8FCFC7C7C7C7C7CFCFCFCF8F8AD
:101B2000F0E0C00000071F3F7FFFFFFFFFFCFCF855
:101B3000F8F8F8F3F3F3E3E3C3830000F8F8F8F8F8
:101B4000F8F8F8E1C18183838387CFFFFFFFFFFFB0
:101B5000FFFF7E00010307070F0F0F0F0F0F0F0F7F
:101B60000F0F0F0F07070301000000000000000027
:101B70000000000000000000000000000000000065
:101B800000FCFCFCFCFCFCFCFCFCFCFCFCFCFCFC91
:101B9000FCFCFCFCFCFCFCFCFC0101010101010162
:101BA00001FFFFFFFFFFFFFFFF0101010101010135
:101BB000010000000000000000FFFFFFFFFFFFFF2B
:101BC000FF00000000000000000000000000000016
:101BD000000F0F0F0F0F0F0F0F000000000000008D
:101BE00000000000000000000000000000000000F5
:101BF000000000000000000000FCFCFCFCFCFCFC01
:101C0000FC0000000000000000FCFCFCFCFCFCFCF4
:101C1000FCFFFFFFFFFFFFFFFF00000000000000D0
:101C200000FFFFFFFFFFFFFFFF3FFFFFFFFFFFFF83
:101C3000FFE0C0C0C0C0C0C0E0FFFFFFFFFFFFFF6C
:101C40003F0000010307070F0F0F0F0F0F0F0F0FBC
:101C50000F0F0F0707030100000000000000000045
:101C60000000000000000000000000000000000074
:101C700000043CFCFCFCFCFCFCF8C0000000000084
:101C800000000080F0FCFCFCFCFCFC3C0C000001B3
:101C9000073FFFFFFFFFFFFEF080000000E0FCFFBA
:101CA000FFFFFFFF3F0F01000000000000000107E1
:101CB0003FFFFFFFFFFFFCF0FEFFFFFFFF3F0F01B5
:101CC0000000000000000000000000000000070FFE
:101CD0000F0F0F0F0F0F0F0F01000000000000008B
:101CE00000000000000000000000000000000000F4
:101CF000000000000000000000000000001CFCFCD0
:101D0000FCFCFCFCF88000000000E0FCFCFCFCFC9F
:101D1000FCFCFCE00000000000F8FCFCFCFCFCFC0F
:101D20001C00013FFFFFFFFFFFFFE000F0FEFFFF91
:101D3000FFFF3F1FFFFFFFFFFFF000E0FFFFFFFF80
:101D4000FFFF3F0100000000037FFFFFFFFFFFFFD9
:101D5000FFFFFFFF1F010000011FFFFFFFFFFFFF4D
:101D6000FFFFFFFF7F030000000000000000070FDF
:101D70000F0F0F0F0F0F0F00000000000000000FEB
:101D80000F0F0F0F0F0F0F070000000000000000E3
:101D90000000000000000000000000000000000043
:101DA0000000000000000000000000000000000033
:101DB0000000041C3CFCFCFCFCFCFCF0E08000008F
:101DC00000C0F0F8FCFCFCFCFC7C1C0400000000E3
:101DD000000001070FBFFFFFFFFFFEFCFFFFFFFF3B
:101DE000BF1F0703000000000000000080E0F0FCBF
:101DF000FEFFFFFFFF3F1F0F3FFFFFFFFFFEFCF057
:101E0000E080000000080C0F0F0F0F0F0F0F0701ED
:101E100000000000000001070F0F0F0F0F0F0F0C45
:101E200008000000000000000000000000000000AA
:101E300000000000000000000000000000040C3C56
:101E40007CFCFCFCFCFCF8E0800000000080E0F082
:101E5000FCFCFCFCFCFC3C1C040000000001030F2B
:101E60001F7FFFFFFFFFFCFCFEFFFFFF7F3F0F0711
:101E7000010000000000000000000000000000FF62
:101E8000FFFFFFFFFFFFFF01000000000000000058
:101E900000000000000000000000000F0F0F0F0FF7
:101EA0000F0F0F0000000000000000000000000005
:101EB0000000000000000000000000000000000022
:101EC00000000000000000000000FCFCFCFCFCFC2A
:101ED000FCFCFCFCFCFCFCFCFCFCFCFCFCFCFCFC42
:101EE000FC0000000000000080C0E0F0F8FCFEFFF5
:101EF000FF7F3F1F0F07030100C0E0F0F8FCFEFF6B
:101F0000FFFFFFDFCFC7C3C1C0C0C0C0C0C0C0C0DB
:101F1000C00F0F0F0F0F0F0F0F0F0F0F0F0F0F0F20
:101F20000F0F0F0F0F0F0F0F0F000000000000002A
:101F300000000000000000000000000000000000A1
:101F400000FCFCFCFCFCFCFCFCFCFCFCFFFFFFFFC1
:101F5000FFFFFF00000000FFFFFFFFFFFFFF00008B
:101F60000000FFFFFFFFFFFFFFC0C0C0C070707028
:101F700070707070707070700CFCFCFCC000000021
:101F8000000000000FFFFFFCC00000000000000187
:101F90001FFFFFFCC0000000000000010F0F0F0C2E
:101FA00000000000000000000000FCFCFCFCFCFC49
:101FB000FCFCFCFCFC00000000FFFFFFFFFFFFFF3C
:101FC00000000000FFFFFFFFFFFFFFC0C0C0C0FF19
:101FD000FFFFFFFFFFFF70707070707070707070A7
:101FE000700000000000C0F0FCFCFCFCFCFCF0C039
:101FF0000000000080E0F0FCFFFFFF1F0700010F62
:102000003FFFFFFFFCF0C0000000000000000000E8
:1020100000000000000000000000000000000000C0
:1020200000000000000000000000000000000000B0
:1020300000000000000000000000000000000000A0
:102040000000000000000000000000000000000090
:102050000000000000000000000000000000000080
:102060000000000000000000000000000000000070
:102070000000000000008080808080808080808060
:102080008080808080808080000000000000000050
:1020900000000000000000000000040C1C3C7C7CE0
:1020A0007040000000000000000000000000000080
:1020B0000000000000000000000000000000000020
:1020C0000000000000000000000000000000000010
:1020D0000000000000000000006078787C7C7E7EBC
:1020E0003E1E1E1E1E3EFEFEFCFCF8F0C000C0F0B0
:1020F000F8FCFCFCFEFE1E0E0E0F8FC7FFFFFFFF5D
:10210000FFFFFF000003070F0F0F0F0F0F0F0F0F41
:102110000703070F0F0F0F0F0F080000000000004C
:1021200000000000000000000000000000000000AF
:10213000FCFCFCFCFCFCFC000000000000000000BB
:102140000000000000FFFFFFFFFFFFFFF87C7C3E68
:102150003E7EFEFEFEFCF8F8E000FFFFFFFFFFFF03
:10216000FFF1C0808080C0FBFFFFFFFFFFFF1F0F5C
:102170000F0F0F0F0F0F03070F0F0F0F0F0F0F078B
:102180000703000000000000000000000000000045
:10219000000000000000000000000000000000003F
:1021A000000000000000000000000000000000C06F
:1021B000F0F8F8FCFCFE7E7E3E3E3E7EFEFEFCFC21
:1021C000F8F0E01EFFFFFFFFFFFFF3C080800080FC
:1021D00080C0E0E0E0E0E0E00000010307070F0F4F
:1021E0000F0F0F0F0F0F0F0F0F070303000000005B
:1021F00000000000000000000000000000000000DF
:1022000000000000000000000000000000000000CE
:10221000FCFCFCFCFCFCFC80E0F8F8FCFEFEFE7E16
:102220003E3E7C7CF8FFFFFFFFFFFFFF3FFFFFFF0D
:10223000FFFFFFF3C0808080C0F1FFFFFFFFFFFFC3
:10224000FF00000307070F0F0F0F0F0F0F07030FFC
:102250000F0F0F0F0F0F0000000000000000000024
:10226000000000000000000000000000000000006E
:10227000000000000000000000000000000000005E
:102280000000C0F0F8F8FCFCFE3E3E1E1E1E3EFEA6
:10229000FCFCFCF8F0E0003FFFFFFFFFFFFFFF8EBC
:1022A0000E0E0E0E8E8E8F8F8F8F8F8F0F00000170
:1022B0000307070F0F0F0F0F0F0F0F0F0F0F07035E
:1022C000030000000000000000000000000000000B
:1022D000000000000000000000000000E0F0F8F83E
:1022E000FCFCFC7C7C3C3C3C3C3CFFFFFFFFFFFFDC
:1022F000FF3C3C3C3C000000FFFFFFFFFFFFFF00F6
:102300000000000000000F0F0F0F0F0F0F00000064
:1023100000000000000000000000000000000000BD
:1023200000000000000000000000000000000000AD
:102330000000000080E0F8FCFCFEFEFE7E3E3E3C1D
:102340007CF8FEFEFEFEFEFEFE1F7FFFFFFFFFFF8E
:10235000F1C0C0C0C0C0F1FFFFFFFFFFFFFF00E002
:10236000E1E3E3E7E7E7C787878383C1FFFFFFFF79
:10237000FFFF0F00001030707070F0F0F0F0F0F020
:10238000F070703030100000FCFCFCFCFCFCFC0029
:10239000000000000000000000000000FFFFFFFF41
:1023A000FFFFFFF8787C7C7EFEFEFEFEFCFCF8E082
:1023B000FFFFFFFFFFFFFF000000000000FFFFFF27
:1023C000FFFFFFFF0F0F0F0F0F0F0F0000000000A8
:1023D000000F0F0F0F0F0F0F000000000000000094
:1023E0000000000000000000000000007C7C7C7CFD
:1023F0007C7C7C7CFEFEFEFEFEFEFEFEFFFFFFFF01
:10240000FFFFFFFF0F0F0F0F0F0F0F0F0000000058
:102410000000000000007C7C7C7C7C7C7C7C0000DC
:10242000FEFEFEFEFEFEFEFE0000FFFFFFFFFFFFC2
:10243000FFFFC0C0FFFFFFFFFFFFFF3F3070F0F066
:10244000F0F070301000FCFCFCFCFCFCFC00000018
:10245000000000000000000000000000FFFFFFFF80
:10246000FFFFFF80C0E0F0F8FCFEFE7E3E1E0E0681
:102470000200FFFFFFFFFFFFFF7F3F1F1F3FFFFF28
:10248000FFFEF8F0C00000000F0F0F0F0F0F0F003E
:10249000000000000003070F0F0F0F0F0E080000D1
:1024A000000000000000000000000000000000002C
:1024B00000000000FCFCFCFCFCFCFCFCFFFFFFFF40
:1024C000FFFFFFFFFFFFFFFFFFFFFFFF0F0F0F0FDC
:1024D0000F0F0F0F000000000000000000000000C0
:1024E00000000000000000000000000000000000EC
:1024F000000000000000000000000000FEFEFEFEE4
:10250000FEFEFEF8787C7E7EFEFEFEFEFCFCF0F019
:10251000F87C7E7EFEFEFEFEFCFCF8E0FFFFFFFF87
:10252000FFFFFF0000000000FFFFFFFFFFFFFFFFB6
:102530000000000000FFFFFFFFFFFFFF0F0F0F0F66
:102540000F0F0F00000000000F0F0F0F0F0F0F0FE6
:1025500000000000000F0F0F0F0F0F0F0000000012
:10256000000000000000000000000000000000006B
:10257000000000000000000000000000000000005B
:10258000000000000000000000000000000000004B
:10259000FEFEFEFEFEFEFEF0787C7C7EFEFEFEFE73
:1025A000FCFCF8E0FFFFFFFFFFFFFF000000000062
:1025B00000FFFFFFFFFFFFFF0F0F0F0F0F0F0F00B9
:1025C00000000000000F0F0F0F0F0F0F00000000A2
:1025D00000000000000000000000000000000000FB
:1025E00000000000000000000000000000000000EB
:1025F00000000000000000C0E0F8F8FCFCFE7E3E99
:102600003E3E3E7EFEFCFCF8F8F0C0001F7FFFFF60
:10261000FFFFFFFBC080808080C0FBFFFFFFFFFF4C
:102620007F1F0000010307070F0F0F0F0F0F0F0F82
:102630000F0F07030301000000000000000000006E
:10264000000000000000000000000000000000008A
:10265000000000000000000000000000000000007A
:10266000000000FEFEFEFEFEFEFEF87C3C3E3E7ECE
:10267000FEFEFEFCF8F0E000FFFFFFFFFFFFFFF1B2
:10268000C0808080C0F1FFFFFFFFFFFF3FFFFFFF23
:10269000FFFFFFFF07070F0F0F0F0F0F0F070703B6
:1026A000000070707070707070000000000000001A
:1026B000000000000000000000000000000000001A
:1026C00000000000000000000000000000E0F0F842
:1026D000FCFCFEFE7E3E3E3C7CF8FEFEFEFEFEFE68
:1026E000FE1FFFFFFFFFFFFFF1C0808080C0F1FFF2
:1026F000FFFFFFFFFFFF0000030707070F0F0F0F8C
:102700000F0F0707FFFFFFFFFFFFFF0000000000A4
:1027100000000000000000000070707070707070A9
:102720000000000000000000000000000000FEFEAD
:10273000FEFEFEFEFEF8FC7E7E3E3E1EFFFFFFFF1D
:10274000FFFFFF010000000000000F0F0F0F0F0F31
:102750000F0000000000000000000000000000006A
:102760000000000000000000000000000000000069
:102770000000000000000000000000F0F8FCFCFE7B
:10278000FE9F9F1F1F1F3F3F3E3C3C382000C0C1A3
:10279000C3C7CFCFCF8F1F1F1F1F3FFFFFFEFEFC02
:1027A000F860000307070F0F0F0F0F0F0F0F0F0F2A
:1027B0000F0F0703010000000000000000000000F0
:1027C00000000000000000000000000000E0E0F059
:1027D000F0F8F8F8000000007E7E7EFFFFFFFFFFAC
:1027E000FFFF7E7E7E7E000000FFFFFFFFFFFFFFFA
:1027F0008080808000000003070F0F0F0F0F0F0F66
:102800000F0F0000000000000000000000000000AA
:1028100000000000000000000000000000000000B8
:1028200000000000FEFEFEFEFEFEFE0000000000B6
:1028300000FEFEFEFEFEFEFEFFFFFFFFFFFFFFE0CD
:10284000C08080C0E0FFFFFFFFFFFFFF0003070F16
:102850000F0F0F0F0F0F0707030F0F0F0F0F0F0FA4
:102860000000000000000000000000000000000068
:102870000000000000000000000000000000000058
:1028800000000000000000000000021E7EFEFEFEB0
:10289000FEFCE000000000C0F8FEFEFEFE7E1E060C
:1028A000000000030F3FFFFFFFFFF8F0FEFFFFFFF8
:1028B0003F0F0300000000000000000001070F0FA1
:1028C0000F0F0F0F070100000000000000000000C4
:1028D00000000000000000000000000000000000F8
:1028E00000000000000000000000000000000000E8
:1028F00000000000000000000000000000000000D8
:1029000000000000061EFEFEFEFEFEF88000000035
:10291000E0FCFEFEFEFEFEFEFCE000000000F0FE1D
:10292000FEFEFEFE3E06000000071FFFFFFFFFF851
:10293000F0FFFFFFFF1F03031FFFFFFFFFF8F0FF84
:10294000FFFFFF3F07000000000000000000070F2E
:102950000F0F0F0F0F0F010000000000070F0F0FE8
:102960000F0F0F0700000000000000000000000033
:102970000000000000000000000000000000000057
:102980000000000000000000000000000000000047
:102990000000000000000000000000000000000037
:1029A0000000060E1E7EFEFEFEFEFCF0C0C0F0F82B
:1029B000FCFEFEFE7E1E0E06000080C0F0FBFFFF48
:1029C000FFFF7F7FFFFFFFFFF9F0C08000000C0ECC
:1029D0000F0F0F0F0F07030000000103070F0F0F6A
:1029E0000F0F0E0C000000000000000000000000AF
:1029F00000000000000000000000000000000000D7
:102A000000000000000000000000000000000000C6
:102A1000021E7EFEFEFEFEFCF08000000080F8FE3E
:102A2000FEFEFEFE3E06000000010F3FFFFFFFFF1F
:102A3000F8E0FCFFFFFFFF3F0700000000C0C08080
:102A400080C0C1E7FFFFFFFFFFFF3F07000000005E
:102A5000000000307070F0F0F0F0F0707030100096
:102A60000000000000000000000000000000000066
:102A7000000000000000000000003E3E3E3E3E3EE2
:102A80003EBEFEFEFEFEFEFEFEFE7E3EC0E0F0F816
:102A9000FCFEFFFFFFBF9F8F8783818080800F0F29
:102AA0000F0F0F0F0F0F0F0F0F0F0F0F0F0F0F0F36
:102AB0000000000000000000000000000000000016
:102AC000000000000000E0F8F8FCFCFCFCFCFC78D6
:102AD000008080C0FFFFFFFFFFFF010000001F3FDD
:102AE0003F7FFFFFFFFFF3E0000000000000000059
:102AF000FFFFFFFFFFFFF0C0C0C00000000010306C
:102B0000707070F0F0F0F070FCFCFCFCFFFFFFFF59
:102B1000FFFFFFFFFFFFFFFF7070707078FCFCFC91
:102B2000FCFCFCF8F8E00000000000000001FFFFE2
:102B3000FFFFFFFFC080800000000000E0F3FFFF08
:102B4000FFFF7F3F3F1FC0C0C0F0FFFFFFFFFFFF41
:102B50000000000070F0F0F0707070703010000035
:102B60000000000000000000000000000000000065
:102B7000000000000000E0F0F0F8F8F8F8F8F8F0D5
:102B8000F0E0E0C0C0C0E0E0F0F80703010101019F
:102B900001010303030707070707070303010000F9
:102BA0000000000000000000000000000000000025
:102BB0000000000000000000000000000000000015
:102BC0000000000000000000200023002600290073
:102BD0002C002F0032000001000003010601090152
:102BE00000002100240027002A002D0030003300BF
:102BF00001010000040107010A0100002200250074
:102C000028002B002E0031003400020100000501D5
:102C100008010B010505050507050808080802025B
:102C200002020A0A08080404040401010101010166
:102C300001010303030303030303040707070C0C49
:102C40000C0C0C0C0C0C0202020206060606060610
:102C500006060B0B0B0B0B0B0B0B010210202008B5
:102C600008102040102040800201020108040201E7
:102C70000102040810204080804020100804020156
:102C800080040201804020100804020108040201AF
:102C90000102040810204080010204081020408036
:102CA0001F1C1F1E1F1E1F1F1E1F1E1F00407A10ED
:102CB000F35A00A0724E18090010A5D4E80000E8ED
:102CC0007648170000E40B54020000CA9A3B00004B
:102CD00000E1F505000080969800000040420F00DA
:102CE0000000A08601000000102700000000E8039B
:102CF000000000006400000000000A000000000066
:102D00000100000000002C76D888DC674F0823DF24
:102D1000C1DFAE59E1B1B796E5E3E453C63AE651F7
:102D2000997696E8E6C28426EB898C9B62ED407C1E
:102D30006FFCEFBC9C9F40F2BAA56FA5F490055ABA
:102D40002AF75C936B6CF9676DC11BFCE0E40D47DF
:102D5000FEF520E6B500D0ED902E03009435770502
:102D60000080841E080000204E0A000000C80C33BA
:102D70003333330F986E12831141EF8D2114893B49
:102D8000E65516CFFEE6DB18D1844B381BF77C1DC9
:102D9000901DA4BBE424203284725E228100C9F11C
:102DA00024ECA1E53D27B5378B3711241FBECFEFAB
:102DB000D1E2DEBFCDBF00E00CBF13E0A0E0B2E087
:102DC000E0E5FEE700E00BBF02C007900D92A038DF
:102DD000B107D9F728E0A0E8B3E001C01D92A03701
:102DE000B207E1F716E1C4EDD6E100E006C0219795
:102DF0000109802FFE010E949039C33DD10780E078
:102E00000807A9F70E94602C0C94173F0C9400004F
:102E1000FC0184910895CF93DF9370E0FB01EC589F
:102E2000FE4F8491FB01E65AF34DD491FB01EC5E19
:102E3000F34DC491CC2391F081110E945D22EC2FBF
:102E4000F0E0EE0FFF1FEA53F44DA591B491EC9121
:102E5000ED2381E090E021F480E002C080E090E08A
:102E6000DF91CF910895862F642F0C94B322862F83
:102E7000642F0C94E2220F931F93CF93DF9300D023
:102E800000D0CDB7DEB78C0165E173E0CE010196CD
:102E90000E941E2BB801CE0101960E94C02A61E259
:102EA00073E00E94A92A0E94082CCE0101960E947C
:102EB000112BF80180819181009709F448C00E948C
:102EC000F43B633071058105910519F16CF46130B3
:102ED000710581059105B1F062307105810591059B
:102EE000B1F581E090E01DC0653071058105910567
:102EF000B1F094F0663071058105910541F583E0EC
:102F000090E018C081E090E09093F3038093F20387
:102F100017C082E090E00EC082E090E002C083E043
:102F200090E09093F3038093F2031092F5031092D4
:102F3000F4030AC09093F3038093F20381E090E0DE
:102F40009093F5038093F40380E00E942C2A269648
:102F50000FB6F894DEBF0FBECDBFDF91CF911F91AA
:102F60000F9108950F931F93CF93DF936A307105EC
:102F700008F095C0FB018C018827EC56FF4F8F4F5E
:102F80000C949039D80117966C9102C0F8016085B5
:102F900070E08DC0D80119966C91FACFF801628566
:102FA000F7CFD80115968D919C911697892B09F42E
:102FB00076C01996CC911997D0E017968C91C81BC2
:102FC000D109219666E070E00EC0F80185819681F6
:102FD000892B09F464C0C285D0E08085C81BD10963
:102FE000219667E070E0C801BDDFBC01CE010E9400
:102FF0007D395DC0D80115968D919C9116970097EB
:1030000009F44DC0E0917204F09173040296199591
:10301000C82FD0E0E0917204F0917304D8011596A6
:103020008D919C911697199581113CC0F80185816D
:103030009681E0917204F0917304019619958823AA
:1030400099F130C0C8010E9422280BC0D801159602
:103050008D919C911697E0917204F09173040496FF
:103060001995682F95CFF80185819681E0917204BA
:10307000F091730404961995C82FD80115968D9177
:103080009C911697E0917204F0917304059619953E
:10309000682F70E06C0F711D6150710908C060E00D
:1030A00070E005C0BE0103C0BE016F5F7F4FCB0162
:1030B000DF91CF911F910F910895FC01138212822D
:1030C0008EE092E091838083178210868FE781875C
:1030D0008FE3828713861486158616860895409896
:1030E000419A0895613011F4FADF02C0409A419884
:1030F00011B8429A4398449AC89500C00799FECFE8
:103100004498089560918103629566956695637011
:10311000E9DF429A439A00C0449AC89500C080B142
:1031200044980895CF93C62F642FDCDF42984398CC
:103130008FEF81B9C2B900C0449AC895C895000004
:103140004498CF9108950F931F93CF93DF938C01F1
:1031500080918103681304C080918203481749F16C
:1031600067FD27C0403428F5942FC62F6093810354
:1031700040938203D62FD295D695D695D370969547
:1031800096959695ED2FF0E0EF57FC4F82819817BA
:1031900031F09283692F686B4D2FC801C3DF6C2F0C
:1031A0006F7360644D2FC801DF91CF911F910F9114
:1031B000B9CFDF91CF911F910F910895FF920F9397
:1031C0001F93CF93DF931F92CDB7DEB7609181033A
:1031D00067FD14C08C01698395DFC80193DFF82E69
:1031E0008091270669818111F0948FEF809381038C
:1031F00040918203C801A7DF8F2D01C080E00F90AE
:10320000DF91CF911F910F91FF900895BF92CF92C0
:10321000DF92EF92FF920F931F93CF93DF938C0176
:10322000C62FF0908103F7FC8DC0F294F694F694CB
:1032300083E0F822809182038770E82E09F452C05F
:10324000C801BCDFB82E6F2DC8014CDF4298439AED
:103250008FEF81B900C0449AD0E0CE2CD12C9E01D2
:1032600001C0220FEA94EAF72B29809127068111E9
:10327000209522B9C895C89500004498E090820333
:103280008E2D90E00896887F8034910534F548E0D3
:103290004E0D487F60918103C80155DFC8018EDF64
:1032A000B82E6F2DC8011EDF4298439A8FEF81B967
:1032B00000C0449A28E030E02C193D0902C0D595A1
:1032C000C7952A95E2F7CB29809127068111C095F1
:1032D000C2B9C895C89500004498609181036F5F9A
:1032E0004E2D25C06F2DC801FDDE4298439A8FEF09
:1032F00081B9809127068111C09500C0449AC2B956
:10330000C895C89500004498609181036F5F6093F1
:103310008103862F82958695869583708F1591F00F
:1033200067FD10C08FEF8093810340918203C80135
:10333000DF91CF911F910F91FF90EF90DF90CF9091
:10334000BF9001CFDF91CF911F910F91FF90EF9030
:10335000DF90CF90BF9008957F928F929F92AF920F
:10336000BF92CF92DF92EF92FF920F931F93CF9372
:10337000DF936C01F62E041B0F5F261B9924939498
:10338000920E842F8770142F181BA02EB12C28E0CA
:1033900030E0A901481B5109A416B5065CF42A19AE
:1033A0003B09CFEFD0E002C0D595C7952A95E2F74B
:1033B000802E04C098E0892E881ACFEF01C0CC0F70
:1033C0008A95EAF77C2E412F6F2DC601BCDED0E036
:1033D000C095D91568F4C601F1DE9FEF682FE91298
:1033E00002C0672901C06C23C60110DFDF5FF1CF87
:1033F000C12F811A282D2C0F822F90E0AC01495F3C
:103400005F4F4A155B056CF4C85F4C2F6F2DC601EA
:103410009ADED0E0D91570F76E2DC601F7DEDF5FBA
:10342000F9CF201708F5A81AB90A8FEF90E001C06C
:10343000880FAA94EAF7D82FD09548E04C0F6F2D4B
:10344000C60181DEC0E01D2F1095C91568F4C601C4
:10345000B5DE9FEF682FE91202C06D2B01C061231A
:10346000C601D4DECF5FF1CFDF91CF911F910F91D5
:10347000FF90EF90DF90CF90BF90AF909F908F9094
:103480007F9008952F923F924F925F926F927F921A
:103490008F929F92AF92BF92CF92DF92EF92FF9264
:1034A0000F931F93CF93DF93CDB7DEB766970FB619
:1034B000F894DEBF0FBECDBFDC0115962D913C9177
:1034C00016972115310519F480E090E030C5162FCC
:1034D0009E8B8D8BC9010396E0917204F091730469
:1034E0006A3009F02BC21995F82EE0917204F09120
:1034F0007304AD89BE8915968D919C911697199587
:1035000081110DC0ED89FE8985819681E09172045B
:10351000F091730401961995813009F45FC2AD8969
:10352000BE891C966C911C9719962C91199762175D
:1035300080F41D964C911D9781E014969C919F3FBD
:1035400009F480E0E82EE1940F2D040F8D899E8907
:1035500003DFED89FE89838595852F2D30E080FD81
:10356000F6C00285602F70E0220F331F290F311D36
:10357000261737070CF4E3C08685811106C081E069
:10358000AD89BE891E968C93D0C421E0290F201BE3
:103590009F2C990C920E91E0ED89FE8984818F3FDA
:1035A00009F490E0E92EE194AD89BE8919967C90EA
:1035B000199718964C9118971796DC90892D90E0E2
:1035C000840F911D68177907BCF0242F277081E0C4
:1035D00090E001C0880F2A95EAF788248A94880E23
:1035E000B42FB87F6B2EC92CC40EEC2DE87F5E2E55
:1035F000AA24A394B12C51C0272D6D2D8D899E89AD
:10360000ABDE90C0222D30E0832D877002C035954F
:1036100027958A95E2F7312F377020FF07C0C50143
:10362000032E01C0880F0A94EAF7482A3394832DA9
:10363000877009F44AC0373059F4412F487F6D2D07
:103640008D899E8980DD642D8D899E89DFDD412CE9
:10365000132D19190315B0F6312E390C212F2770AF
:10366000131144C0C9F05FEF510F452F487F6D2DF6
:103670008D899E892C8B67DD8D899E899FDD2C89A4
:10368000B50101C0660F2A95EAF761958623682F78
:1036900064298D899E89BADDD3947D1408F442C0D3
:1036A000462D6D2D8D899E894EDD8D899E8986DD05
:1036B000482E48203C2C452D6D2D8D899E8943DD5B
:1036C0008D899E897BDD282EC3CFFFE3F31508F497
:1036D000B2CF432D487F6D2D8D899E893B8B33DD85
:1036E0008D899E896BDD282E3B89A5CF3FEFC501D3
:1036F000022E01C0880F0A94EAF7E31202C0482A9A
:1037000002C080954822273059F4412F487F6D2D03
:103710008D899E8918DD642D8D899E8977DD412CE8
:103720001F5F9CCFAD89BE8917968C9117971C9609
:103730008C931C971A968C911A978F19FCC0ED895F
:10374000FE89878184879F5F9F0D9587EEC3AD8932
:10375000BE891896DC9018974D2D50E0692F70E0C7
:10376000240F351F261737075CF417968C9117978F
:103770001C968C931C9791509F191D969C93D5C3B2
:10378000ED89FE898685882309F4F9CE9F5F9D190E
:10379000192F1F0D91E084818F3F09F490E0E92EED
:1037A000E194AD89BE891A960C911A9719969C904E
:1037B00019971796FC90410F511D802F90E08417A8
:1037C0009507D4F0202F27702F5F81E090E001C093
:1037D000880F2A95EAF7C82EC194202F287F2983C5
:1037E000702E711A372D387F532EAA24A394B12C32
:1037F00081E0882E811A5FC0292D4D2D6F2D8D8976
:103800009E89AADD8DC02A94822D8770873051F45D
:10381000422D487F6F2D8D899E8995DC8D899E89EB
:10382000CDDC682E2D1420F1262D30E0822D8770FE
:1038300002C0359527958A95E2F7832D877020FF82
:1038400007C09501082E01C0220F0A94EAF7422A08
:1038500081110BC0432D487F6F2D8D899E8973DCAC
:10386000642D8D899E89D2DC412C3A942110CBCFD6
:10387000212E632C611A462D420D211034C0982D43
:10388000930D892F8770382EA9F0492F487F6F2D0F
:103890008D899E8958DC8D899E8990DCB50101C097
:1038A000660F3A94EAF761508623682F64298D8960
:1038B0009E89ACDCF3949F1498F149816F2D8D891A
:1038C0009E8941DC8D899E8979DC482E4C20272CED
:1038D000452D6F2D8D899E8936DC8D899E896EDC04
:1038E000682E302E9FCF842F87705FEFB501082E92
:1038F00001C0660F0A94EAF7E51202C0462A02C028
:103900006095462281110AC0487F6F2D8D899E895E
:103910001ADC642D8D899E8979DC412C2A94ABCFE9
:10392000AD89BE8917968C9117971C968C931C971E
:1039300018968C9118971D968C93F7C21995E82EBE
:10394000ED89FE8985819681E0917204F09173047E
:1039500004961995082FAD89BE8915968D919C9175
:103960001697E0917204F09173040596199510175B
:1039700008F4AACD212F30E0A82EB12CA501400FCC
:10398000511DC901841795070CF09ECD2E2D30E0F6
:103990003D832C83690137E0C30ED11C73E0D594BD
:1039A000C7947A95E1F7101BE0917204F0917304CB
:1039B000AD89BE8915968D919C91169719958111A7
:1039C0000FC0ED89FE8985819681E0917204F091A6
:1039D000730401961995823018F468C2FA949FCD49
:1039E00086E0882E912C612C712CAD89BE891596AC
:1039F0008D919C911697E0917204F09173042AEFD7
:103A0000280D211748F4880D991D1995680E711C11
:103A1000FFEF8F1A9F0AE9CF6C9C90016D9C300DCF
:103A20007C9C300D1124B6E0AB0EB11CA501420FF9
:103A3000531F5A834983612F70E06A5F7F4F860F5F
:103A4000971F1995F82E33243394FF2009F43CCDA9
:103A5000AD89BE891E968C911E97882331F06AE04D
:103A6000CD0110DDED89FE891686AD89BE891B96D4
:103A70008C911B97CF2CD12C81FF18C01C961C91C8
:103A80001C9715968D919C911697E0917204F09178
:103A900073040296199590E08C199D0997FD019683
:103AA00095958795810FED89FE898487AD89BE89BB
:103AB0001C968C911C978601080F111DE0917204D1
:103AC000F091730415968D919C911697199581111B
:103AD0000DC0ED89FE8985819681E0917204F09197
:103AE00073040196199591E0813009F090E0091B6B
:103AF0001109AD89BE8919968C91199790E08017AC
:103B000091074CF56AE0CD01BDDCED89FE89868523
:103B1000882339F06AE0CF01B5DCAD89BE891E96F5
:103B20001C92ED89FE89838581FF15C014858581EE
:103B30009681E0917204F09173040296199590E0D9
:103B40008C199D0997FD019695958795810FAD89F3
:103B5000BE891C968C93E0917204F0917304AD8938
:103B6000BE8915968D919C91169719958111BCC1AE
:103B7000ED89FE8985819681E0917204F09173044C
:103B800001961995813009F0AFC14E2C10E028E064
:103B900030E08E2D8770A901481B5109598748874D
:103BA00029813A812C0D3D1D398B288B642C712C79
:103BB00088248394912C141508F03DC1AD89BE89E9
:103BC0001D965C901D97510E5B82452D487F1C967B
:103BD0006C911C97CD01B7DA812F869586958695D5
:103BE0008F9D900111243F832E83A12CB12C812F16
:103BF00090E09C01287F4C815D81421B530B5B87C9
:103C00004A87288939894E815F81240F351F3D8776
:103C10002C879301281B390B3F872E870B81077058
:103C2000AF1408F0B4C01E1538F52E813F814981CC
:103C30005A81240F351F2A0D3B1DAD89BE8915966B
:103C40008D919C911697E0917204F0917304820F0C
:103C5000931F1995282E332081F02A853B85283023
:103C600031055CF4682F70E0088402C07595679593
:103C70000A94E2F7262E01C0212CAD89BE89149644
:103C80008C91811101C02094502E8B81812B8770E3
:103C900089F42E853F852830310564F0AD89BE89D1
:103CA0001B968C911B9782FF03C0CD0187DA282ACF
:103CB000622D66C08D899E8981DA082F412F2C855F
:103CC0003D852A0D311D642F6770822D90E0062EF0
:103CD00002C0959587950A94E2F780FF08C0C40159
:103CE000052C01C0880F0A94EAF7082B08C0C4010C
:103CF000052C01C0880F0A94EAF7809508236730E5
:103D000051F5ED89FE8985819681E0917204F091EB
:103D10007304820F931F2C8B3B8B4A8B1995282E93
:103D20002C893B894A89332079F08C819D81841BC1
:103D3000910909974CF4622D70E0088402C07595D2
:103D400067950A94E2F7262EAD89BE8914968C9168
:103D5000811101C020944F5F5394B8E05B120CC0F6
:103D6000602FED89FE89838582FF0AC08D899E8937
:103D700025DA682F602B04C0441508F4A4CFF0CFD7
:103D80008D899E8943DAFFEFAF1ABF0A47CFE091D2
:103D90007204F0917304AD89BE8915968D919C9142
:103DA0001697199581110CC0ED89FE898581968140
:103DB000E0917204F0917304019619958130C1F17C
:103DC000A12EB12C011106C0C3018A199B090897C5
:103DD0000CF092C08D899E89F1D9002309F488C026
:103DE000B401002E01C0660F0A94EAF761509301F6
:103DF0002A193B09283031054CF4A40102C0440FB4
:103E0000551F2A95E2F79A012195622BAD89BE894B
:103E100014969C9191116EC06095682BAD89BE89F6
:103E20001B968C911B9782FD6FC08D899E89EED960
:103E3000101B185FC0CEED89FE8984858F0D8487A5
:103E4000838581FF19C085819681E0917204F0918C
:103E5000730402961995AD89BE891C962C912F1971
:103E6000280F90E08C199D0997FD019695958795EF
:103E7000281BED89FE892487E0917204F091730478
:103E8000AD89BE8915968D919C91169719958111D2
:103E900044C0ED89FE8985819681E0917204F0919C
:103EA0007304019619958130C1F53FC0AD89BE8973
:103EB00015968D919C911697E0917204F091730480
:103EC00002961995F82E1C9D90011D9D300D112410
:103ED000F29EC001F39E900D11249C012A5F3F4F7A
:103EE0003A832983312CB1CD442443944E0C4ECED9
:103EF00060E07DCF682392CF61E0ED89FE89848107
:103F0000811160E061958ACF6F3F09F48ECFCD01BA
:103F10006A8B54D96A89682B88CFAD89BE891C9673
:103F20008C911C978F5F1C968C9381E090E0669635
:103F30000FB6F894DEBF0FBECDBFDF91CF911F91BA
:103F40000F91FF90EF90DF90CF90BF90AF909F9038
:103F50008F907F906F905F904F903F902F9008953B
:103F6000FC01A089B1898C91A689B78982FD0FC017
:103F70009C91818D8F5F8F73228D821749F0218DE7
:103F8000DF01A20FB11D5D969C93818F08958C91E6
:103F90000895FC01918D828D981761F0828DDF016B
:103FA000A80FB11D5D968C91928D9F5F9F73928F2C
:103FB00090E008958FEF9FEF0895FC01918D828D21
:103FC000981731F0828DE80FF11D858D90E00895EE
:103FD0008FEF9FEF0895FC01918D228D892F90E046
:103FE000805C9F4F821B91098F739927089581EE02
:103FF00094E0F1DF21E0892B09F420E0822F08957D
:104000008EE795E0E8DF21E0892B09F420E0822F9C
:104010000895FC01848DDF01A80FB11DA35ABF4F85
:104020002C91848D90E001968F739927848FA689B7
:10403000B7892C93A089B1898C9180648C93938DDE
:10404000848D981306C00288F389E02D80818F7DCE
:1040500080830895EF92FF920F931F93CF93DF9386
:10406000EC0181E0888F9B8D8C8D981305C0E889C9
:10407000F989808185FD23C0F62E0B8D10E00F5F3E
:104080001F4F0F731127E02E8C8DE8120BC00FB657
:1040900007FCFACFE889F989808185FFF5CFCE0149
:1040A000B8DFF2CF8B8DFE01E80FF11DE35AFF4F11
:1040B000F0820B8FEA89FB898081806207C0EE89DC
:1040C000FF896083E889F98980818064808381E049
:1040D00090E0DF91CF911F910F91FF90EF900895A5
:1040E000CF93DF93EC01888D8823C1F0EA89FB89A7
:1040F000808185FD05C0A889B9898C9186FD0EC097
:104100000FB607FCF5CF808185FFF2CFA889B9896A
:104110008C9185FFEDCFCE017CDFE8CFDF91CF9191
:10412000089580E090E0892B19F06ADF811120C0AA
:1041300080E090E0892B41F080E090E0892B21F035
:104140000E940000811117C080E090E0892B41F0AF
:1041500080E090E0892B21F00E94000081110EC0C8
:1041600080E090E0892B79F042DF81110AC0089548
:104170000E940000DDCF0E940000E6CF0E940000F8
:10418000EFCF0C940000089585ED8093BC008091E2
:10419000BC0084FDFCCF1092BC04089540914404FF
:1041A000262F30E0240F311D21323105DCF420911F
:1041B000BC042430C9F4FC0180E090E0861758F478
:1041C000309144042191DC01AE5DBB4FA30FB11DC2
:1041D0002C930196F3CF80914404680F60934404BC
:1041E00080E0089581E0089582E008950895E091C7
:1041F000750480917404E81730F4F0E0EA58FB4F3E
:10420000808190E008958FEF9FEF0895909175045D
:1042100080917404981750F4E92FF0E0EA58FB4FAE
:10422000208130E09F5F9093750402C02FEF3FEF35
:10423000C90108958091740490E020917504821B57
:1042400091090895CF92DF92EF92FF920F931F93FF
:10425000CF93DF937C01262F972F8A018091DF0473
:10426000882391F0C62FD72F6E01C40ED51ECC1512
:10427000DD0569F06991D701ED91FC910190F08124
:10428000E02DC7011995F3CF642F822F87DFC80176
:10429000DF91CF911F910F91FF90EF90DF90CF9022
:1042A0000895CF93DF931F92CDB7DEB76983209136
:1042B000DF042223D1F02091DD04203240F021E000
:1042C00030E0FC013383228380E090E014C08091D1
:1042D000DE04E82FF0E0E354FB4F998190838F5F79
:1042E0008093DE048093DD0404C061E0CE0101967A
:1042F00055DF81E090E00F90DF91CF9108950E940B
:10430000C13B6D3009F0BEC881E090E00895FF9296
:104310000F931F93CF93DF93FC0125813681232BCD
:1043200011F1142F062FEC0166E070E00E94B21725
:10433000F82E67E070E0CE010E94B2172F81322F75
:104340000F9D300D11243C879885F92F189FF00D93
:104350001124FD874985341718F43A85F31710F0B6
:104360002C879D871E86DF91CF911F910F91FF9023
:1043700008951F920F920FB60F9211240BB60F9251
:104380002F933F934F935F936F937F938F939F935D
:10439000AF93BF93EF93FF9381EE94E03ADEFF91EA
:1043A000EF91BF91AF919F918F917F916F915F91AD
:1043B0004F913F912F910F900BBE0F900FBE0F901A
:1043C0001F9018951F920F920FB60F9211240BB6E3
:1043D0000F922F933F934F935F936F937F938F939E
:1043E0009F93AF93BF93EF93FF9381EE94E0B8DD7B
:1043F000FF91EF91BF91AF919F918F917F916F91BD
:104400005F914F913F912F910F900BBE0F900FBE78
:104410000F901F9018951F920F920FB60F921124B4
:104420000BB60F922F933F934F935F936F937F93AE
:104430008F939F93AF93BF93EF93FF938EE795E096
:10444000E8DDFF91EF91BF91AF919F918F917F91A7
:104450006F915F914F913F912F910F900BBE0F90F5
:104460000FBE0F901F9018951F920F920FB60F92CC
:1044700011240BB60F922F933F934F935F936F933B
:104480007F938F939F93AF93BF93EF93FF938EE7A9
:1044900095E066DDFF91EF91BF91AF919F918F9174
:1044A0007F916F915F914F913F912F910F900BBE34
:1044B0000F900FBE0F901F90189590E0FC01319760
:1044C000E231F10508F04EC08827E256FF4F8F4FCA
:1044D0000C949039809180008F7703C08091800088
:1044E0008F7D80938000089580918000877FF9CF31
:1044F00084B58F7702C084B58F7D84BD0895809187
:10450000B0008F7703C08091B0008F7D8093B000A2
:104510000895809190008F7707C0809190008F7DE3
:1045200003C080919000877F8093900008958091D0
:10453000A0008F7707C08091A0008F7D03C080917D
:10454000A000877F8093A0000895809120018F773D
:1045500007C0809120018F7D03C080912001877F5B
:104560008093200108951F93CF93DF93282F30E08D
:10457000F901EC58FE4F8491F901E65AF34DD491BC
:10458000F901EC5EF34DC491CC23C1F0162F8111DB
:1045900094DFEC2FF0E0EE0FFF1FE650F44DA591F5
:1045A000B4918FB7F894111105C09C91ED2FE0954F
:1045B000E92302C0EC91ED2BEC938FBFDF91CF91FB
:1045C0001F910895CF93DF9390E0FC01E65AF34DDD
:1045D0002491FC01EC5EF34D8491882361F190E01D
:1045E000880F991FFC01E052F44DC591D491FC0154
:1045F000E650F44DA591B491611109C09FB7F894AC
:104600008881209582238883EC912E230BC0623011
:1046100061F49FB7F8943881822F80958323888333
:10462000EC912E2B2C939FBF06C08FB7F894E88196
:104630002E2B28838FBFDF91CF9108953FB7F89439
:1046400080916E0490916F04A0917004B0917104F8
:1046500026B5A89B05C02F3F19F00196A11DB11DDD
:104660003FBFBA2FA92F982F8827820F911DA11D18
:10467000B11DBC01CD0142E0660F771F881F991F55
:104680004A95D1F708952FB7F89460916A04709114
:104690006B0480916C0490916D042FBF08951F925C
:1046A0000F920FB60F9211242F933F938F939F93E6
:1046B000AF93BF9380916A0490916B04A0916C04B6
:1046C000B0916D043091690423E0230F2D3720F45D
:1046D0000196A11DB11D05C026E8230F0296A11D5C
:1046E000B11D2093690480936A0490936B04A09396
:1046F0006C04B0936D0480916E0490916F04A0914E
:104700007004B09171040196A11DB11D80936E04D7
:1047100090936F04A0937004B0937104BF91AF9114
:104720009F918F913F912F910F900FBE0F901F90EF
:1047300018951F920F920FB60F9211240BB60F927D
:104740002F933F934F935F936F937F938F939F9399
:10475000AF93BF93EF93FF938091B900887F80362A
:1047600009F49CC068F5883209F45BC090F480318C
:1047700009F454C038F4882309F4F6C0883009F4E9
:104780004DC0F5C0883109F44CC0803209F45DC0D9
:10479000EEC0803409F468C048F4803309F455C091
:1047A000883309F0E4C08093BA04D8C0803509F496
:1047B0004FC0883509F45DC0883409F0D8C0D6C030
:1047C000883909F4C7C0A8F4883709F467C038F4F9
:1047D000883609F463C0803709F460C0C8C08838DF
:1047E00009F4B8C0803909F45FC0803809F0BFC04F
:1047F0005BC0803B09F486C038F4803A09F466C097
:10480000883A09F47FC0B3C0803C09F4A7C0883C53
:1048100009F4A4C0883B09F48AC0A9C08091970418
:1048200010C09091B9048091B804981770F5E09188
:10483000B90481E08E0F8093B904F0E0E856FB4F95
:1048400080818093BB0085EC86C08093BA048EC0C3
:10485000E091B90481E08E0F8093B9048091BB0090
:10486000F0E0E856FB4F80839091B9048091B80442
:104870006EC0E091B90481E08E0F8093B9048091FD
:10488000BB00F0E0E856FB4F80838091BB048111B0
:104890006DC081E08093960484EA61C083E08093D8
:1048A000BC0410926804CFCF80916804803208F075
:1048B00051C0E091680481E08E0F8093680480917C
:1048C000BB00F0E0E85BFB4F8083BDCF85EC8093BD
:1048D000BC001092BC0480916804803230F4E091F6
:1048E0006804F0E0E85BFB4F10826091680470E0C0
:1048F000E0914604F091470488E494E01995109201
:10490000680435C084E08093BC0410924504109282
:104910004404E0914204F0914304199580914404C9
:10492000811105C081E08093440410922204E0913B
:10493000450481E08E0F80934504F0E0EE5DFB4F6F
:1049400080818093BB009091450480914404981726
:1049500008F479CF85E88093BC0009C085EC80938A
:10496000BC001092BC0403C01092BA040DDCFF918D
:10497000EF91BF91AF919F918F917F916F915F91D7
:104980004F913F912F910F900BBE0F900FBE0F9044
:104990001F90189547E853E0FA012FEF3FEF9E2F45
:1049A000941B981788F49191292798E0B9016170B8
:1049B000772736952795672B21F061E0262760EA57
:1049C0003627915099F7EBCF922F832F0895E091DE
:1049D0008503F0918603828593850196938782876C
:1049E000118A108A8389882339F0848995890097F0
:1049F00019F00197958B848B83E08093CB0343DE82
:104A00006093C7037093C8038093C9039093CA034C
:104A10000895E0918503F09186038089918901963C
:104A2000918B808B248535852F5F3F4F3587248779
:104A30002091800330E08217930719F4128A118ABB
:104A4000108A83E08093CB031EDE6093C7037093CC
:104A5000C8038093C9039093CA038DE293E0ADC26B
:104A60000F931F93CF93DF93EC01162FE091720405
:104A7000F09173048D819E81199581110AC08D81F9
:104A80009E81E0917204F091730401961995823031
:104A9000A0F18D819E81E0917204F09173040496DF
:104AA0001995082F8D819E81E0917204F091730415
:104AB00005961995282F1017F0F0812F90E030E01F
:104AC000200F311D82179307B4F42B858D819E81B1
:104AD000E0917204F091730421FF02C0029607C0B6
:104AE000101B612F70E06A5F7F4F860F971F19952B
:104AF00011E0180F1FC010E01DC08D819E81E09154
:104B00007204F091730402961995182FE0917204C3
:104B1000F09173048D819E81199581110BC08D8157
:104B20009E81E0917204F0917304019619958111B0
:104B300001C01F5F812FDF91CF911F910F910895C9
:104B4000CF92DF92EF92FF920F931F93CF93DF9359
:104B50006C01E901FC012781F184F394F21AEF2D35
:104B6000F0E0CB01E617F7070CF4CF014A3BFBE07E
:104B70005F0721F12CF4493B8BE0580719F113C072
:104B80004D3BEBE05E0749F04E3BFBE05F0759F41D
:104B9000F6014485F42EF21A16C097FD01969595FC
:104BA0008795F6940BC057FF0BC0642F619540E0CA
:104BB000C601ADDBF60144858781F42EF81A03C0E7
:104BC000F42E01C0F12CCC3BFBE0DF0731F12CF4DB
:104BD000CB3B8BE0D807A9F128C0CD3BEBE0DE074B
:104BE00029F0CE3BFBE0DF0739F11FC0F601C2859B
:104BF000D0E08085C81BD1092196D7FD2196D59597
:104C0000C795C6011FD290E09C012150310937FDA4
:104C10009C0135952795C21B15C0F601D085C2852C
:104C2000CF5FC6010FD2CD1B0AC0D7FF0BC04C2FE0
:104C3000419560E0C6016BDBF601C5858085C81B28
:104C400001C0C0E0F6014781F40EF4868085C80FEC
:104C5000C587168685819681E0917204F091730470
:104C60000396199521E0F60194819F3F09F420E015
:104C7000E22EE1940130110561F00230110579F066
:104C8000012BB1F40C2F080FF60121854C2F6F2D4D
:104C90000CC00C2F080F2F2D4C2FF60105C00C2F28
:104CA000080FF60121854C2F6781C6010E94AC19BF
:104CB000F601F486C587DF91CF911F910F91FF9088
:104CC000EF90DF90CF900895CF92DF92EF92FF9216
:104CD0000F931F93CF93DF93EC016A017B01E88967
:104CE000F98982E080834115514E61057105B1F06B
:104CF00060E079E08DE390E0A70196010E94F53E27
:104D000089019A0101501109210931093695279528
:104D100017950795980101151041A8F0E889F989C0
:104D2000108260E874E88EE190E0A70196010E948D
:104D3000F53EDA01C9010197A109B109B695A79518
:104D4000979587959C01EC85FD853083EE85FF85E1
:104D50002083188EEC89FD8986E08083EA89FB89AF
:104D6000808180618083EA89FB898081886080837B
:104D7000EA89FB89808180688083EA89FB89808158
:104D80008F7D8083DF91CF911F910F91FF90EF90E6
:104D9000DF90CF900895CF92DF92EF92FF920F9322
:104DA0001F93CF93DF93EC0181E08093DF0488E6CB
:104DB00080938F071092DE041092DD0460E08BE197
:104DC00096E06FDA8091DD04813208F045C0909161
:104DD000BC049111FCCF92E09093BC0491E09093BD
:104DE000BB049FEF9093BA041092B9048093B80467
:104DF000ADEBB4E028E934E0F9019E2F921B98173F
:104E000018F49D919193F9CF109297048091970493
:104E1000806D8093970480919604813061F41092A4
:104E20009604809197048093BB008091BC0083FD21
:104E3000F8CF85EC01C085EE8093BC008091BC0466
:104E40008230E1F38091BA048F3F31F08091BA044F
:104E5000803211F08091BA041092DE041092DD04C9
:104E60001092DF048091BC048111FCCF81E080931B
:104E7000BC048093BB049FEF9093BA041092B904D2
:104E800092E19093B8048093970480919704806D89
:104E90008093970480919604813061F41092960477
:104EA000809197048093BB008091BC0083FDF8CF74
:104EB00085EC01C085EE8093BC008091BC048130FC
:104EC000E1F38091B904833118F48091B90401C0F1
:104ED00083E1A8E9B4E026E734E0F9019E2F921BB4
:104EE000981718F49D919193F9CF109275048093BF
:104EF00074048BE196E08AD98F77982F92959F70F2
:104F00001AEF082F919F000D11248BE196E07ED9B6
:104F10009C01332794E0359527959A95E1F7F82E73
:104F2000129FF00C11248BE196E070D99C0133277D
:104F300044E0359527954A95E1F7E82E129FE00C5D
:104F400011248BE196E062D98BE196E05FD99C0158
:104F5000332754E0359527955A95E1F7D82E129FBF
:104F6000D00C11248BE196E051D99C01332764E0E9
:104F7000359527956A95E1F7C82E129FC00C11242C
:104F80008BE196E043D99C01332774E03595279552
:104F90007A95E1F7129F800D11248883C982DA8205
:104FA000EB82FC820D83CE01DF91CF911F910F9197
:104FB000FF90EF90DF90CF900895CF93DF93BC01E7
:104FC0008EE795E010D4EC0164EF72E08EE795E097
:104FD0000AD48C0F9D1FDF91CF910895EF920F930C
:104FE00080917F0790918007892B49F091E0809113
:104FF0007E078F3F09F490E0E92EE19401C0E12C97
:105000000091840720918307409182076091810776
:105010008AE797E00E94AC19809181078093860708
:1050200080918207809387071092880762E673E079
:105030008AE797E044D410923D07109233070F910E
:10504000EF9008951F93CF93DF93EC018D819E81A4
:105050000097D9F0E0917204F091730403961995CA
:10506000182FE0917204F09173048D819E8119953F
:1050700081110DC08D819E81E0917204F0917304C5
:1050800001961995813019F403C010E001C01F5F2B
:10509000812FDF91CF911F9108958F929F92AF92B0
:1050A000BF92CF92DF92EF92FF920F931F93CF9315
:1050B000DF931F921F92CDB7DEB76C0189014B01C0
:1050C0005B01E12CF12CF50161915F01662349F050
:1050D000C60149835A83C4DCE80EF11C5A81498118
:1050E000F2CFB70177272EEB3BE0C60129DDF401B3
:1050F00061914F01662321F0C6010E94421AF7CF49
:105100000F900F90DF91CF911F910F91FF90EF9033
:10511000DF90CF90BF90AF909F908F9008950895AB
:1051200096E0899FD0011124A95CB94FDA967C934F
:105130006E93D99791E0DB969C93DB979091BD0697
:10514000E091BE06F091BF06992339F0309751F0F7
:10515000811108C080916D0604C0309719F0D69671
:105160008C9119940895CF92DF92EF92FF920F9352
:105170001F93CF93DF936C017A018B01C0E0D0E0E5
:10518000CE15DF0589F0D8016D918D01D601ED9125
:10519000FC910190F081E02DC6011995892B11F445
:1051A0007E0102C02196ECCFC701DF91CF911F9104
:1051B0000F91FF90EF90DF90CF900895CF93DF9302
:1051C000EC0188819981009711F00E94453A19827B
:1051D00018821D821C821B821A82DF91CF91089552
:1051E0000F931F93CF93DF93EC01888199810097F0
:1051F00029F02A813B812617370788F48B016F5FDE
:105200007F4F0E94DD3A009761F0998388831B836A
:105210000A832C813D81232B11F4FC01108281E053
:1052200001C080E0DF91CF911F910F910895EF921F
:10523000FF920F931F93CF93DF93FC01248135815D
:105240006115710511F480E018C041155105A1F0F8
:105250007B01EC018A01020F131FB801C1DF882313
:1052600091F3288139818C819D81B701820F931F31
:105270000E94CE3B1D830C8381E0DF91CF911F9173
:105280000F91FF90EF900895EF92FF920F931F936D
:10529000CF93DF93EC017B018A01BA01A1DF811179
:1052A00003C0CE018BDF07C01D830C83B70188814B
:1052B00099810E94CE3BCE01DF91CF911F910F913A
:1052C000FF90EF900895CF93DF93EC01FB018617D9
:1052D000970751F0608171816115710521F044815A
:1052E0005581D2DF01C06ADFCE01DF91CF910895F1
:1052F000AF92BF92CF92DF92EF92FF920F931F93E4
:10530000CF93DF93CDB7DEB728970FB6F894DEBF03
:105310000FBECDBF6B017C015A0120E030E046ECAE
:1053200052EC0E94AC391816CCF48E010F5F1F4F5F
:1053300022E044E0C701B6010E94D53B22E030E004
:105340004DEB5BE0B8018EE397E0A7DEF5016081ED
:10535000718122E030E04DEB5BE00FC022E030E0F5
:105360004DEB5BE064E673E08EE397E096DE22E0CF
:1053700030E04DEB5BE066EF72E08DE497E08DDEB0
:1053800028960FB6F894DEBF0FBECDBFDF91CF9148
:105390001F910F91FF90EF90DF90CF90BF90AF9053
:1053A0000895CF92DF92EF92FF920F931F93CF93C6
:1053B000DF937C016B018C01C0E0D0E0C801F801F3
:1053C0002491222351F00F5F1F4FFC01649188E26A
:1053D00096E046DBC80FD11DF1CFBE01772703E071
:1053E00010E02BEB3BE0A60188E296E0A9DBF70199
:1053F0006491662341F088E296E00E94421AFFEF32
:10540000EF1AFF0AF4CFDF91CF911F910F91FF9018
:10541000EF90DF90CF900895CF9387FD1BC060344D
:10542000C8F4C62F682F4C2F487F88E296E00E9470
:10543000A31888E296E00E94DE18C77061E070E071
:1054400001C0660FCA95EAF7682B88E296E0CF9113
:105450000C940619CF9108958093560881E090E04E
:1054600090936B0880936A0882E090E090935B08C9
:1054700080935A0886E693E0A0CD0F931F93CF93B5
:10548000DF93C82FD62F86E0C89FF0011124E95C76
:10549000F94F13AE81AD92AD81309105E1F01CF46E
:1054A000892B49F03FC08230910591F10397D1F5E6
:1054B00060E070E031C06623A9F161E070E08C2FFC
:1054C0002FDEE1D86093A9067093AA068093AB06FD
:1054D0009093AC0627C0D7D80091A9061091AA06D0
:1054E0002091AB063091AC06AB01BC01401B510BC7
:1054F000620B730B8091BB069091BC06A0E0B0E0FC
:1055000084179507A607B70718F462E070E004C097
:10551000D11108C063E070E08C2FDF91CF911F9113
:105520000F91FECDDF91CF911F910F910895EAE089
:10553000DC01EA9FC001EB9F900D1124FC01EF52AA
:10554000F94F4083518362837383B9018553994F27
:10555000BACECF93DF93EC016115710559F0FB01D1
:1055600001900020E9F73197AF01461B570B5FDE32
:10557000811102C0CE0122DECE01DF91CF910895CC
:10558000CF93DF93EC01FB014481558160817181F0
:105590004EDE811102C0CE0111DECE01DF91CF912E
:1055A0000895CF93DF93EC016115710551F0FB0174
:1055B00001900020E9F73197AF01461B570B64DEDD
:1055C00001C0FCDDCE01DF91CF9108950F931F93B1
:1055D000CF93DF93CDB7DEB762970FB6F894DEBFF7
:1055E0000FBECDBF8C01CB01F80111821082138256
:1055F00012821582148250E0BE016F5F7F4F0E94BD
:105600001A3CBE016F5F7F4FC801CBDF62960FB6B9
:10561000F894DEBF0FBECDBFDF91CF911F910F91E8
:105620000895FC01808191810C94453AFC0111821E
:105630001082138212821582148245CEFC011182DF
:10564000108213821282158214826115710549F04D
:10565000FB0101900020E9F73197AF01461B570B82
:1056600013CE0895EF92FF920F931F93CF93DF9382
:10567000CDB7DEB76E970FB6F894DEBF0FBECDBFC5
:10568000E091E906F091EA06038110E0E480F12C54
:1056900066EF72E0CE014996D1DF66EF72E0CE018F
:1056A0004396CCDF66E773E0CE010D96C7DF4AE094
:1056B000B7018AE0E816F104B4F4CE01019686DF62
:1056C0006AE773E0CE010796B9DFBE016F5F7F4FD7
:1056D000CE01079655DFBC01CE014396F4DDCE0125
:1056E00007969FDF28C0CE01019670DF8B899C89C9
:1056F000009779F069817A816115710541F04D89D2
:105700005E892D813E814217530708F065C00E94D3
:10571000453A89819A819C8B8B8B8B819C819E8B56
:105720008D8B8D819E81988F8F8B1A8219821C821E
:105730001B821E821D82CE01019673DF0C30110583
:1057400054F06CE773E0CE010D962BDF0C301105A1
:1057500011F00C5011094AE0B801CE01079636DF6E
:10576000BE01695F7F4FCE01019660DF60EB72E0A2
:10577000CE010196EEDEBE016D5E7F4F01DFBE0100
:10578000635F7F4FFDDEBC01CE0149969CDDCE01FB
:10579000019647DFCE01079644DF698D7A8D21E0BF
:1057A00030E04AEB5BE08CE597E077DCCE010D96CC
:1057B00038DFCE01439635DFCE01499632DF6E9653
:1057C0000FB6F894DEBF0FBECDBFDF91CF911F9112
:1057D0000F91FF90EF9008950E94CE3B8D819E81A6
:1057E000988F8F8BA6CF6115710579F0FB01019021
:1057F0000020E9F73197AF01461B570BDC01ED9113
:10580000FC910280F381E02D199480E090E00895EE
:10581000CF93DF93FC0144815581608171818EE7D4
:1058200095E0A1DCEC0164EF72E08EE795E0DBDF50
:105830008C0F9D1FDF91CF9108958F929F92AF9211
:10584000BF920F931F93CF93DF93CDB7DEB7A1978E
:105850000FB6F894DEBF0FBECDBF19A2423008F4D8
:105860004AE08E010F5D1F4F842E912CA12CB12C8C
:10587000A50194010E94F53EE62FB901CA0101502D
:105880001109EA3014F4E05D01C0E95CD801EC9341
:10589000232B242B252B61F7B8018EE795E0A3DF9E
:1058A000A1960FB6F894DEBF0FBECDBFDF91CF91AA
:1058B0001F910F91BF90AF909F908F90089593CFBD
:1058C000CF93DF93CDB7DEB7A9970FB6F894DEBFBD
:1058D0000FBECDBF789484B5826084BD84B58160ED
:1058E00084BD85B5826085BD85B5816085BD8091AB
:1058F0006E00816080936E00109281008091810023
:10590000826080938100809181008160809381001A
:10591000809180008160809380008091B1008460DC
:105920008093B1008091B00081608093B00080913D
:1059300091008260809391008091910081608093BA
:105940009100809190008160809390008091A100EF
:1059500082608093A1008091A10081608093A1006A
:105960008091A00081608093A000809121018260DD
:105970008093210180912101816080932101809198
:10598000200181608093200180917A00846080935F
:105990007A0080917A00826080937A0080917A0008
:1059A000816080937A0080917A00806880937A0089
:1059B0001092C10040E056E960E070E08EE795E0AB
:1059C00083D98CE592E0F9DA22E0F22EF09290078A
:1059D00093E09093910743E050E0509393074093F6
:1059E000920701E010E0109395070093940710923E
:1059F00097071092960781E08093A2071092A30761
:105A000024E02093A6079093A7071093A90700937B
:105A1000A807A2E0B0E0B093AB07A093AA07B093A9
:105A2000AD07A093AC078093B8071092B9072093F5
:105A30004008909341086BE070E0709343086093D6
:105A40004208E4E0F0E0F0934508E09344083FE0CA
:105A5000C32ED12CD0924708C0924608809352089A
:105A6000109253082093BC079093BD07F093BF0793
:105A7000E093BE071093C1070093C0071093C307BC
:105A80000093C2078093CE071092CF07209314088B
:105A900030E13093150867E070E070931708609369
:105AA00016085093190840931808F0931B08E093C8
:105AB0001A088093260880932708109229081092CC
:105AC00028089093FE073093FF07709301086093B6
:105AD00000085093030840930208709305086093F0
