:100000002DC200005CC200005AC2000058C20000AD
:1000100056C2000054C2000052C2000050C200008C
:100020004EC200004CC200004AC2000048C200009C
:1000300046C2000044C2000042C2000040C20000AC
:100040003EC200003CC200003AC2000038C20000BC
:1000500036C2000034C2000032C200000BC50000EE
:100060002EC200003CC4000011C4000028C20000E1
:1000700026C2000024C2000022C2000020C20000EC
:100080001EC200001CC200001AC2000018C20000FC
:1000900016C2000014C2000012C2000010C200000C
:1000A0000EC200000CC200000AC2000008C200001C
:1000B00006C2000004C2000002C2000000C200002C
:1000C000FEC10000FCC10000FAC10000F8C1000040
:1000D000F6C10000F4C10000B0C3000085C30000F9
:1000E000EEC10000BB13BB13001400143614361409
:1000F0005B145B145B145B145B145B145B145B1488
:1001000036143614CE14D414DA14E614F21481150D
:10011000FE14071510151C15281534154515511515
:1001200081155D15691575158F039203810385038C
:100130008B03C90396039A03A003A403A803AE0389
:10014000B203B603C903BC03C003C4030000050720
:100150002061000000000000005F000000070007B1
:1001600000147F147F14242A7F2A12231308646248
:1001700036495522500005030000001C22410000B2
:1001800041221C00082A1C2A0808083E08080050C2
:10019000300000080808080800606000002010080F
:1001A00004023E5149453E00427F400042615149B0
:1001B000462141454B311814127F102745454539DA
:1001C0003C4A494930017109050336494949360617
:1001D0004949291E00363600000056360000000846
:1001E0001422411414141414412214080002015161
:1001F0000906324979413E7E1111117E7F494949F4
:10020000363E414141227F4141221C7F49494941BB
:100210007F090901013E414151327F0808087F00F2
:10022000417F41002040413F017F081422417F402F
:100230004040407F0204027F7F0408107F3E41411E
:10024000413E7F090909063E4151215E7F09192976
:1002500046464949493101017F01013F4040403F45
:100260001F2040201F7F2018207F63140814630381
:1002700004780403615149454300007F4141020471
:1002800008102041417F0000040201020440404068
:100290004040000102040020545454787F484444F4
:1002A000383844444420384444487F38545454181F
:1002B000087E090102081454543C7F0804047800A5
:1002C000447D40002040443D00007F102844004110
:1002D0007F40007C041804787C0804047838444487
:1002E00044387C14141408081414187C7C08040482
:1002F000084854545420043F4440203C4040207C53
:100300001C2040201C3C4030403C44281028440C19
:100310005050503C4464544C4400083641000000A6
:100320007F0000004136080008082A1C08081C2A23
:100330000808000609090600000A0B02090C0D0E48
:100340000807030401000000000000000000000096
:10035000000000000000000000000000000000009D
:10036000000000121110000000000000000000005A
:10037000000000000000000000000000000000205D
:10038000002300260029002C002F0032000001006D
:100390000003010601090100002100240027002AB2
:1003A000002D003000330001010000040107010AA4
:1003B0000100002200250028002B002E003100340F
:1003C0000002010000050108010B010505050507F4
:1003D0000508080808020202020A0A0808040404C0
:1003E00004010101010101010103030303030303EC
:1003F00003040707070C0C0C0C0C0C0C0C0202027B
:100400000206060606060606060B0B0B0B0B0B0B6D
:100410000B0102102020080810204010204080020C
:10042000010201080402010102040810204080803A
:1004300040201008040201800402018040201008BE
:100440000402010804020101020408102040800196
:1004500002040810204080008E18891811241FBE45
:10046000CFEFD1E2DEBFCDBF00E00CBF13E0A0E0D4
:10047000B2E0EAE7FBE300E00BBF02C007900D9299
:10048000A832B107D9F726E0A8E2B3E001C01D9277
:10049000A434B207E1F712E0CDE2D2E000E006C0FA
:1004A00021970109802FFE010E94AB19CC32D107A0
:1004B00080E00807A9F70E941B0F0C94AC1DA0CD8B
:1004C000FC01A089B1898C91A689B78982FD0FC0F2
:1004D0009C91818D8F5F8F73228D821749F0218DC2
:1004E000DF01A20FB11D5D969C93818F08958C91C1
:1004F0000895FC01918D828D981761F0828DDF0146
:10050000A80FB11D5D968C91928D9F5F9F73928F06
:1005100090E008958FEF9FEF0895FC01918D828DFB
:10052000981731F0828DE80FF11D858D90E00895C8
:100530008FEF9FEF0895FC01918D228D892F90E020
:10054000805C9F4F821B91098F739927089589E6DC
:1005500094E0F1DF21E0892B09F420E0822F089557
:1005600086E095E0E8DF21E0892B09F420E0822F86
:100570000895FC01848DDF01A80FB11DA35ABF4F60
:100580002C91848D90E001968F739927848FA68992
:10059000B7892C93A089B1898C9180648C93938DB9
:1005A000848D981306C00288F389E02D80818F7DA9
:1005B00080830895EF92FF920F931F93CF93DF9361
:1005C000EC0181E0888F9B8D8C8D981305C0E889A4
:1005D000F989808185FD23C0F62E0B8D10E00F5F19
:1005E0001F4F0F731127E02E8C8DE8120BC00FB632
:1005F00007FCFACFE889F989808185FFF5CFCE0124
:10060000B8DFF2CF8B8DFE01E80FF11DE35AFF4FEB
:10061000F0820B8FEA89FB898081806207C0EE89B6
:10062000FF896083E889F98980818064808381E023
:1006300090E0DF91CF911F910F91FF90EF9008957F
:10064000CF93DF93EC01888D8823C1F0EA89FB8981
:10065000808185FD05C0A889B9898C9186FD0EC071
:100660000FB607FCF5CF808185FFF2CFA889B98945
:100670008C9185FFEDCFCE017CDFE8CFDF91CF916C
:10068000089580E090E0892B19F06ADF811120C085
:1006900080E090E0892B41F080E090E0892B21F010
:1006A0000E940000811117C080E090E0892B41F08A
:1006B00080E090E0892B21F00E94000081110EC0A3
:1006C00080E090E0892B79F042DF81110AC0089523
:1006D0000E940000DDCF0E940000E6CF0E940000D3
:1006E000EFCF0C940000089590E0FC013197E231C7
:1006F000F10508F04EC08827EC56FF4F8F4F0C9441
:10070000AB19809180008F7703C0809180008F7D2E
:1007100080938000089580918000877FF9CF84B511
:100720008F7702C084B58F7D84BD08958091B0001D
:100730008F7703C08091B0008F7D8093B0000895C3
:10074000809190008F7707C0809190008F7D03C0CB
:1007500080919000877F8093900008958091A00001
:100760008F7707C08091A0008F7D03C08091A0008B
:10077000877F8093A0000895809120018F7707C024
:10078000809120018F7D03C080912001877F80931D
:1007900020010895FC0184910895CF93DF9370E0C8
:1007A000FB01E95CFC4F8491FB01EF5EFB4FD491B0
:1007B000FB01E553FC4FC491CC2389F0811194DFF8
:1007C000EC2FF0E0EE0FFF1FE358FC4FA591B49122
:1007D000EC91ED2381E090E021F480E002C080E024
:1007E00090E0DF91CF9108951F920F920FB60F9274
:1007F00011240BB60F922F933F934F935F936F93F8
:100800007F938F939F93AF93BF93EF93FF9389E66B
:1008100094E0AFDEFF91EF91BF91AF919F918F91E7
:100820007F916F915F914F913F912F910F900BBEF0
:100830000F900FBE0F901F9018951F920F920FB63A
:100840000F9211240BB60F922F933F934F935F9308
:100850006F937F938F939F93AF93BF93EF93FF9388
:1008600089E694E02DDEFF91EF91BF91AF919F91CA
:100870008F917F916F915F914F913F912F910F9049
:100880000BBE0F900FBE0F901F9018951F920F92E6
:100890000FB60F9211240BB60F922F933F934F93E5
:1008A0005F936F937F938F939F93AF93BF93EF93D8
:1008B000FF9386E095E05DDEFF91EF91BF91AF91F0
:1008C0009F918F917F916F915F914F913F912F9168
:1008D0000F900BBE0F900FBE0F901F9018951F9298
:1008E0000F920FB60F9211240BB60F922F933F93D6
:1008F0004F935F936F937F938F939F93AF93BF9328
:10090000EF93FF9386E095E0DBDDFF91EF91BF91E0
:10091000AF919F918F917F916F915F914F913F9197
:100920002F910F900BBE0F900FBE0F901F90189538
:100930001F93CF93DF93282F30E0F901E95CFC4F40
:100940008491F901EF5EFB4FD491F901E553FC4F1F
:10095000C491CC23C1F0162F8111C6DEEC2FF0E03C
:10096000EE0FFF1FEF54FC4FA591B4918FB7F89491
:10097000111105C09C91ED2FE095E92302C0EC9187
:10098000ED2BEC938FBFDF91CF911F910895862FB0
:10099000642FCECFCF93DF9390E0FC01EF5EFB4F4F
:1009A0002491FC01E553FC4F8491882361F190E090
:1009B000880F991FFC01E956FC4FC591D491FC01A9
:1009C000EF54FC4FA591B491611109C09FB7F89401
:1009D0008881209582238883EC912E230BC062307E
:1009E00061F49FB7F8943881822F809583238883A0
:1009F000EC912E2B2C939FBF06C08FB7F894E88103
:100A00002E2B28838FBFDF91CF910895862F642FDF
:100A1000C1CF3FB7F8948091650490916604A0918E
:100A20006704B091680426B5A89B05C02F3F19F054
:100A30000196A11DB11D3FBFBA2FA92F982F88275E
:100A4000820F911DA11DB11DBC01CD0142E0660FB9
:100A5000771F881F991F4A95D1F708952FB7F894EB
:100A600060916104709162048091630490916404C8
:100A70002FBF08951F920F920FB60F9211242F933C
:100A80003F938F939F93AF93BF9380916104909115
:100A90006204A0916304B09164043091600423E087
:100AA000230F2D3720F40196A11DB11D05C026E8A6
:100AB000230F0296A11DB11D209360048093610451
:100AC00090936204A0936304B093640480916504DE
:100AD00090916604A0916704B09168040196A11DED
:100AE000B11D8093650490936604A0936704B0934E
:100AF0006804BF91AF919F918F913F912F910F907B
:100B00000FBE0F901F90189541E353E0FA012FEFAD
:100B10003FEF9E2F941B981788F49191292798E016
:100B2000B9016170772736952795672B21F061E031
:100B3000262760EA3627915099F7EBCF922F832F23
:100B40000895E0912F03F0913003828593850196FB
:100B500093878287118A108A8389882339F0848950
:100B60009589009719F00197958B848B83E080938A
:100B7000750374DF60937103709372038093730342
:100B8000909374030895E0912F03F09130038089CE
:100B900091890196918B808B248535852F5F3F4FFE
:100BA000358724872091280330E08217930719F4B2
:100BB000128A118A108A83E0809375034FDF609355
:100BC000710370937203809373039093740363E2D1
:100BD00073E086E095E00E94B10E62E472E086E088
:100BE00095E00C94B10E4098419A0895613011F44B
:100BF000FADF02C0409A419811B8429A4398449A49
:100C0000C89500C00799FECF4498089560912B03C2
:100C10006295669566956370E9DF429A439A00C0D3
:100C2000449AC89500C080B144980895CF93C62FC8
:100C3000642FDCDF429843988FEF81B9C2B900C0BE
:100C4000449AC895C89500004498CF9108950F9391
:100C50001F93CF93DF938C0180912B03681304C003
:100C600080912C03481749F167FD27C0403428F5CF
:100C7000942FC62F60932B0340932C03D62FD2952D
:100C8000D695D695D370969596959695ED2FF0E0DE
:100C9000E55DFC4F8281981731F09283692F686B74
:100CA0004D2FC801C3DF6C2F6F7360644D2FC801D7
:100CB000DF91CF911F910F91B9CFDF91CF911F910C
:100CC0000F910895FF920F931F93CF93DF931F927D
:100CD000CDB7DEB760912B0367FD14C08C0169832B
:100CE00095DFC80193DFF82E8091A30569818111FA
:100CF000F0948FEF80932B0340912C03C801A7DF62
:100D00008F2D01C080E00F90DF91CF911F910F9147
:100D1000FF900895BF92CF92DF92EF92FF920F93D0
:100D20001F93CF93DF938C01C62FF0902B03F7FC1A
:100D30008DC0F294F694F69483E0F82280912C030F
:100D40008770E82E09F452C0C801BCDFB82E6F2DA1
:100D5000C8014CDF4298439A8FEF81B900C0449A92
:100D6000D0E0CE2CD12C9E0101C0220FEA94EAF7EC
:100D70002B298091A3058111209522B9C895C8958A
:100D800000004498E0902C038E2D90E00896887F18
:100D90008034910534F548E04E0D487F60912B0377
:100DA000C80155DFC8018EDFB82E6F2DC8011EDFC8
:100DB0004298439A8FEF81B900C0449A28E030E00E
:100DC0002C193D0902C0D595C7952A95E2F7CB2984
:100DD0008091A3058111C095C2B9C895C89500003E
:100DE000449860912B036F5F4E2D25C06F2DC80175
:100DF000FDDE4298439A8FEF81B98091A30581115E
:100E0000C09500C0449AC2B9C895C89500004498DE
:100E100060912B036F5F60932B03862F82958695DD
:100E2000869583708F1591F067FD10C08FEF8093CA
:100E30002B0340912C03C801DF91CF911F910F919B
:100E4000FF90EF90DF90CF90BF9001CFDF91CF91D7
:100E50001F910F91FF90EF90DF90CF90BF9008957A
:100E60007F928F929F92AF92BF92CF92DF92EF923A
:100E7000FF920F931F93CF93DF936C01F62E041B09
:100E80000F5F261B99249394920E842F8770142F42
:100E9000181BA02EB12C28E030E0A901481B5109F5
:100EA000A416B5065CF42A193B09CFEFD0E002C0C6
:100EB000D595C7952A95E2F7802E04C098E0892E33
:100EC000881ACFEF01C0CC0F8A95EAF77C2E412F0C
:100ED0006F2DC601BCDED0E0C095D91568F4C601FF
:100EE000F1DE9FEF682FE91202C0672901C06C2371
:100EF000C60110DFDF5FF1CFC12F811A282D2C0F23
:100F0000822F90E0AC01495F5F4F4A155B056CF49E
:100F1000C85F4C2F6F2DC6019ADED0E0D91570F74F
:100F20006E2DC601F7DEDF5FF9CF201708F5A81A8E
:100F3000B90A8FEF90E001C0880FAA94EAF7D82F82
:100F4000D09548E04C0F6F2DC60181DEC0E01D2F0B
:100F50001095C91568F4C601B5DE9FEF682FE91238
:100F600002C06D2B01C06123C601D4DECF5FF1CF7B
:100F7000DF91CF911F910F91FF90EF90DF90CF9075
:100F8000BF90AF909F908F907F9008952F923F9247
:100F90004F925F926F927F928F929F92AF92BF9289
:100FA000CF92DF92EF92FF920F931F93CF93DF9335
:100FB000CDB7DEB766970FB6F894DEBF0FBECDBFD4
:100FC000DC0115962D913C9116972115310519F4E8
:100FD00080E090E030C5162F9E8B8D8BC901039663
:100FE000E0912903F0912A036A3009F02BC2199588
:100FF000F82EE0912903F0912A03AD89BE89159658
:101000008D919C911697199581110DC0ED89FE89DE
:1010100085819681E0912903F0912A030196199523
:10102000813009F45FC2AD89BE891C966C911C9712
:1010300019962C911997621780F41D964C911D9763
:1010400081E014969C919F3F09F480E0E82EE194A2
:101050000F2D040F8D899E8903DFED89FE8983851D
:1010600095852F2D30E080FDF6C00285602F70E061
:10107000220F331F290F311D261737070CF4E3C049
:101080008685811106C081E0AD89BE891E968C934C
:10109000D0C421E0290F201B9F2C990C920E91E0C7
:1010A000ED89FE8984818F3F09F490E0E92EE19477
:1010B000AD89BE8919967C90199718964C9118970E
:1010C0001796DC90892D90E0840F911D68177907A1
:1010D000BCF0242F277081E090E001C0880F2A9592
:1010E000EAF788248A94880EB42FB87F6B2EC92C17
:1010F000C40EEC2DE87F5E2EAA24A394B12C51C01F
:10110000272D6D2D8D899E89ABDE90C0222D30E07C
:10111000832D877002C0359527958A95E2F7312F88
:10112000377020FF07C0C501032E01C0880F0A9445
:10113000EAF7482A3394832D877009F44AC0373080
:1011400059F4412F487F6D2D8D899E8980DD642D56
:101150008D899E89DFDD412C132D19190315B0F6F9
:10116000312E390C212F2770131144C0C9F05FEFC5
:10117000510F452F487F6D2D8D899E892C8B67DD02
:101180008D899E899FDD2C89B50101C0660F2A9546
:10119000EAF761958623682F64298D899E89BADDD7
:1011A000D3947D1408F442C0462D6D2D8D899E89FF
:1011B0004EDD8D899E8986DD482E48203C2C452DAC
:1011C0006D2D8D899E8943DD8D899E897BDD282E3D
:1011D000C3CFFFE3F31508F4B2CF432D487F6D2D45
:1011E0008D899E893B8B33DD8D899E896BDD282E11
:1011F0003B89A5CF3FEFC501022E01C0880F0A949D
:10120000EAF7E31202C0482A02C08095482227303C
:1012100059F4412F487F6D2D8D899E8918DD642DED
:101220008D899E8977DD412C1F5F9CCFAD89BE895A
:1012300017968C9117971C968C931C971A968C91E5
:101240001A978F19FCC0ED89FE89878184879F5F7B
:101250009F0D9587EEC3AD89BE891896DC901897CF
:101260004D2D50E0692F70E0240F351F26173707EA
:101270005CF417968C9117971C968C931C97915041
:101280009F191D969C93D5C3ED89FE898685882379
:1012900009F4F9CE9F5F9D19192F1F0D91E08481EC
:1012A0008F3F09F490E0E92EE194AD89BE891A964A
:1012B0000C911A9719969C9019971796FC90410FCC
:1012C000511D802F90E084179507D4F0202F2770B0
:1012D0002F5F81E090E001C0880F2A95EAF7C82EC1
:1012E000C194202F287F2983702E711A372D387FC3
:1012F000532EAA24A394B12C81E0882E811A5FC0BA
:10130000292D4D2D6F2D8D899E89AADD8DC02A94A2
:10131000822D8770873051F4422D487F6F2D8D8943
:101320009E8995DC8D899E89CDDC682E2D1420F157
:10133000262D30E0822D877002C0359527958A953D
:10134000E2F7832D877020FF07C09501082E01C0AA
:10135000220F0A94EAF7422A81110BC0432D487FDD
:101360006F2D8D899E8973DC642D8D899E89D2DCD9
:10137000412C3A942110CBCF212E632C611A462D9B
:10138000420D211034C0982D930D892F8770382E6F
:10139000A9F0492F487F6F2D8D899E8958DC8D8952
:1013A0009E8990DCB50101C0660F3A94EAF761505E
:1013B0008623682F64298D899E89ACDCF3949F1461
:1013C00098F149816F2D8D899E8941DC8D899E8997
:1013D00079DC482E4C20272C452D6F2D8D899E8938
:1013E00036DC8D899E896EDC682E302E9FCF842F4F
:1013F00087705FEFB501082E01C0660F0A94EAF707
:10140000E51202C0462A02C06095462281110AC038
:10141000487F6F2D8D899E891ADC642D8D899E8968
:1014200079DC412C2A94ABCFAD89BE8917968C917B
:1014300017971C968C931C9718968C9118971D964D
:101440008C93F7C21995E82EED89FE8985819681E6
:10145000E0912903F0912A0304961995082FAD898C
:10146000BE8915968D919C911697E0912903F09174
:101470002A0305961995101708F4AACD212F30E0FC
:10148000A82EB12CA501400F511DC9018417950745
:101490000CF09ECD2E2D30E03D832C83690137E08A
:1014A000C30ED11C73E0D594C7947A95E1F7101B55
:1014B000E0912903F0912A03AD89BE8915968D919B
:1014C0009C911697199581110FC0ED89FE89858130
:1014D0009681E0912903F0912A03019619958230B3
:1014E00018F468C2FA949FCD86E0882E912C612C66
:1014F000712CAD89BE8915968D919C911697E091BE
:101500002903F0912A032AEF280D211748F4880DAA
:10151000991D1995680E711CFFEF8F1A9F0AE9CF6C
:101520006C9C90016D9C300D7C9C300D1124B6E0BC
:10153000AB0EB11CA501420F531F5A834983612F83
:1015400070E06A5F7F4F860F971F1995F82E33243E
:101550003394FF2009F43CCDAD89BE891E968C9151
:101560001E97882331F06AE0CD0110DDED89FE89F8
:101570001686AD89BE891B968C911B97CF2CD12CDA
:1015800081FF18C01C961C911C9715968D919C91FB
:101590001697E0912903F0912A030296199590E09D
:1015A0008C199D0997FD019695958795810FED8979
:1015B000FE898487AD89BE891C968C911C97860113
:1015C000080F111DE0912903F0912A0315968D91C2
:1015D0009C911697199581110DC0ED89FE89858121
:1015E0009681E0912903F0912A030196199591E0E3
:1015F000813009F090E0091B1109AD89BE89199667
:101600008C91199790E0801791074CF56AE0CD0115
:10161000BDDCED89FE898685882339F06AE0CF013B
:10162000B5DCAD89BE891E961C92ED89FE89838545
:1016300081FF15C0148585819681E0912903F09181
:101640002A030296199590E08C199D0997FD019641
:1016500095958795810FAD89BE891C968C93E091F5
:101660002903F0912A03AD89BE8915968D919C912D
:10167000169719958111BCC1ED89FE8985819681E6
:10168000E0912903F0912A0301961995813009F020
:10169000AFC14E2C10E028E030E08E2D8770A901FC
:1016A000481B51095987488729813A812C0D3D1DD6
:1016B000398B288B642C712C88248394912C1415DD
:1016C00008F03DC1AD89BE891D965C901D97510EF5
:1016D0005B82452D487F1C966C911C97CD01B7DA33
:1016E000812F8695869586958F9D900111243F8345
:1016F0002E83A12CB12C812F90E09C01287F4C815E
:101700005D81421B530B5B874A87288939894E814B
:101710005F81240F351F3D872C879301281B390BD0
:101720003F872E870B810770AF1408F0B4C01E15D9
:1017300038F52E813F8149815A81240F351F2A0DAA
:101740003B1DAD89BE8915968D919C911697E091B0
:101750002903F0912A03820F931F1995282E332015
:1017600081F02A853B85283031055CF4682F70E0D4
:10177000088402C0759567950A94E2F7262E01C089
:10178000212CAD89BE8914968C91811101C02094C1
:10179000502E8B81812B877089F42E853F852830D0
:1017A000310564F0AD89BE891B968C911B9782FF31
:1017B00003C0CD0187DA282A622D66C08D899E89F3
:1017C00081DA082F412F2C853D852A0D311D642F8C
:1017D0006770822D90E0062E02C0959587950A9439
:1017E000E2F780FF08C0C401052C01C0880F0A94ED
:1017F000EAF7082B08C0C401052C01C0880F0A9421
:10180000EAF780950823673051F5ED89FE898581D7
:101810009681E0912903F0912A03820F931F2C8B6C
:101820003B8B4A8B1995282E2C893B894A8933207A
:1018300079F08C819D81841B910909974CF4622D6C
:1018400070E0088402C0759567950A94E2F7262E29
:10185000AD89BE8914968C91811101C020944F5F8F
:101860005394B8E05B120CC0602FED89FE8983852C
:1018700082FF0AC08D899E8925DA682F602B04C0FB
:10188000441508F4A4CFF0CF8D899E8943DAFFEF89
:10189000AF1ABF0A47CFE0912903F0912A03AD891F
:1018A000BE8915968D919C911697199581110CC042
:1018B000ED89FE8985819681E0912903F0912A03C3
:1018C000019619958130C1F1A12EB12C011106C0EC
:1018D000C3018A199B0908970CF092C08D899E89D3
:1018E000F1D9002309F488C0B401002E01C0660FAD
:1018F0000A94EAF7615093012A193B09283031050F
:101900004CF4A40102C0440F551F2A95E2F79A0136
:101910002195622BAD89BE8914969C9191116EC060
:101920006095682BAD89BE891B968C911B9782FDB3
:101930006FC08D899E89EED9101B185FC0CEED89CE
:10194000FE8984858F0D8487838581FF19C08581F9
:101950009681E0912903F0912A0302961995AD89A9
:10196000BE891C962C912F19280F90E08C199D0987
:1019700097FD019695958795281BED89FE8924870B
:10198000E0912903F0912A03AD89BE8915968D91C6
:101990009C9116971995811144C0ED89FE89858126
:1019A0009681E0912903F0912A03019619958130DF
:1019B000C1F53FC0AD89BE8915968D919C91169752
:1019C000E0912903F0912A0302961995F82E1C9DA7
:1019D00090011D9D300D1124F29EC001F39E900DCB
:1019E00011249C012A5F3F4F3A832983312CB1CDCA
:1019F000442443944E0C4ECE60E07DCF682392CFBA
:101A000061E0ED89FE898481811160E061958ACF72
:101A10006F3F09F48ECFCD016A8B54D96A89682B48
:101A200088CFAD89BE891C968C911C978F5F1C96C0
:101A30008C9381E090E066960FB6F894DEBF0FBEFF
:101A4000CDBFDF91CF911F910F91FF90EF90DF906D
:101A5000CF90BF90AF909F908F907F906F905F904E
:101A60004F903F902F9008956D3009F08FCA81E01C
:101A700090E0089596E0899FD0011124AD54BA4FAB
:101A8000D8967C936E93D79791E0D9969C93D997EB
:101A900090913706E0913806F0913906992339F094
:101AA000309751F0811108C08091E70504C030974C
:101AB00019F0D4968C9119940895CF92DF92EF92F9
:101AC000FF920F931F93CF93DF936C017A018B01E9
:101AD000C0E0D0E0CE15DF0589F0D8016D918D0111
:101AE000D601ED91FC910190F081E02DC601199590
:101AF000892B11F47E0102C02196ECCFC701DF9142
:101B0000CF911F910F91FF90EF90DF90CF900895AC
:101B10000E945D1CCF92DF92EF92FF920F931F9372
:101B2000CF93DF93EC016A017B01E889F98982E0B8
:101B300080834115514E61057105B1F060E079E097
:101B40008DE390E0A70196010E948A1D89019A0108
:101B500001501109210931093695279517950795E7
:101B6000980101151041A8F0E889F989108260E810
:101B700074E88EE190E0A70196010E948A1DDA01C7
:101B8000C9010197A109B109B695A79597958795C0
:101B90009C01EC85FD853083EE85FF852083188EC2
:101BA000EC89FD8986E08083EA89FB8980818061F8
:101BB0008083EA89FB89808188608083EA89FB8948
:101BC000808180688083EA89FB8980818F7D808322
:101BD000DF91CF911F910F91FF90EF90DF90CF9009
:101BE0000895CF9387FD18C06034B0F4C62F682FD6
:101BF0004C2F487F84EA95E02AD884EA95E062D8A1
:101C0000C77061E070E001C0660FCA95EAF7682B03
:101C100084EA95E0CF917EC8CF9108950F931F93EA
:101C2000CF93DF93C82FD62F86E0C89FF0011124F1
:101C3000ED54FA4F11AE87A990AD81309105E9F0CE
:101C40001CF4892B49F041C082309105A1F1039722
:101C5000E1F560E070E033C06623B9F161E070E067
:101C60008C2F08DF0E942E056093230670932406B4
:101C7000809325069093260628C00E942E05009189
:101C80002306109124062091250630912606AB01EB
:101C9000BC01401B510B620B730B80913506909178
:101CA0003606A0E0B0E084179507A607B70718F43A
:101CB00062E070E004C0D11108C063E070E08C2FD6
:101CC000DF91CF911F910F91D5CEDF91CF911F91D1
:101CD0000F910895EF92FF920F931F93CF93DF938D
:101CE000EC017B018A0188819981009729F02A8182
:101CF0003B8124173507F8F4B8016F5F7F4F0E94CE
:101D0000791B009759F0998388831B830A832C8160
:101D10003D81232B81F4FC0110820DC088819981C3
:101D2000009711F00E94E11A198218821D821C820C
:101D30001B821A8207C01D830C83B7018881998199
:101D40000E946A1CCE01DF91CF911F910F91FF90ED
:101D5000EF900895DC01ED91FC910190F081E02D70
:101D600019946115710579F0FB0101900020E9F7E4
:101D70003197AF01461B570BDC01ED91FC910280BE
:101D8000F381E02D199480E090E008958F929F9266
:101D9000AF92BF920F931F93CF93DF93CDB7DEB770
:101DA000A1970FB6F894DEBF0FBECDBF19A2423087
:101DB00008F44AE08E010F5D1F4F842E912CA12C58
:101DC000B12CA50194010E948A1DE62FB901CA0118
:101DD00001501109EA3014F4E05D01C0E95CD8015A
:101DE000EC93232B242B252B61F7B80186E095E09B
:101DF000B8DFA1960FB6F894DEBF0FBECDBFDF915E
:101E0000CF911F910F91BF90AF909F908F900895A9
:101E1000CF93DF93BC0180E090E04AE0B7DFEC01B4
:101E200062E472E086E095E09CDF8C0F9D1FDF91FD
:101E3000CF91089596CF789484B5826084BD84B59F
:101E4000816084BD85B5826085BD85B5816085BDB5
:101E500080916E00816080936E001092810080916D
:101E600081008260809381008091810081608093F5
:101E70008100809180008160809380008091B1001A
:101E800084608093B1008091B00081608093B00045
:101E90008091910082608093910080919100816097
:101EA0008093910080919000816080939000809158
:101EB000A10082608093A1008091A1008160809345
:101EC000A1008091A00081608093A00080912101F9
:101ED00082608093210180912101816080932101A2
:101EE0008091200181608093200180917A0084603C
:101EF00080937A0080917A00826080937A0080914A
:101F00007A00816080937A0080917A008068809363
:101F10007A001092C10040E056E960E070E086E08F
:101F200095E0F8DD6CE372E086E095E01ADF62E4AC
:101F300072E086E095E015DFA2E0A0938E0393E0C7
:101F400090938F0343E050E05093910340939003AC
:101F5000C1E0D0E0D0939303C09392031092950315
:101F60001092940381E08093A0031092A10324E0D7
:101F70002093A4039093A503D093A703C093A60333
:101F800062E070E07093A9036093A8037093AB03C1
:101F90006093AA038093B6031092B7032093BA0309
:101FA0009093BB03E4E0F0E0F093BD03E093BC0347
:101FB000D093BF03C093BE03D093C103C093C003AB
:101FC0008093CC031092CD032093120430E1309320
:101FD000130466E070E0709315046093140450934A
:101FE000170440931604F0931904E09318048093A7
:101FF00024048093250410922704109226049093C1
:10200000FC033093FD037093FF036093FE03509332
:1020100001044093000407E010E0109303040093D0
:10202000020480930E0480930F0410921104109206
:102030001004A093E6033093E7037093E9036093E1
:10204000E8035093EB034093EA03AAE0B0E0B093B7
:10205000ED03A093EC038093F8038093F9031092AF
:10206000FB031092FA0320932804909329047093A1
:102070002B0460932A0450932D0440932C04F09376
:102080002F04E0932E0480933A0480933B04109233
:102090003D0410923C049093D0039093D10345E00B
:1020A00050E05093D3034093D203D093D503C09311
:1020B000D4034DE050E05093D7034093D603809370
:1020C000E2031092E3034FEF50E050934904409332
:1020D000480450934B0440934A0450934D0440935A
:1020E0004C044EEE52E050938203409381034CED3A
:1020F00055E050937703409376038093750388EE01
:1021000093E0A0E0B0E08093830390938403A093D6
:102110008503B093860388EC90E0A0E0B0E0809364
:102120008A0390938B03A0938C03B0938D03209329
:1021300028032093780388E090E090937C038093B9
:102140007B038EE893E090937A038093790380E495
:1021500094E09093800380937F0389E694E09093CA
:1021600089038093880340E056E960E070E0D2DCA8
:1021700061E084E00E94CA0460E084E00E94980468
:1021800061E089E00E94CA040E942E0560935C040D
:1021900070935D0480935E0490935F048CE090E004
:1021A000909349048093480488EE90E090934B0408
:1021B00080934A04D0934D04C0934C0410921204AF
:1021C000D0932704C09326043B9A3A9A3C9A4498A9
:1021D000389A4098399A4198429843988FEF809363
:1021E0002B0380932C031092A3050E9409054B0139
:1021F0005C01A2E3CA2ED12CE12CF12C0E9409052E
:10220000DC01CB0188199909AA09BB09883E9340D2
:10221000A105B10558F021E0C21AD108E108F10882
:1022200038EE830E33E0931EA11CB11CC114D104FF
:10223000E104F10419F70DE213E0C0E0DFEF409A8A
:10224000419811B8D2B9429A4398449AC89500C0AF
:1022500080B1449884FD26C087FD24C0D801DD9359
:102260008D014C2F6FE384EA95E00E9416064C2FF7
:1022700060EC84EA95E00E941606C13021F0C1E0CE
:102280000E94F305DECFE12C0FE32FE740E060E092
:1022900084EA95E00E94300740E060E084EA95E03F
:1022A0000E9427068CE491E09093AA058093A905EB
:1022B0008AEC93E090932A03809329038FEF809315
:1022C000A80565E472E084EA95E0B4DDEE24EA94C2
:1022D0000FE020E44FE064E184EA95E00E943007DB
:1022E0000FEF1FEFD0E0C2E0E6E1FE2EF5E0EF2EAB
:1022F000AF2CAC1A6A2DCE2CCD1A8C2D72DCBF2CD3
:10230000BD1A6B2DDE2CDC1A8D2D6BDC6A2D4EE197
:10231000A42EAD0E8A2D65DC6B2D5EE1B52EBC0EB4
:102320008B2D5FDC6BE1962E9C0E692D8A2D59DC7E
:102330007BE1A72EAD0E6A2D8B2D53DC692D8C2DE4
:1023400050DC6A2D8D2D4DDC8D2F90E017FF08C0DD
:10235000880F991F880F991F0696080F191F0AC02A
:102360008C1B9109880F991F880F991F0A96080FD7
:10237000191FC150DF5FCD1708F0BACFEE24EA94E1
:1023800004E12EE144E165E084EA95E00E94300733
:102390000DE12EE14DE165E084EA95E00E94300711
:1023A0000BE123E046E163E084EA95E00E94300718
:1023B00020E246E160E284EA95E00E9430070FEFF8
:1023C0001FEF80917503823009F433C1833009F423
:1023D000B1C2813009F0CEC260917B0370917C0361
:1023E00080917D0390917E03A0917903B0917A034F
:1023F00040E050E036E18617970711F480E090E066
:10240000389FF001399FF00D1124EA0FFB1F23893B
:10241000222321F0C489D589CD2B19F022892111DD
:102420000FC04F5F5F4F4617570749F490937E03E5
:1024300080937D03F0933003E0932F039BC220E051
:1024400001962223C1F290937E0380937D03F09343
:102450003003E0932F0380859185019691878087D3
:1024600080818093310381818093320383818093C3
:10247000330382818093340381818550823070F4EC
:10248000A681B781AA0FBB1F80917F039091800323
:10249000A80FB91F8D919C9195838483858180932A
:1024A00035038481809336038181803141F5C48175
:1024B000CC0FC0933703548120917F033091800368
:1024C00080E090E047E0851708F055C0A681B7810D
:1024D000A80FB91FAA0FBB1FA20FB31F6C911196B3
:1024E0007C91A42FB0E0AF5CBC4F7C93A1E0A40F23
:1024F000B0E0AF5CBC4F6C934E5F0196E4CF8F3081
:10250000E1F5848195819C01A4E036952795AA95F3
:10251000E1F7622FC22FCC0F8F709927892B19F00A
:1025200061E0620FCF5FC093370320917F0330914A
:10253000800380E090E047E050E08617E0F4A68159
:10254000B781A80FB91FAA0FBB1FA20FB31F7C91A1
:102550001196DC91A42FB0E0AF5CBC4F7C9371E08E
:10256000750F7C1728F41196DC9372E0750F4E5F9F
:102570000196572FE2CFC75F01C0C8E08EEF8C0FE6
:102580000E9484052C2F30E02F5C3C4FF9013297DC
:1025900090833196808361E0809178030E94980453
:1025A00061E3E62E63E0F62E670180918803909147
:1025B00089032C2D2E192C1758F4F60161916F0107
:1025C000DC01ED91FC910190F081E02D1995EDCFAA
:1025D000EC01E881F9810284F385E02D1995809161
:1025E0007603909177038230910538F0880F991F18
:1025F000880F991F05970197F1F760E080917803A4
:102600000E9498040E942E056093710370937203D8
:10261000809373039093740382E080937503E09139
:102620002F03F091300380818111A4C10E94A10584
:10263000A1C18091880390918903DC01ED91FC9107
:102640000480F581E02D1995892B09F44EC1109273
:102650008703D0E08091880390918903DC01ED919C
:10266000FC910480F581E02D1995892BA9F18091C9
:10267000880390918903DD2349F0EC01E881F98119
:102680000680F781E02D1995D1E017C0C09187032E
:10269000D1E0C03409F0D0E0DC01ED91FC9106807E
:1026A000F781E02D1995EC2FF0E0EF5CFC4F808373
:1026B000809187038F5F809387038091810390913E
:1026C00082038230910530F2880F991F880F991F7D
:1026D00005970197F1F7BECF80918703853010F001
:1026E000DD2369F063E572E086E095E0A3DB6091AD
:1026F000870370E080E090E04AE048DB3BC1E09077
:102700002F03F090300320913103E70198812917BE
:1027100019F069E572E0A6C0282F30E02F5C3C4F2D
:10272000F9013297C081D0E0DC2FCC27319690811F
:10273000C92B82500E9484056C018C179D0709F0FB
:10274000BDC0E0913203E7FF09C0F7018685978598
:102750000196978786876FE572E084C08E2F90E0A0
:10276000FC013197E031F10508F0A5C08827EE584B
:10277000FF4F8F4FF0C5D70114968D919C911597FF
:10278000AC0124E0569547952A95E1F7A42F242F14
:10279000220F8F709927892B19F0A1E0A40F2F5FCA
:1027A000D0903303D21229C060917F0370918003CF
:1027B00040E050E083E090E04A1708F037CFE82F80
:1027C000F0E0EF5CFC4F208130E0B1E0B90FBD15C7
:1027D00028F4E1813E2BB2E0B90F8E5FE701EE8174
:1027E000FF81E40FF51FEE0FFF1FE60FF71F318388
:1027F00020834F5F5F4F9B2FDFCF65E672E032C0D3
:102800002091330330E0F70184819581880F991F6F
:102810002817390729F580917F039091800340E0C4
:10282000E42FEE0FED5FA42FB0E0E7012C813D8196
:10283000A217B30708F0FACEF0E0E7012E813F813E
:10284000A20FB31FAA0FBB1FA80FB91FEF5CFC4F4D
:102850002181508130E0352B2D933C934F5FE0CFA9
:102860006BE672E086E095E0E5DA3CC080913503E6
:1028700090E0982F882720913603FC01E22B9F01DE
:102880008091330390E0982F882740913403842B64
:10289000D70112964D915C9113978417950741F4D7
:1028A00014968D919C9115972817390709F4BECE7F
:1028B00061E772E0D7CF67E772E0D4CF6DE772E0EF
:1028C00086E095E0B7DABE0180E090E04AE05EDAAB
:1028D00068E872E086E095E0ADDAB60180E090E06D
:1028E0004AE054DA0E94C30545C00E942E05C090FC
:1028F0007103D0907203E0907303F0907403DC01D5
:10290000CB018C199D09AE09BF09C0908303D090FB
:102910008403E0908503F0908603C816D906EA0682
:10292000FB0640F565E972E086E095E083DA0E94F7
:10293000C3051DC00E942E05C0907103D090720384
:10294000E0907303F0907403DC01CB018C199D09B6
:10295000AE09BF09C0908A03D0908B03E0908C032E
:10296000F0908D03C816D906EA06FB0618F481E03C
:102970008093750361E089E00E94CA04E0E4F3E01B
:10298000E4918E2F90E0FC013197E231F10508F0DF
:10299000B8C08827EE57FF4F8F4FDDC484B58068DD
:1029A00084BD8BE787BDB1C084B5806284BD8BE7F1
:1029B00088BDABC0809180008068809380008BE7E9
:1029C00090E090938900809388009FC08091800060
:1029D0008062809380008BE790E090938B008093DF
:1029E0008A0093C0809180008860809380008BE78C
:1029F00090E090938D0080938C0087C08091B00010
:102A000080688093B0008BE78093B3007EC0809194
:102A1000B00080628093B0008BE78093B40075C0F3
:102A2000809190008068809390008BE790E0909375
:102A300099008093980069C0809190008062809393
:102A400090008BE790E090939B0080939A005DC08C
:102A5000809190008860809390008BE790E0909345
:102A60009D0080939C0051C08091A000806880935D
:102A7000A0008091A0008F7B8093A0008BE790E066
:102A80009093A9008093A80040C08091A00080622C
:102A90008093A0008BE790E09093AB008093AA0016
:102AA00034C08091A00088608093A0008BE790E004
:102AB0009093AD008093AC0028C080912001806885
:102AC000809320018BE790E0909329018093280167
:102AD0001CC0809120018062809320018BE790E0F0
:102AE00090932B0180932A0110C08091200188606F
:102AF000809320018BE790E090932D0180932C012F
:102B000004C060E089E00E9498040E942E05C090F5
:102B10005C04D0905D04E0905E04F0905F04DC0102
:102B2000CB018C199D09AE09BF09893E9340A105CF
:102B3000B10508F4D4C00E942E0560935C04709324
:102B40005D0480935E0490935F046BE972E086E01D
:102B500095E070D9809140049091410459D96AEA76
:102B600072E086E095E066D9C0904404D0904504B8
:102B7000E12CF12CD60199278827C0904604D090EB
:102B80004704E12CF12CC82AD92AEA2AFB2A46015B
:102B90005701A7019601C701B6017AD4882319F01D
:102BA00064EC72E018C026013701E89477F82FEF43
:102BB0003FEF4FE75FE7C301B2016AD481110FC055
:102BC0002FEF3FEF4FE75FE7C301B2018AD6181638
:102BD00034F468EC72E086E095E0C3D867C02FEF6C
:102BE0003FEF4FE75FE4C701B6014ED418161CF45F
:102BF0006CEC72E0F0CF2FEF3FEF4FE75FECC701D7
:102C0000B6016FD687FDF4CF20E030E0A901C701FF
:102C1000B60167D687FF0AC06DE286E095E09AD8D4
:102C200046015701B7FAB094B7F8B0942AE037EDEF
:102C300043EA5BE3C501B40197D34B015C01F8D3D0
:102C40006B017C0152D69B01AC01C501B4018BD351
:102C50004B015C014AE0C701B60198D865E173E019
:102C600086E095E07ED820E030E040E251E4C50106
:102C7000B4019CD64B015C01DBD36B01E12CF12C40
:102C80004AE0C701B60182D8C701B6012ED69B0122
:102C9000AC01C501B40167D320E030E040E251E46B
:102CA00085D6C6D380E090E04AE070D862E472E056
:102CB00086E095E056D860ED72E086E095E0BAD8FF
:102CC0008091420490914304A3D86FED72E086E0B6
:102CD00095E0B0D880915A0490915B0499D8809186
:102CE0005A0490915B0420913F0430E02817390783
:102CF00079F180933F048130A9F48CE090E09093C7
:102D000049048093480488EE90E090934B048093AC
:102D10004A0481E090E090934D0480934C0410921B
:102D2000120412C010924904109248048FEF90E0F0
:102D300090934B0480934A0490934D0480934C04E9
:102D40001092120481E090E090932704809326046F
:102D5000209142043091430480913E0490E0821718
:102D6000930711F020933E040E942E05C090270681
:102D7000D0902806E0902906F0902A06AB01BC010D
:102D80004C195D096E097F098091330690913406D4
:102D9000A0E0B0E084179507A607B70708F0B6C112
:102DA000C0E080913106C817A0F4E091CB05F09106
:102DB000CC05A0912D06B0912E06AC0FB11D01904F
:102DC000F081E02D42E06C918BEC95E01995CF5F9E
:102DD000E8CFD12C80913206D81608F085C0ED2CB2
:102DE000F12CE091CB05F091CC05A0912F06B0918C
:102DF0003006AE0DBF1D0190F081E02D41E06C91D9
:102E00008BEC95E01995E091CB05F091CC05A09164
:102E10002F06B0913006AE0DBF1D0280F381E02D6C
:102E200040E06C918BEC95E0199581E090E0A0E09A
:102E3000B0E00D2C04C0880F991FAA1FBB1F0A9475
:102E4000D2F74C015C01A094B094C12C8091310662
:102E5000E091CB05F091CC05C81618F5CC2DD0E04B
:102E6000A0912D06B0912E06AC0FBD1F0480F581F8
:102E7000E02D6C918BEC95E019952496CC0FDD1F1D
:102E8000CD54DA4F892B29F4888D998D8829992979
:102E900004C0888D998D8A219B21998F888FC39436
:102EA000D5CFA0912F06B0913006AE0DBF1D028088
:102EB000F381E02D41E06C918BEC95E01995E09168
:102EC000CB05F091CC0580912F0690913006DC0166
:102ED000AE0DBF1D0190F081E02D40E06C918BECB8
:102EE00095E01995D39476CFC7EED5E0FE018381A6
:102EF0009481892B21F410821283018315823696E6
:102F000026E0E332F20799F7D12C36E0B32E809118
:102F10003106D81608F059C0C12CED2CF12CC70190
:102F2000880F991FFC01E554FA4F7F01209132066A
:102F3000C21608F048C0D70158966D917C915997F8
:102F40000C2C02C0769567950A94E2F7617077279A
:102F5000D29E900111242C0D311DE0912B06F09191
:102F60002C06E20FF31FA081E8EEF5E080E040813F
:102F700051814217530711F461701BC08F5F369661
:102F80008A30A9F7672BE9F0E7EEF5E080E090E002
:102F90004081411111C0B89EA001B99E500D11246D
:102FA000FA01ED54FA4FA4AB36AB25AB10AE17AA1D
:102FB00061E00E940E0E05C0019636968A3091059A
:102FC00039F7C394B3CFD394A2CF80E090E0F12C33
:102FD000FC01ED54FA4F21AD222311F0FF24F394AC
:102FE00006968C339105A1F70E942E056093270663
:102FF000709328068093290690932A06FF2009F4EF
:1030000085C08D81882309F47BC08B819C818130B0
:103010009105A9F044F4892B09F055C046E050E031
:1030200067E173E04CC08230910509F444C0039716
:1030300009F049C04AE050E06CE073E040C049E06C
:1030400050E06BEF72E08AE396E00E946A0E6881BE
:103050006A3261F5F12C4F2D60E084EA95E00E9420
:1030600027068091AB058093B0058091AC058F0D4C
:103070008093B1051092B205E12C60E084EA95E0FE
:103080000E948A06E394F0E8EF12F7CF28E0F20EF0
:1030900030E4F312E0CF8091AB058093B0058091CE
:1030A000AC058093B1051092B2050DC084EA95E09D
:1030B0000E94AA0E08C046E050E065E073E08AE393
:1030C00096E00E946A0E6EE173E086E095E00E9451
:1030D0001A0F688186E095E00E94AA0E40913E0694
:1030E00050913F0660913A0670913B0686E095E06C
:1030F0000E945D0D62E472E086E095E00E94B10EF0
:10310000269646E0C332D40709F07BCF0E944103E4
:1031100058C980913A0690913B0653C210926C04B4
:1031200010926B0448EE53E060E070E040936D0451
:1031300050936E0460936F04709370048EE192E07C
:1031400090936A048093690425E331E03093760418
:103150002093750424E331E03093780420937704BE
:1031600020E331E030937A042093790421E331E0C5
:1031700030937C0420937B0422E331E030937E047F
:1031800020937D0426E331E03093800420937F0474
:103190001092820410928304109284041092850489
:1031A000109209051092080540930A0550930B05EB
:1031B00060930C0570930D059093070580930605A9
:1031C00085EC90E0909313058093120584EC90E0D9
:1031D000909315058093140580EC90E0909317056B
:1031E0008093160581EC90E0909319058093180563
:1031F00082EC90E090931B0580931A0586EC90E09A
:1032000090931D0580931C0510921F0510922005B8
:1032100010922105109222051092A7051092A60582
:103220001092AB051092AC058FE78093AD058FE34C
:103230008093AE051092AF051092B0051092B105C3
:103240001092B2058EE292E09093A5058093A405BA
:103250001092A30580E1EAE0F2E0A3EBB5E0019073
:103260000D928A95E1F780E38093C30581E3809313
:10327000C4058EE28093C5058FE28093C60584E382
:103280008093C70585E38093C80582E38093C905D1
:1032900083E38093CA051092CD051092D105109258
:1032A000D0051092D20586E392E09093CC058093EE
:1032B000CB0580E090E0FC01ED54FA4F14AA10AE6B
:1032C00017AA11AE06968C339105A9F783EC95E009
:1032D00090932E0680932D0687EC95E09093300610
:1032E00080932F0684E0809331068093320683EB2F
:1032F00095E090932C0680932B068AE090E09093C3
:1033000034068093330684EF91E0909336068093E1
:103310003506109239061092380610922706109240
:1033200028061092290610922A061092370610924B
:103330003B0610923A0610923D0610923C061092FF
:103340003F0610923E0640E050E064E472E08AE3FB
:1033500096E00C946A0EEE0FFF1F881F8BBF07903C
:10336000F691E02D19945058BB27AA270ED098C388
:1033700089D330F08ED320F031F49F3F11F41EF446
:103380007EC30EF4E095E7FB74C3E92F9AD380F374
:10339000BA17620773078407950718F071F49EF552
:1033A000B2C30EF4E0950B2EBA2FA02D0B01B9017C
:1033B00090010C01CA01A0011124FF27591B99F0AB
:1033C000593F50F4503E68F11A16F040A22F232FB7
:1033D000342F4427585FF3CF469537952795A79507
:1033E000F0405395C9F77EF41F16BA0B620B730BAE
:1033F000840BBAF09150A1F0FF0FBB1F661F771F1F
:10340000881FC2F70EC0BA0F621F731F841F48F4D3
:10341000879577956795B795F7959E3F08F0B3CF59
:103420009395880F08F09927EE0F97958795089543
:1034300050D388F09F5790F0B92F9927B751A0F03B
:10344000D1F0660F771F881F991F1AF0BA95C9F738
:1034500012C0B13081F057D3B1E0089554C3672F43
:10346000782F8827B85F39F0B93FCCF386957795E8
:103470006795B395D9F73EF49095809570956195D1
:103480007F4F8F4F9F4F08956DD208F48FEF0895AF
:1034900069D2880B990B0895CF93DF938230910501
:1034A00010F482E090E0E0914206F091430620E0C3
:1034B00030E0C0E0D0E0309711F1408151814817F1
:1034C0005907C0F04817590761F48281938120970A
:1034D00019F09B838A832BC0909343068093420606
:1034E00026C02115310519F04217530718F49A0127
:1034F000BE01DF01EF010280F381E02DDCCF211559
:10350000310509F1281B390B2430310590F412964E
:103510008D919C9113976115710521F0FB019383A7
:10352000828304C09093430680934206FD01329645
:1035300044C0FD01E20FF31F8193919322503109A2
:103540002D933C933AC02091400630914106232BA5
:1035500041F42091020230910302309341062093FE
:10356000400620910002309101022115310541F4FD
:103570002DB73EB74091040250910502241B350B34
:10358000E0914006F0914106E217F307A0F42E1BEC
:103590003F0B2817390778F0AC014E5F5F4F2417B7
:1035A000350748F04E0F5F1F509341064093400689
:1035B0008193919302C0E0E0F0E0CF01DF91CF91E1
:1035C00008950F931F93CF93DF93009709F48CC056
:1035D000FC01329713821282009142061091430639
:1035E0000115110581F420813181820F931F2091F3
:1035F0004006309141062817390779F5F0934106C6
:10360000E093400671C0D80140E050E0AE17BF071C
:1036100050F412962D913C911397AD01211531056F
:1036200009F1D901F3CF9D01DA013383228360814F
:103630007181860F971F8217930769F4EC01288127
:103640003981260F371F2E5F3F4F318320838A81B8
:103650009B8193838283452B29F4F0934306E09367
:10366000420642C01396FC93EE931297ED014991E6
:1036700059919E01240F351FE217F30771F48081E1
:103680009181840F951F029611969C938E9382814F
:10369000938113969C938E931297E0E0F0E0D8010B
:1036A00012968D919C911397009719F0F8018C0157
:1036B000F6CF8D919C9198012E5F3F4F820F931F03
:1036C00020914006309141062817390769F4309758
:1036D00029F4109243061092420602C0138212820D
:1036E0001093410600934006DF91CF911F910F91F7
:1036F00008956F927F928F929F92AF92BF92CF92D6
:10370000DF92EF92FF920F931F93CF93DF93EC0121
:10371000009781F4CB01DF91CF911F910F91FF9022
:10372000EF90DF90CF90BF90AF909F908F907F9061
:103730006F90B2CEFC01E60FF71F9C0122503109B9
:10374000E217F30708F4A8C0D9010D911C91119755
:1037500006171707A8F00530110508F49BC0C8012B
:1037600004978617970708F495C002501109061BA5
:10377000170B019311936D937C93CF0122DF8AC0C5
:103780005B01A01AB10A4C01800E911EA091420665
:10379000B091430640E050E0E12CF12C109709F481
:1037A0004AC0A815B905D1F56D907C9011976301B9
:1037B00082E0C80ED11CCA14DB0480F1A3014A19AF
:1037C0005B096A0182E0C80ED11C1296BC90129768
:1037D0001396AC91B5E0CB16D10440F0B282A3832E
:1037E00051834083D9016D937C930AC00E5F1F4FB4
:1037F000C301800F911FF90191838083EB2DFA2F74
:10380000E114F10431F0D7011396FC93EE93129773
:1038100041C0F0934306E09342063CC08D919C91D9
:1038200011974817590708F4AC017D0112960D90C5
:10383000BC91A02DB3CF8091400690914106881590
:103840009905E1F446175707C8F48091000290915A
:103850000102009741F48DB79EB740910402509148
:103860000502841B950BE817F907B0F4F0934106A5
:10387000E0934006F901718360830CC0CB010CDE3C
:103880007C01009749F0A801BE011BD0CE0199DE52
:10389000C70104C0CE0102C080E090E0DF91CF916B
:1038A0001F910F91FF90EF90DF90CF90BF90AF905E
:1038B0009F908F907F906F90089581E090E0F894B2
:1038C0004BC1FB01DC0102C001900D924150504000
:1038D000D8F70895FB01DC0101900D920020E1F77B
:1038E000089540D008F481E00895E89409C097FB5A
:1038F0003EF490958095709561957F4F8F4F9F4FC7
:103900009923A9F0F92F96E9BB279395F69587950A
:1039100077956795B795F111F8CFFAF4BB0F11F4CD
:1039200060FF1BC06F5F7F4F8F4F9F4F16C0882374
:1039300011F096E911C0772321F09EE8872F762FAA
:1039400005C0662371F096E8862F70E060E02AF0EB
:103950009A95660F771F881FDAF7880F96958795D7
:1039600097F90895990F0008550FAA0BE0E8FEEFAC
:1039700016161706E807F907C0F012161306E40733
:10398000F50798F0621B730B840B950B39F40A262C
:1039900061F0232B242B252B21F408950A2609F40A
:1039A000A140A6958FEF811D811D08950BD078C091
:1039B00069D028F06ED018F0952309F05AC05FC086
:1039C0001124A2C07ED0A0F3959FD1F3950F50E0B3
:1039D000551F629FF001729FBB27F00DB11D639FC1
:1039E000AA27F00DB11DAA1F649F6627B00DA11D67
:1039F000661F829F2227B00DA11D621F739FB00D0D
:103A0000A11D621F839FA00D611D221F749F33277C
:103A1000A00D611D231F849F600D211D822F762F15
:103A20006A2F11249F5750408AF0E1F088234AF012
:103A3000EE0FFF1FBB1F661F771F881F915050405E
:103A4000A9F79E3F510570F014C05EC05F3FECF3D4
:103A5000983EDCF3869577956795B795F795E7954A
:103A60009F5FC1F7FE2B880F911D9695879597F95B
:103A7000089597F99F6780E870E060E008959FEFF0
:103A800080EC089500240A941616170618060906F5
:103A9000089500240A9412161306140605060895C4
:103AA000092E0394000C11F4882352F0BB0F40F44C
:103AB000BF2B11F460FF04C06F5F7F4F8F4F9F4F8C
:103AC000089557FD9058440F551F59F05F3F71F00E
:103AD0004795880F97FB991F61F09F3F79F0879575
:103AE0000895121613061406551FF2CF4695F1DFFE
:103AF00008C0161617061806991FF1CF869571058E
:103B0000610508940895E894BB2766277727CB01C1
:103B100097F90895A1E21A2EAA1BBB1BFD010DC047
:103B2000AA1FBB1FEE1FFF1FA217B307E407F5076D
:103B300020F0A21BB30BE40BF50B661F771F881F49
:103B4000991F1A9469F760957095809590959B01DF
:103B5000AC01BD01CF01089512E0CDE2D2E000E05A
:103B600005C0802FFE01F7DB2196011DCE32D10763
:0A3B700080E00807B1F7F894FFCFDA
:103B7A000000440680000100000031323341343530
:103B8A003642373839432A30234400000000DA022B
:103B9A005D0D9B0279028D02200300000000340DA6
:103BAA005D0D000000000605C704CD0368656C6C56
:103BBA006F000D0A0068656C6C6F2C20776F726C51
:103BCA006421002058583120002058583220002003
:103BDA005858392000205858352000205858362087
:103BEA0000205858372000205858382000205858AC
:103BFA003420526376643A002043616C63756C61C9
:103C0A007465643A002058583320005245472048CA
:103C1A00525F504F545F313A200052454720485274
:103C2A005F54454D505F315F4F4E5F534C4156458F
:103C3A00343A20006E616E00696E66006F76660027
:103C4A005245472048525F5049525F313A2000524C
:103C5A004547205041434B45545F4745545F5357AE
:103C6A00495443485F4F4E333A200020505245533F
:103C7A005345442E0020484F4C442E002052454CB8
:103C8A0045415345442E002049444C452E004B657E
:083C9A0079200045525252004E
:00000001FF
