:100000000C94EB000C9413010C9413010C94130149
:100010000C9413010C9413010C9413010C94130110
:100020000C9413010C9413010C9413010C94130100
:100030000C9413010C9413010C9413010C941301F0
:100040000C94E4030C9413010C9445010C941F01CF
:100050000C9413010C9413010C9413010C941301D0
:100060000C9413010C941301C206C906D006E006D5
:10007000230707071307EF06F606005EBCE2613FA1
:10008000DD83C29C7E20A3FD1F419DC3217FFCA276
:10009000401E5F01E3BD3E6082DC237D9FC1421CA8
:1000A000FEA0E1BF5D0380DE3C62BEE0025CDF815A
:1000B000633D7C22C09E1D43A1FF4618FAA4277908
:1000C0009BC584DA3866E5BB5907DB856739BAE436
:1000D00006581947A5FB7826C49A653BD987045A68
:1000E000B8E6A7F91B45C6987A24F8A6441A99C71A
:1000F000257B3A6486D85B05E7B98CD2306EEDB3C8
:10010000510F4E10F2AC2F7193CD114FADF3702EF5
:10011000CC92D38D6F31B2EC0E50AFF1134DCE9027
:10012000722C6D33D18F0C52B0EE326C8ED0530DD9
:10013000EFB1F0AE4C1291CF2D73CA947628ABF587
:1001400017490856B4EA6937D58B5709EBB53668B5
:100150008AD495CB2977F4AA4816E9B7550B88D6E7
:10016000346A2B7597C94A14F6A8742AC896154B99
:10017000A9F7B6E80A54D7896B35000000002400BF
:1001800027002A0000000000250028002B000000A6
:100190000008000201000003040700000000000046
:1001A00000000000000023002600290004040404CD
:1001B0000404040402020202020203030303030311
:1001C00001020408102040800102040810200102EE
:1001D000040810207E1011241FBECFEFD8E0DEBF30
:1001E000CDBF11E0A0E0B1E0EAE3F8E202C0059083
:1001F0000D92AC32B107D9F722E0ACE2B1E001C018
:100200001D92A63EB207E1F710E0CBEED0E004C0AD
:100210002197FE010E942C11CA3ED107C9F70E9406
:10022000090A0C941B140C9400008CED91E00E94C0
:10023000990121E0892B09F420E0822F08951F9273
:100240000F920FB60F9211242F933F934F935F930A
:100250006F937F938F939F93AF93BF93EF93FF938E
:100260008CED91E00E94FE01FF91EF91BF91AF9163
:100270009F918F917F916F915F914F913F912F91BE
:100280000F900FBE0F901F9018951F920F920FB6F0
:100290000F9211242F938F939F93EF93FF93E091ED
:1002A000EC01F091ED018081E091F201F091F30118
:1002B00082FD12C090818091F5018F5F8F73209134
:1002C000F601821751F0E091F501F0E0E452FE4FA3
:1002D000958F8093F50101C08081FF91EF919F91EF
:1002E0008F912F910F900FBE0F901F901895FC01CA
:1002F000918D828D981761F0828DDF01A80FB11D5D
:100300005D968C91928D9F5F9F73928F90E0089580
:100310008FEF9FEF0895FC01918D828D981731F03A
:10032000828DE80FF11D858D90E008958FEF9FEF8E
:100330000895FC01918D228D892F90E0805C9F4F64
:10034000821B91098F739927089580E090E0892B93
:1003500029F00E94150181110C940000089583304A
:1003600081F028F4813099F08230A1F0089587302F
:10037000A9F08830B9F08430D1F4809180008F7D6D
:1003800003C0809180008F7780938000089584B5AA
:100390008F7702C084B58F7D84BD08958091B000B1
:1003A0008F7703C08091B0008F7D8093B000089557
:1003B0003FB7F8948091D8019091D901A091DA01CA
:1003C000B091DB0126B5A89B05C02F3F19F001961F
:1003D000A11DB11D3FBFBA2FA92F982F8827820FCB
:1003E000911DA11DB11DBC01CD0142E0660F771F1B
:1003F000881F991F4A95D1F708950895FC01848DAF
:10040000DF01A80FB11DA35ABF4F2C91848D90E03E
:1004100001968F739927848FA689B7892C93A08919
:10042000B1898C9180648C93938D848D981306C0D0
:100430000288F389E02D80818F7D80830895EF927B
:10044000FF920F931F93CF93DF93EC0181E0888F8E
:100450009B8D8C8D981305C0E889F989808185FD75
:1004600024C0F62E0B8D10E00F5F1F4F0F73112766
:10047000E02E8C8DE8120CC00FB607FCFACFE8898D
:10048000F989808185FFF5CFCE010E94FE01F1CF71
:100490008B8DFE01E80FF11DE35AFF4FF0820B8FA9
:1004A000EA89FB898081806207C0EE89FF896083C9
:1004B000E889F98980818064808381E090E0DF9120
:1004C000CF911F910F91FF90EF900895CF93DF93FD
:1004D000EC01888D8823C9F0EA89FB89808185FD3C
:1004E00005C0A889B9898C9186FD0FC00FB607FC9D
:1004F000F5CF808185FFF2CFA889B9898C9185FFDE
:10050000EDCFCE010E94FE01E7CFDF91CF9108959C
:10051000CF93DF93282F30E0F901E257FE4F84910B
:10052000F901E054FE4FD491F901E455FE4FC49116
:10053000CC2391F081110E94AF01EC2FF0E0EE0F7F
:10054000FF1FEE55FE4FA591B491EC91ED2381E094
:1005500090E021F480E002C080E090E0DF91CF9154
:1005600008951F93CF93DF93282F30E0F901E257CE
:10057000FE4F8491F901E054FE4FD491F901E45506
:10058000FE4FC491CC23C9F0162F81110E94AF01F8
:10059000EC2FF0E0EE0FFF1FEC57FE4FA591B4914A
:1005A0008FB7F894111105C09C91ED2FE095E923C8
:1005B00002C0EC91ED2BEC938FBFDF91CF911F9197
:1005C0000895CF93DF9390E0FC01E054FE4F249117
:1005D000FC01E455FE4F8491882361F190E0880F7F
:1005E000991FFC01E658FE4FC591D491FC01EC57D0
:1005F000FE4FA591B491611109C09FB7F89488810D
:10060000209582238883EC912E230BC0623061F405
:100610009FB7F8943881822F809583238883EC914B
:100620002E2B2C939FBF06C08FB7F894E8812E2BFA
:1006300028838FBFDF91CF9108951F93CF93DF93CE
:10064000182FEB0161E00E94E102209711F460E0B5
:1006500004C0CF3FD10539F461E0812FDF91CF9104
:100660001F910C94B102E12FF0E0E257FE4FE491AC
:10067000E330F9F048F4E130B9F0E230A1F584B5A7
:10068000806284BDC8BD34C0E730E9F0E83019F1BC
:10069000E43049F580918000806280938000D0939F
:1006A0008B00C0938A0024C084B5806884BDC7BD18
:1006B0001FC080918000806880938000D093890063
:1006C000C093880015C08091B00080688093B0000E
:1006D000C093B3000DC08091B00080628093B000E1
:1006E000C093B40005C0C038D1050CF0B5CFAFCF72
:1006F000DF91CF911F9108958E3008F08E50877052
:10070000806480937C0080917A00806480937A007A
:1007100080917A0086FDFCCF80917800209179004D
:1007200090E0922B08958230910538F0880F991F40
:10073000880F991F05970197F1F708958F929F925F
:10074000AF92BF92CF92DF92EF92FF926B017C014A
:100750000E94D8014B015C01C114D104E104F104F1
:10076000F1F00E94D801DC01CB0188199909AA098E
:10077000BB09883E9340A105B10570F321E0C21A80
:10078000D108E108F10888EE880E83E0981EA11CCC
:10079000B11CC114D104E104F10419F7DDCFFF90BD
:1007A000EF90DF90CF90BF90AF909F908F90089583
:1007B0002FB7F8946091D4017091D5018091D60142
:1007C0009091D7012FBF08951F920F920FB60F92ED
:1007D00011242F933F938F939F93AF93BF93809157
:1007E000D4019091D501A091D601B091D70130915B
:1007F000D30123E0230F2D3720F40196A11DB11D55
:1008000005C026E8230F0296A11DB11D2093D30138
:100810008093D4019093D501A093D601B093D701D2
:100820008091D8019091D901A091DA01B091DB01BA
:100830000196A11DB11D8093D8019093D901A09379
:10084000DA01B093DB01BF91AF919F918F913F91FE
:100850002F910F900FBE0F901F901895EF92FF925F
:100860001F93CF93DF93182F61E080912C010E949A
:10087000B10284E3E82E81E0F82EE701A091740133
:10088000B09175019C2F9E19911750F46991ED91CB
:10089000FC9111970190F081E02DCD010995EECFEB
:1008A000ED91FC9111970284F385E02DCD0109951E
:1008B00080912D0190912E010E94930360E0809120
:1008C0002C01DF91CF911F91FF90EF900C94B1021A
:1008D00044E351E0FA012FEF3FEF9E2F941B98174E
:1008E00088F49191292798E0B901617077273695AE
:1008F0002795672B21F061E0262760EA3627915083
:1009000099F7EBCF922F832F0895209132013091E8
:1009100033012F5F3F4F3093330120933201909189
:100920003101911115C09091300190933401909153
:100930002F019068909335018093360183E00E94E7
:100940006804909337018093380185E00C942E045D
:100950000895DC01E0E0615038F08D91E827F0E087
:10096000E658FF4FE491F7CF8E2F0895FC01908158
:100970000180F281E02DF8948181892B818322818D
:10098000892F809528232283A7E0B0E01197F1F703
:10099000218182238183A3E2B0E01197F1F7808166
:1009A0007894EFECF0E03197F1F7982381E009F4C7
:1009B00080E00895FC0190810180F281E02D892F73
:1009C000809560FF12C0F894228182238283818106
:1009D000892B8183A3E2B0E01197F1F78281982BF4
:1009E0009283789487ED90E011C0F894228182235D
:1009F00082838181892B8183AFEFB0E01197F1F77A
:100A00008281982B928378948FE090E00197F1F7A0
:100A10000895CF92DF92EF92FF920F931F93CF939F
:100A2000DF931F92CDB7DEB76C01E62E08E010E031
:100A3000FF24F39461E08F2D8E2109F460E0C6015C
:100A400049830E94DA04FF0C015011094981011504
:100A5000110581F7411115C0F894D6011196ED9159
:100A6000FC91129791818C918095892381831196B5
:100A7000ED91FC91129792818C91809589238283CC
:100A800078940F90DF91CF911F910F91FF90EF908D
:100A9000DF90CF900895CF92DF92EF92FF920F9365
:100AA0001F93CF93DF931F92CDB7DEB78C01F62E45
:100AB00040E065E579830E940905CF2C7981D72E26
:100AC000760188E0E80EF11CF60161916F0140E0CB
:100AD000C8010E940905CE14DF04B1F70F90DF9121
:100AE000CF911F910F91FF90EF90DF90CF900895DD
:100AF000FC0190810180F281E02DF8948181292F01
:100B000020958223818378948DE743E050E08150E3
:100B100021F1DA011197F1F730813923C1F3F8940B
:100B20008281822382838181892B81837894ABE7C0
:100B3000B7E01197F1F7F894818128232183A3E18D
:100B4000B1E01197F1F78081982381E009F080E00E
:100B50007894E3E6F6E03197F1F708959091D201A9
:100B6000981731F08093D201682F86E00C94B1027F
:100B70000895CF92DF92EF92FF920F931F93CF933E
:100B8000DF936C017A018B01C0E0D0E0CE15DF0568
:100B900089F0D8016D918D01D601ED91FC91019004
:100BA000F081E02DC6010995892B11F47E0102C068
:100BB0002196ECCFC701DF91CF911F910F91FF904C
:100BC000EF90DF90CF9008958F929F92AF92BF9257
:100BD000CF92DF92EF92FF920F931F93CF93DF9309
:100BE000972F6093A2027093A3028093A402209394
:100BF000A5023093A6024093A702C22ED12CC61A9A
:100C0000D108B601D7FE04C0662777276C197D0985
:100C1000E32EF12CE91AF108F701F7FE04C0EE27E4
:100C2000FF27EE19FF096E177F070CF0E62FC42F80
:100C3000D0E0C81BD109CE01D7FF04C0882799276F
:100C40008C1B9D0B2E2F30E02817390714F4E82F4A
:100C500005C0E11103C01092A10259C06E2F70E0CF
:100C60007093B5026093B4021092B7021092B6026C
:100C7000072E000C880B990B0E94B7124B015C01E8
:100C8000B601DD0C880B990B0E94B712A5019401E7
:100C90000E94B3116093A8027093A9028093AA02E4
:100CA0009093AB02B701FF0C880B990B0E94B7120F
:100CB000A50194010E94B3116093AC027093AD0240
:100CC0008093AE029093AF02BE01DD0F880B990BAB
:100CD0000E94B712A50194010E94B3116093B00263
:100CE0007093B1028093B2029093B3021093B90251
:100CF0000093B8020E94D8036093BA027093BB02BB
:100D00008093BC029093BD0281E08093A102DF91A9
:100D1000CF911F910F91FF90EF90DF90CF90BF90F8
:100D2000AF909F908F9008950E945412CF93DF93BD
:100D3000C1E8D2E0688570E089E00E941D03698502
:100D400070E08AE00E941D036A8570E08BE0DF910D
:100D5000CF910C941D030F931F932091C1023091EA
:100D6000C2022817390709F46EC09093C20280931B
:100D7000C1028930910508F066C0FC01EC5CFF4FB0
:100D80000C942C1120919E0230919F024091A00260
:100D900033C020918F02309190024091910216C091
:100DA0008091C3029091C402FC01EE0FFF1F8E0FD1
:100DB0009F1FFC01EF57FD4F26853785408906C0F0
:100DC00020919B0230919C0240919D02609189028A
:100DD00070918A0280918B0204E110E015C020918D
:100DE0008F02309190024091910206C020919202B0
:100DF00030919302409194026091890270918A022D
:100E000080918B020AE010E00E94E4051CC08FEF85
:100E10008093890280938A0280938B020E949606B7
:100E20001092A10210C00E94D803DC01CB018151B5
:100E30009742A109B1098093810290938202A09305
:100E40008302B09384021F910F910895CF92DF9295
:100E5000EF92FF920F931F93CF93DF93EC016A0100
:100E60007B01E889F98982E080834115514E610553
:100E70007105B1F060E079E08DE390E0A7019601A3
:100E80000E94EA1389019A010150110921093109CF
:100E90003695279517950795980101151041A8F0EB
:100EA000E889F989108260E874E88EE190E0A70192
:100EB00096010E94EA13DA01C9010197A109B1095B
:100EC000B695A795979587959C01EC85FD85308310
:100ED000EE85FF852083188EEC89FD8986E080836E
:100EE000EA89FB89808180618083EA89FB8980812E
:100EF00088608083EA89FB89808180688083EA89B1
:100F0000FB8980818F7D8083DF91CF911F910F912D
:100F1000FF90EF90DF90CF9008958F929F92AF92C5
:100F2000BF92CF92DF92EF92FF920F931F93CF93D6
:100F3000DF938C01EB018091CA029091CB020E9459
:100F40007805882309F43DC0B8018091CA029091C8
:100F5000CB020E944B0540E06EEB8091CA0290915B
:100F6000CB020E9409058E015E0189E0A80EB11C2A
:100F70008090CA029090CB0288E0C82ED12CEE243B
:100F8000E394F12CC4010E94B6048111FE28EE0CFA
:100F9000E1E0CE1AD108B1F7F801F1928F01EA151C
:100FA000FB0531F78091CA029091CB020E9478052F
:100FB000813039F468E0CE010E94A90491E02885CF
:100FC000821390E0892FDF91CF911F910F91FF90B5
:100FD000EF90DF90CF90BF90AF909F908F9008954B
:100FE000CF93DF93CDB7DEB729970FB6F894DEBF66
:100FF0000FBECDBFFC0120812031D1F0BE016F5F5B
:101000007F4F0E948D07882389F08D818F3361F097
:1010100020F48F3159F489E00CC08F3519F08F37E7
:1010200039F004C08BE005C08AE003C080E001C055
:101030008CE029960FB6F894DEBF0FBECDBFDF91CE
:10104000CF910895AF92BF92CF92DF92EF92FF922D
:101050000F931F93CF93DF931F92CDB7DEB75C0141
:10106000D62EE72EFC018585811105C0C5010E94A1
:101070007805811106C0F50113861586148680E077
:1010800065C040E060EFC5010E94090501E0F12C58
:10109000C12C11E0C5010E94B604682FC501698307
:1010A0000E94B6046981613019F48130B9F433C00B
:1010B0004F2D50E068131BC0F5018385181730F4DD
:1010C000E40FF51F8381802349F402C0181731F023
:1010D00060E0193058F4F501148708C0F501EF0DF0
:1010E000F11D8381802B838361E009C0C12EF5014E
:1010F000E40FF51F9381802F809589238383C50199
:101100000E94DA041F5F000F11F4F39401E0F7E08E
:10111000FF1508F0BFCF113408F4ADCFF501C38639
:10112000C11002C081E08587F5018381882309F41D
:10113000A2CFD5011396ED2DFE2D9501255F3F4FD2
:101140008D918193A217B307D9F781E00F90DF91BA
:10115000CF911F910F91FF90EF90DF90CF90BF90B4
:10116000AF9008950F931F93CF93DF938C01D62FE9
:10117000E091CA02F091CB02138615861486DF0136
:101180001B9633961E92AE17BF07E1F7C0E0B80179
:101190008091CA029091CB020E942208811102C064
:1011A00080E010C0CD130AC067E0C8010E94A90406
:1011B000F8019781891302C081E004C0CF5FDC177A
:1011C00078F3E5CFDF91CF911F910F9108958F9222
:1011D0009F92AF92BF92CF92DF92EF92FF920F93C6
:1011E0001F938091C1029091C202069709F057C0E7
:1011F0000E94D803C0908102D0908202E0908302C6
:10120000F0908402DC01CB018C199D09AE09BF0965
:1012100081319742A105B10508F447C061E0809192
:101220008802811160E0609388028DE00E94B10223
:101230000E94D8036093810270938202809383029C
:10124000909384020E94A712C12CD12C7601CA94DB
:10125000A70196010E94B813609385020E94A7120D
:10126000A70196010E94B813609386020E94A712FC
:10127000A70196010E94B81360938702209185020E
:1012800030918602409187026091890270918A02B2
:1012900080918B020FE010E00E94E40506C01092DE
:1012A000880260E08DE00E94B1028091A102882353
:1012B00009F4A4C00E94D803C090BA02D090BB0227
:1012C000E090BC02F090BD02AB01BC014C195D097D
:1012D0006E097F098091B8029091B902A0E0B0E058
:1012E00084179507A607B70708F088C06091B60273
:1012F0007091B7026F5F7F4F7093B7026093B60231
:10130000072E000C880B990B0E94B7126B017C0111
:101310006091A20270E080E090E00E94B7124B0161
:101320005C012091A8023091A9024091AA0250913B
:10133000AB02C701B6010E94F2129B01AC01C501CC
:10134000B4010E9447110E942512609389026091A6
:10135000A30270E080E090E00E94B7124B015C01B4
:101360002091AC023091AD024091AE025091AF029B
:10137000C701B6010E94F2129B01AC01C501B40184
:101380000E9447110E94251260938A026091A40274
:1013900070E080E090E00E94B7124B015C01209168
:1013A000B0023091B1024091B2025091B302C70134
:1013B000B6010E94F2129B01AC01C501B4010E946A
:1013C00047110E94251260938B020E9496060E948C
:1013D000D8036093BA027093BB028093BC029093CF
:1013E000BD022091B6023091B7028091B402909173
:1013F000B5022817390711F41092A1021F910F911D
:10140000FF90EF90DF90CF90BF90AF909F908F9024
:101410000895CF93DF93CDB7DEB761970FB6F894F9
:10142000DEBF0FBECDBF789484B5826084BD84B525
:10143000816084BD85B5826085BD85B5816085BDCF
:1014400080916E00816080936E0010928100809187
:10145000810082608093810080918100816080930F
:101460008100809180008160809380008091B10034
:1014700084608093B1008091B00081608093B0005F
:1014800080917A00846080937A0080917A008260F3
:1014900080937A0080917A00816080937A008091B5
:1014A0007A00806880937A001092C10062E089E03F
:1014B0000E94E10262E08AE00E94E10262E08BE0C9
:1014C0000E94E1028FEF8093890280938A028093C9
:1014D0008B020E94960680E00E947C03BC01990F5B
:1014E000880B990B611571058105910511F00E941A
:1014F000AC1286E090E00E94AB0680E090E00E9493
:10150000B013082F8093800182E090E00E94B01316
:10151000182F80937F01E8ECF1E0119221E0E23D89
:10152000F207D9F7133051F0143071F01230B9F4DA
:1015300081E08093CB018093CC0111C081E0809346
:10154000CB018093CF010BC091E09093CB0190939E
:10155000CA019093CD019093CE019093D00161E0A8
:101560008DE00E94E1028FEF90E09093A9018093BB
:10157000A8019093AB018093AA019093AD01809351
:10158000AC018091CA01882309F41CC1E091CA0210
:10159000F091CB02138615861486DF011B963396D5
:1015A0001E92AE17BF07E1F71092C902FF24F39411
:1015B000BE016F5F7F4F8091CA029091CB020E9463
:1015C0002208882309F44AC067E0CE0101960E94F0
:1015D000A90498858913ECCF8091C502811127C099
:1015E0008091CA029091CB020E947805BE016F5F84
:1015F0007F4F8091CA029091CB020E944B0540E040
:1016000064EB8091CA029091CB020E9409058091FF
:10161000CA029091CB020E94B604E82E8091CA02C1
:101620009091CB020E947805EE2009F464C5E09009
:10163000C602CE0101960E94F0078E1518F4809123
:10164000C60204C0CE0101960E94F0078093C60234
:101650009091C9029F5F9093C902AACF60E087E78B
:1016600091E00E94B20887E791E00E94F00789307C
:1016700009F49EC0BE016F5F7F4F87E791E00E9433
:101680008D07882309F494C080917701803109F493
:101690008FC08FE18D838091CA029091CB020E940E
:1016A000780567E771E08091CA029091CB020E94B1
:1016B0004B0540E06EE48091CA029091CB020E94FB
:1016C000090540E06B818091CA029091CB020E9493
:1016D000090540E06C818091CA029091CB020E9482
:1016E000090580917701803141F040E06D81809162
:1016F000CA029091CB020E9409058091CA02909182
:10170000CB020E94780567E771E08091CA02909150
:10171000CB020E944B054091C50268E48091CA0249
:101720009091CB020E94090564E170E080E090E0B6
:101730000E949E038091C502882331F06AE070E028
:1017400080E090E00E949E038091CA029091CB02BB
:101750000E9478059091C602993008F499E0909320
:10176000C602993029F189E08093C602E12CF12C60
:101770002091C90230E0E216F306D4F46E2DCE01BA
:101780000A960E94B208D090C602CE010A960E9424
:10179000F0078D1518F48091C60204C0CE010A9698
:1017A0000E94F0078093C6024FEFE41AF40AE0CFDC
:1017B0000E94D803609398017093990180939A01D5
:1017C00090939B018091D001882351F00E94D8030F
:1017D0006093940170939501809396019093970183
:1017E0008091CF01882331F162E08CE00E94E10218
:1017F0008CE0809380020E94880210927F028CE02D
:101800000E948802892B19F083E080937F020E9456
:10181000D8036093790270937A0280937B0290934D
:101820007C0285E090E090937E0280937D0281E0CF
:10183000809376018091CB01882361F061E089E09B
:101840000E94E10261E08AE00E94E10261E08BE037
:101850000E94E1028091CE01882321F060E087E0C0
:101860000E94E1028091CD01882339F061E086E099
:101870000E94E10280E00E94AE05812F90E09093EB
:101880009D0180939C018CED91E090937501809374
:10189000740140E056E960E070E00E942607009382
:1018A00030018EEE92E0909386018093850186ED63
:1018B00096E090932E0180932D0186E190E0909325
:1018C0008401809383018CE991E09093820180935D
:1018D000810184E080932C0161E00E94E10260E0DC
:1018E00084E00E94B102109233011092320140E074
:1018F00056E960E070E08CED91E00E94260771EB04
:10190000672E71E0772EE0E9CE2EDD24D394E12C12
:10191000F12C0E94E7088091740190917501DC011F
:10192000ED91FC910480F581E02D0995892B09F456
:101930002BC100E010E08091740190917501DC01F1
:10194000ED91FC910480F581E02D0995892B31F111
:101950008091740190917501002341F0DC01ED91BB
:10196000FC910680F781E02D099511C001E010344B
:1019700009F000E0DC01ED91FC910680F781E02D9B
:101980000995E12FF0E0EC5CFE4F80831F5F8091B2
:101990008501909186010E949303CDCF0111EBC088
:1019A000183008F4E5C080913401882319F01092B2
:1019B000310103C091E09093310100913001801713
:1019C00029F080913101882309F4DEC0A12EB12CC9
:1019D0008EEF810F0E946804A5014C5C5E4FFA01F6
:1019E0003297208130E0322F222731964081242BFC
:1019F0008217930709F0BFC04091350140932F0132
:101A00008091360190E0982F882720913701822B12
:101A10002091380130E0322F222750913901252BB7
:101A2000B901680F791F10913101111146C043307F
:101A300009F043C0409183015091840184179507B8
:101A400008F051C046175707B0F1220F15E0120FEA
:101A50000093340120933601982FA0918101B09119
:101A6000820183E0492F50E046175707A8F4440F3E
:101A7000551FFD01E40FF51F30814181E82FF0E093
:101A8000EC5CFE4F4083E1E0E80FF0E0EC5CFE4FE1
:101A900030838E5F9F5FE6CF83E0820F0E946804F1
:101AA000212F30E02C5C3E4FF90132979083319624
:101AB0008083812F35C083E058C04630B1F040317B
:101AC00009F052C020913A0130E0B9E0AB1AB108F8
:101AD0002A153B0509F04FC0209183013091840104
:101AE0008217930700F182E040C04091830150913A
:101AF000840184179507B8F7880F991FE091810139
:101B0000F0918201E80FF91F3183208386E00E9463
:101B1000680490933A0180933B01111135C088E02D
:101B20000E942E0431C02617370728F24091810108
:101B30005091820197E0282F30E02617370730F7C1
:101B4000A92FB0E0220F331FFA01E20FF31FAC5CA4
:101B5000BE4F11962C911197AC9130E03A2B318306
:101B600020839E5F8F5FE7CF81E00E9485040CC0D9
:101B70001150173048F48091320190913301019651
:101B800090933301809332018091CC01882339F006
:101B900080E10E947C039093A3018093A201809135
:101BA000CA01882309F4ADC08090980190909901F2
:101BB000A0909A01B0909B010E94D803861A970AC0
:101BC000A80AB90AE9EE8E16E3E09E06A104B10464
:101BD00008F497C00E94D80360939801709399010C
:101BE00080939A0190939B018091CA029091CB02BD
:101BF0000E94780540E06CEC8091CA029091CB0283
:101C00000E9409054091C50264E48091CA02909146
:101C1000CB020E9409058091C7028823A9F0E091B8
:101C2000C602E950E33040F4F0E0EE0FFF1FEC5F36
:101C3000FE4F6081718102C06EEE72E0072E000CD3
:101C4000880B990B0E949E0360E0CE010A960E94C9
:101C5000B208811105C060E070E08EEF92EC49C0DF
:101C6000BE016F5F7F4FCE010A960E948D078823C9
:101C700059F16981F8E06F9FB00111248A81282F02
:101C800030E0322F2227330F330F330F262B372B21
:101C90008A858031E1F4688570E08F81AB01481B53
:101CA0005109CA019695982F8827979587950E9484
:101CB000181160517109207F83E0220F331F8A952C
:101CC000E1F7620F731F04C060E874EE01C0B90150
:101CD000613854EE75070CF4BECF072E000C880B4C
:101CE000990B0E94B71220E030E040E05CE30E94D4
:101CF000F21290939F0180939E017093A1016093D3
:101D0000A0018091D001882309F44AC10E94D80320
:101D100000919401109195012091960130919701C5
:101D2000DC01CB01801B910BA20BB30B813D9740D3
:101D3000A105B10508F434C1E5ECF1E0B490F3017C
:101D40008491E82FF0E0EE0FFF1FEE55FE4F059156
:101D5000149161E085E00E94E10260E085E00E946C
:101D6000B10288EE93E00E94930361E085E00E9457
:101D7000B10260E085E00E94E10220E233E0D80198
:101D80008C918B2129F021503109C9F70DEF65C0E5
:101D900020E931E0F80180818B2129F421503109BB
:101DA000C9F70CEF5AC020E931E0D8018C918B21A2
:101DB00029F021503109C9F70BEF4FC0912C80E871
:101DC000A12C40E050E020E931E0E0E9F1E068E2F8
:101DD00090E0D8017C917B2179F5992369F16332F8
:101DE00098F02E173F0708F4F901A70196012E1B62
:101DF0003F0B41095109B2E0559547953795279515
:101E0000BA95D1F7A90107C0DF01A41BB50BA21732
:101E1000B30708F0A82A90E095958795009749F4B4
:101E2000A92DB0E0A957BE4F1896AC929394A12C5F
:101E300080E8615020E931E02150310969F0972FA5
:101E40006111C7CF61E085E00E94E10261E085E0B9
:101E50000E94B10200E001C00EEF80918F018370FB
:101E6000B82E80938F0110919101B12FB378AB2ED2
:101E7000B093910190909001682F70E0762F6627C3
:101E8000690D711D072E000C880B990B0E94B7126B
:101E90002DEC3CEC4CEC5DE30E94F2121B012C019A
:101EA00060938701709388018093890190938A01E0
:101EB000809092011370612F70E0762F6627680D75
:101EC000711D072E000C880B990B0E94B7122DEC88
:101ED0003CEC4CEC5DE30E94F212A7FC09C060935D
:101EE0008B0170938C0180938D0190938E010BC0B8
:101EF000DC01CB01B05880938B0190938C01A093AF
:101F00008D01B0938E01980CB90CAB0C80919301AC
:101F10008A111BC001111AC080918B0190918C0114
:101F2000A0918D01B0918E01B093B101A093B00149
:101F30009093B3018093B2015092B5014092B401E5
:101F40003092B7012092B60121C00FEF602F000F31
:101F5000770B880B990B0E94B71220E030E046EC1B
:101F600052E40E9446118C01222733271093B101BD
:101F70000093B0017093B3016093B2011093B50167
:101F80000093B4017093B7016093B6010E94D80327
:101F900060939401709395018093960190939701BB
:101FA0008091CE01882339F087E00E9488029093C7
:101FB000A5018093A4018091CF01882309F45AC020
:101FC000809180020E94880211E0892B09F410E0C0
:101FD00080917F02982F977F90937F0286958170E2
:101FE000181779F00E94D8036093790270937A02EF
:101FF00080937B0290937C0290917F0282E08927FC
:102000002FC00E94D8038090790290907A02A0900D
:102010007B02B0907C02AB01BC01481959096A09E6
:102020007B0980917D0290917E02A0E0B0E048178C
:1020300059076A077B07B0F080917F028170811792
:1020400089F00E94D8036093790270937A0280939A
:102050007B0290937C0290917F0281E089278860C7
:1020600080937F0280917F0281708093A6011092FD
:10207000A70106C081E090E09093A7018093A6019C
:102080008091B8019091B9011092B9011092B801F4
:1020900099278230910589F083309105D1F001971D
:1020A00029F58091BA019091BB01892B19F485E043
:1020B00090E01AC086E090E017C08091BA0190913C
:1020C000BB01892B11F480E001C081E00E94AE05C4
:1020D0000DC08091BA019091BB01892B19F487E062
:1020E00090E002C088E090E00E94AB060E94E70802
:1020F0000E94A5010ECCF092C50299CA1092DF0190
:102100001092DE0188EE93E0A0E0B0E08093E00161
:102110009093E101A093E201B093E30180E291E0AA
:102120009093DD018093DC0185EC90E09093E901D0
:102130008093E80184EC90E09093EB018093EA01B6
:1021400080EC90E09093ED018093EC0181EC90E0C5
:102150009093EF018093EE0182EC90E09093F10177
:102160008093F00186EC90E09093F3018093F2016C
:102170001092F5011092F6011092F7011092F801F9
:1021800060E088E00E94E102E8ECF1E0E491E09395
:10219000D802E4EBF1E0E491F0E0EE0FFF1FEE5522
:1021A000FE4F859194919093DA028093D902109218
:1021B000E3021092E5021092E402E3EEF2E01292E2
:1021C00082E0EB3DF807D9F78DEF91E09093D702CD
:1021D0008093D60288ED92E09093CB028093CA025E
:1021E0001092C9021092C50289E08093C60281E074
:1021F0008093C7028093C80282E1EAE0F1E0AFE891
:10220000B2E001900D928A95E1F710927902109256
:102210007A0210927B0210927C028AE090E0909306
:102220007E0280937D0210927F02109280020895B8
:1022300097FB072E16F4009407D077FD09D00E9473
:10224000321107FC05D03EF4909581959F4F08957B
:10225000709561957F4F0895EE0FFF1F0590F491E3
:10226000E02D0994AA1BBB1B51E107C0AA1FBB1F8D
:10227000A617B70710F0A61BB70B881F991F5A9512
:10228000A9F780959095BC01CD0108955058BB27C2
:10229000AA270E945E110C9476130E94681338F0EE
:1022A0000E946F1320F039F49F3F19F426F40C9428
:1022B00065130EF4E095E7FB0C945F13E92F0E9481
:1022C000871358F3BA17620773078407950720F03E
:1022D00079F4A6F50C94A9130EF4E0950B2EBA2F01
:1022E000A02D0B01B90190010C01CA01A00111241C
:1022F000FF27591B99F0593F50F4503E68F11A16C8
:10230000F040A22F232F342F4427585FF3CF469558
:1023100037952795A795F0405395C9F77EF41F167A
:10232000BA0B620B730B840BBAF09150A1F0FF0F44
:10233000BB1F661F771F881FC2F70EC0BA0F621F30
:10234000731F841F48F4879577956795B795F79520
:102350009E3F08F0B0CF9395880F08F09927EE0FB5
:102360009795879508950E94C7110C9476130E9443
:102370006F1358F00E94681340F029F45F3F29F072
:102380000C945F1351110C94AA130C9465130E94C2
:10239000871368F39923B1F3552391F3951B550BDC
:1023A000BB27AA2762177307840738F09F5F5F4F28
:1023B000220F331F441FAA1FA9F335D00E2E3AF067
:1023C000E0E832D091505040E695001CCAF72BD07F
:1023D000FE2F29D0660F771F881FBB1F26173707D0
:1023E0004807AB07B0E809F0BB0B802DBF01FF2702
:1023F00093585F4F3AF09E3F510578F00C945F136D
:102400000C94AA135F3FE4F3983ED4F38695779536
:102410006795B795F7959F5FC9F7880F911D9695BA
:10242000879597F90895E1E0660F771F881FBB1F16
:10243000621773078407BA0720F0621B730B840BC3
:10244000BA0BEE1F88F7E09508950E948F1388F06D
:102450009F5798F0B92F9927B751B0F0E1F0660F68
:10246000771F881F991F1AF0BA95C9F714C0B130A9
:1024700091F00E94A913B1E008950C94A913672F5D
:10248000782F8827B85F39F0B93FCCF386957795D8
:102490006795B395D9F73EF49095809570956195C1
:1024A0007F4F8F4F9F4F089581E090E0F8940C94F8
:1024B0001B148F929F92AF92BF92CF92DF92EF92B6
:1024C000FF92CF93DF93EC01688179818A819B81B0
:1024D000611571058105910521F464E279ED8BE5C3
:1024E00097E02DE133EF41E050E00E94B81349013D
:1024F0005A019B01AC01A7EAB1E40E94D7136B011A
:102500007C01ACEEB4EFA50194010E94E513DC015F
:10251000CB018C0D9D1DAE1DBF1DB7FF03C00197E4
:10252000A109B04888839983AA83BB83BC01CD01EC
:102530009F77DF91CF91FF90EF90DF90CF90BF908A
:10254000AF909F908F9008950E945912089580E057
:1025500091E00E9459120895609300017093010167
:1025600080930201909303010895E89409C097FBBA
:102570003EF490958095709561957F4F8F4F9F4F5A
:102580009923A9F0F92F96E9BB279395F69587959E
:1025900077956795B795F111F8CFFAF4BB0F11F461
:1025A00060FF1BC06F5F7F4F8F4F9F4F16C0882308
:1025B00011F096E911C0772321F09EE8872F762F3E
:1025C00005C0662371F096E8862F70E060E02AF07F
:1025D0009A95660F771F881FDAF7880F969587956B
:1025E00097F908950E9405130C9476130E946813BE
:1025F00038F00E946F1320F0952311F00C945F13B4
:102600000C94651311240C94AA130E94871370F381
:10261000959FC1F3950F50E0551F629FF001729F87
:10262000BB27F00DB11D639FAA27F00DB11DAA1F96
:10263000649F6627B00DA11D661F829F2227B00DE3
:10264000A11D621F739FB00DA11D621F839FA00D6E
:10265000611D221F749F3327A00D611D231F849FBE
:10266000600D211D822F762F6A2F11249F57504015
:102670009AF0F1F088234AF0EE0FFF1FBB1F661F90
:10268000771F881F91505040A9F79E3F510580F059
:102690000C945F130C94AA135F3FE4F3983ED4F3B9
:1026A000869577956795B795F795E7959F5FC1F7FD
:1026B000FE2B880F911D9695879597F9089597F9A8
:1026C0009F6780E870E060E008959FEF80EC0895D8
:1026D00000240A9416161706180609060895002401
:1026E0000A9412161306140605060895092E03947B
:1026F000000C11F4882352F0BB0F40F4BF2B11F4EF
:1027000060FF04C06F5F7F4F8F4F9F4F089557FD4D
:102710009058440F551F59F05F3F71F04795880F4F
:1027200097FB991F61F09F3F79F0879508951216E6
:1027300013061406551FF2CF4695F1DF08C0161692
:1027400017061806991FF1CF869571056105089443
:102750000895E894BB2766277727CB0197F908955A
:10276000F999FECF92BD81BDF89A992780B5089559
:10277000052E97FB1EF400940E94CF1357FD07D03F
:102780000E94EA1307FC03D04EF40C94CF1350952B
:102790004095309521953F4F4F4F5F4F089590954D
:1027A0008095709561957F4F8F4F9F4F08950E9440
:1027B0000C14A59F900DB49F900DA49F800D911DAA
:1027C00011240895B7FF0C94D7130E94D713821BCE
:1027D000930B0895A1E21A2EAA1BBB1BFD010DC08D
:1027E000AA1FBB1FEE1FFF1FA217B307E407F507C1
:1027F00020F0A21BB30BE40BF50B661F771F881F9D
:10280000991F1A9469F760957095809590959B0132
:10281000AC01BD01CF010895A29FB001B39FC001DB
:10282000A39F700D811D1124911DB29F700D811DFC
:0A2830001124911D0895F894FFCFC4
:10283A00010000005E00BC007701000000FEFEFE01
:10284A007F7F7F141414030303FFFFFF00000000BF
:0C285A001F02B905990177018B0166028D
:00000001FF
