:100000000C94EB000C9413010C9413010C94130149
:100010000C9413010C9413010C9413010C94130110
:100020000C9413010C9413010C9413010C94130100
:100030000C9413010C9413010C9413010C941301F0
:100040000C94E4030C9413010C9456020C943002AB
:100050000C9413010C9413010C9413010C941301D0
:100060000C9413010C941301C706CE06D506E506C1
:1000700028070C071807F406FB06005EBCE2613F88
:10008000DD83C29C7E20A3FD1F419DC3217FFCA276
:10009000401E5F01E3BD3E6082DC237D9FC1421CA8
:1000A000FEA0E1BF5D0380DE3C62BEE0025CDF815A
:1000B000633D7C22C09E1D43A1FF4618FAA4277908
:1000C0009BC584DA3866E5BB5907DB856739BAE436
:1000D00006581947A5FB7826C49A653BD987045A68
:1000E000B8E6A7F91B45C6987A24F8A6441A99C71A
:1000F000257B3A6486D85B05E7B98CD2306EEDB3C8
:10010000510F4E10F2AC2F7193CD114FADF3702EF5
:10011000CC92D38D6F31B2EC0E50AFF1134DCE9027
:10012000722C6D33D18F0C52B0EE326C8ED0530DD9
:10013000EFB1F0AE4C1291CF2D73CA947628ABF587
:1001400017490856B4EA6937D58B5709EBB53668B5
:100150008AD495CB2977F4AA4816E9B7550B88D6E7
:10016000346A2B7597C94A14F6A8742AC896154B99
:10017000A9F7B6E80A54D7896B35000000002400BF
:1001800027002A0000000000250028002B000000A6
:100190000008000201000003040700000000000046
:1001A00000000000000023002600290004040404CD
:1001B0000404040402020202020203030303030311
:1001C00001020408102040800102040810200102EE
:1001D00004081020BA1011241FBECFEFD8E0DEBFF4
:1001E000CDBF11E0A0E0B1E0E2EBF8E202C0059083
:1001F0000D92AE32B107D9F722E0AEE2B1E001C014
:100200001D92AA3EB207E1F710E0CBEED0E004C0A9
:100210002197FE010E946811CA3ED107C9F70E94CA
:100220000E0A0C9457140C940000FC01918D828DE1
:10023000981761F0828DDF01A80FB11D5D968C913A
:10024000928D9F5F9F73928F90E008958FEF9FEF45
:100250000895FC01918D828D981731F0828DE80F01
:10026000F11D858D90E008958FEF9FEF0895FC01BB
:10027000918D228D892F90E0805C9F4F821B910988
:100280008F739927089580EE91E00E94370121E055
:10029000892B09F420E0822F0895FC01848DDF0171
:1002A000A80FB11DA35ABF4F2C91848D90E00196E9
:1002B0008F739927848FA689B7892C93A089B189D8
:1002C0008C9180648C93938D848D981306C00288E2
:1002D000F389E02D80818F7D80830895EF92FF92D6
:1002E0000F931F93CF93DF93EC0181E0888F9B8D59
:1002F0008C8D981305C0E889F989808185FD24C01B
:10030000F62E0B8D10E00F5F1F4F0F731127E02E9D
:100310008C8DE8120CC00FB607FCFACFE889F9897A
:10032000808185FFF5CFCE010E944D01F1CF8B8DED
:10033000FE01E80FF11DE35AFF4FF0820B8FEA89AF
:10034000FB898081806207C0EE89FF896083E8892C
:10035000F98980818064808381E090E0DF91CF9192
:100360001F910F91FF90EF900895CF93DF93EC01D1
:10037000888D8823C9F0EA89FB89808185FD05C0C5
:10038000A889B9898C9186FD0FC00FB607FCF5CFFF
:10039000808185FFF2CFA889B9898C9185FFEDCF47
:1003A000CE010E944D01E7CFDF91CF91089580E00B
:1003B00090E0892B29F00E94430181110C940000E8
:1003C0000895833081F028F4813099F08230A1F0D3
:1003D00008958730A9F08830B9F08430D1F4809145
:1003E00080008F7D03C0809180008F778093800094
:1003F000089584B58F7702C084B58F7D84BD08953C
:100400008091B0008F7703C08091B0008F7D809382
:10041000B00008953FB7F8948091DC019091DD0120
:10042000A091DE01B091DF0126B5A89B05C02F3F4A
:1004300019F00196A11DB11D3FBFBA2FA92F982F0A
:100440008827820F911DA11DB11DBC01CD0142E085
:10045000660F771F881F991F4A95D1F70895089551
:100460001F920F920FB60F9211242F933F934F9329
:100470005F936F937F938F939F93AF93BF93EF930C
:10048000FF9380EE91E00E944D01FF91EF91BF91AB
:10049000AF919F918F917F916F915F914F913F911C
:1004A0002F910F900FBE0F901F9018951F920F92D3
:1004B0000FB60F9211242F938F939F93EF93FF9377
:1004C000E091F001F091F1018081E091F601F0916D
:1004D000F70182FD12C090818091F9018F5F8F73C7
:1004E0002091FA01821751F0E091F901F0E0E05219
:1004F000FE4F958F8093F90101C08081FF91EF91AC
:100500009F918F912F910F900FBE0F901F90189574
:10051000CF93DF93282F30E0F901E257FE4F84910B
:10052000F901E054FE4FD491F901E455FE4FC49116
:10053000CC2391F081110E94E101EC2FF0E0EE0F4D
:10054000FF1FEE55FE4FA591B491EC91ED2381E094
:1005500090E021F480E002C080E090E0DF91CF9154
:1005600008951F93CF93DF93282F30E0F901E257CE
:10057000FE4F8491F901E054FE4FD491F901E45506
:10058000FE4FC491CC23C9F0162F81110E94E101C6
:10059000EC2FF0E0EE0FFF1FEC57FE4FA591B4914A
:1005A0008FB7F894111105C09C91ED2FE095E923C8
:1005B00002C0EC91ED2BEC938FBFDF91CF911F9197
:1005C0000895CF93DF9390E0FC01E054FE4F249117
:1005D000FC01E455FE4F8491882361F190E0880F7F
:1005E000991FFC01E658FE4FC591D491FC01EC57D0
:1005F000FE4FA591B491611109C09FB7F89488810D
:10060000209582238883EC912E230BC0623061F405
:100610009FB7F8943881822F809583238883EC914B
:100620002E2B2C939FBF06C08FB7F894E8812E2BFA
:1006300028838FBFDF91CF9108951F93CF93DF93CE
:10064000182FEB0161E00E94E102209711F460E0B5
:1006500004C0CF3FD10539F461E0812FDF91CF9104
:100660001F910C94B102E12FF0E0E257FE4FE491AC
:10067000E330F9F048F4E130B9F0E230A1F584B5A7
:10068000806284BDC8BD34C0E730E9F0E83019F1BC
:10069000E43049F580918000806280938000D0939F
:1006A0008B00C0938A0024C084B5806884BDC7BD18
:1006B0001FC080918000806880938000D093890063
:1006C000C093880015C08091B00080688093B0000E
:1006D000C093B3000DC08091B00080628093B000E1
:1006E000C093B40005C0C038D1050CF0B5CFAFCF72
:1006F000DF91CF911F9108958E3008F08E50877052
:10070000806480937C0080917A00806480937A007A
:1007100080917A0086FDFCCF80917800209179004D
:1007200090E0922B08958230910538F0880F991F40
:10073000880F991F05970197F1F708958F929F925F
:10074000AF92BF92CF92DF92EF92FF926B017C014A
:100750000E940A024B015C01C114D104E104F104BE
:10076000F1F00E940A02DC01CB0188199909AA095B
:10077000BB09883E9340A105B10570F321E0C21A80
:10078000D108E108F10888EE880E83E0981EA11CCC
:10079000B11CC114D104E104F10419F7DDCFFF90BD
:1007A000EF90DF90CF90BF90AF909F908F90089583
:1007B0002FB7F8946091D8017091D9018091DA0136
:1007C0009091DB012FBF08951F920F920FB60F92E9
:1007D00011242F933F938F939F93AF93BF93809157
:1007E000D8019091D901A091DA01B091DB0130914B
:1007F000D70123E0230F2D3720F40196A11DB11D51
:1008000005C026E8230F0296A11DB11D2093D70134
:100810008093D8019093D901A093DA01B093DB01C2
:100820008091DC019091DD01A091DE01B091DF01AA
:100830000196A11DB11D8093DC019093DD01A09371
:10084000DE01B093DF01BF91AF919F918F913F91F6
:100850002F910F900FBE0F901F901895EF92FF925F
:100860001F93CF93DF93182F61E080912E010E9498
:10087000B10286E3E82E81E0F82EE701A09176012F
:10088000B09177019C2F9E19911750F46991ED91C9
:10089000FC9111970190F081E02DCD010995EECFEB
:1008A000ED91FC9111970284F385E02DCD0109951E
:1008B00080912F01909130010E94930360E080911C
:1008C0002E01DF91CF911F91FF90EF900C94B10218
:1008D00046E351E0FA012FEF3FEF9E2F941B98174C
:1008E00088F49191292798E0B901617077273695AE
:1008F0002795672B21F061E0262760EA3627915083
:1009000099F7EBCF922F832F0895209134013091E6
:1009100035012F5F3F4F3093350120933401909183
:100920003301911115C0909132019093360190914D
:1009300031019068909337018093380183E00E94E1
:1009400068049093390180933A0185E00C942E0459
:100950000895DC01E0E0615038F08D91E827F0E087
:10096000E658FF4FE491F7CF8E2F0895FC01908158
:100970000180F281E02DF8948181892B818322818D
:10098000892F809528232283A7E0B0E01197F1F703
:10099000218182238183A3E2B0E01197F1F7808166
:1009A0007894EFECF0E03197F1F7982381E009F4C7
:1009B00080E00895FC0190810180F281E02D892F73
:1009C000809560FF12C0F894228182238283818106
:1009D000892B8183A3E2B0E01197F1F78281982BF4
:1009E0009283789487ED90E011C0F894228182235D
:1009F00082838181892B8183AFEFB0E01197F1F77A
:100A00008281982B928378948FE090E00197F1F7A0
:100A10000895CF92DF92EF92FF920F931F93CF939F
:100A2000DF931F92CDB7DEB76C01E62E08E010E031
:100A3000FF24F39461E08F2D8E2109F460E0C6015C
:100A400049830E94DA04FF0C015011094981011504
:100A5000110581F7411115C0F894D6011196ED9159
:100A6000FC91129791818C918095892381831196B5
:100A7000ED91FC91129792818C91809589238283CC
:100A800078940F90DF91CF911F910F91FF90EF908D
:100A9000DF90CF900895CF92DF92EF92FF920F9365
:100AA0001F93CF93DF931F92CDB7DEB78C01F62E45
:100AB00040E065E579830E940905CF2C7981D72E26
:100AC000760188E0E80EF11CF60161916F0140E0CB
:100AD000C8010E940905CE14DF04B1F70F90DF9121
:100AE000CF911F910F91FF90EF90DF90CF900895DD
:100AF000FC0190810180F281E02DF8948181292F01
:100B000020958223818378948DE743E050E08150E3
:100B100021F1DA011197F1F730813923C1F3F8940B
:100B20008281822382838181892B81837894ABE7C0
:100B3000B7E01197F1F7F894818128232183A3E18D
:100B4000B1E01197F1F78081982381E009F080E00E
:100B50007894E3E6F6E03197F1F7089586E00E9495
:100B6000880261E0892B09F060E086E00E94B10212
:100B700086E00E948802809378010895CF92DF92E8
:100B8000EF92FF920F931F93CF93DF936C017A0143
:100B90008B01C0E0D0E0CE15DF0589F0D8016D9162
:100BA0008D01D601ED91FC910190F081E02DC601FF
:100BB0000995892B11F47E0102C02196ECCFC70163
:100BC000DF91CF911F910F91FF90EF90DF90CF9029
:100BD00008958F929F92AF92BF92CF92DF92EF9241
:100BE000FF920F931F93CF93DF93972F6093A602EB
:100BF0007093A7028093A8022093A9023093AA02BF
:100C00004093AB02C22ED12CC61AD108B601D7FE32
:100C100004C0662777276C197D09E32EF12CE91AA9
:100C2000F108F701F7FE04C0EE27FF27EE19FF09D0
:100C30006E177F070CF0E62FC42FD0E0C81BD10938
:100C4000CE01D7FF04C0882799278C1B9D0B2E2F20
:100C500030E02817390714F4E82F05C0E11103C06C
:100C60001092A50259C06E2F70E07093B902609384
:100C7000B8021092BB021092BA02072E000C880B29
:100C8000990B0E94F3124B015C01B601DD0C880B3D
:100C9000990B0E94F312A50194010E94EF11609339
:100CA000AC027093AD028093AE029093AF02B70195
:100CB000FF0C880B990B0E94F312A50194010E946E
:100CC000EF116093B0027093B1028093B2029093DF
:100CD000B302BE01DD0F880B990B0E94F312A50130
:100CE00094010E94EF116093B4027093B502809357
:100CF000B6029093B7021093BD020093BC020E940B
:100D0000D8036093BE027093BF028093C002909399
:100D1000C10281E08093A502DF91CF911F910F91D5
:100D2000FF90EF90DF90CF90BF90AF909F908F900B
:100D300008950E949012CF93DF93C5E8D2E06885B2
:100D400070E089E00E941D03698570E08AE00E94DE
:100D50001D036A8570E08BE0DF91CF910C941D0339
:100D60000F931F932091C5023091C60228173907AF
:100D700009F46EC09093C6028093C5028930910534
:100D800008F066C0FC01EC5CFF4F0C9468112091E8
:100D9000A2023091A3024091A40233C02091930299
:100DA000309194024091950216C08091C7029091B3
:100DB000C802FC01EE0FFF1F8E0F9F1FFC01EB57B7
:100DC000FD4F26853785408906C020919F023091CE
:100DD000A0024091A10260918D0270918E028091DB
:100DE0008F0204E110E015C020919302309194022B
:100DF0004091950206C02091960230919702409151
:100E0000980260918D0270918E0280918F020AE0AB
:100E100010E00E94E9051CC08FEF80938D02809343
:100E20008E0280938F020E949B061092A50210C032
:100E30000E94D803DC01CB0189589341A109B10973
:100E40008093850290938602A0938702B0938802D4
:100E50001F910F910895CF92DF92EF92FF920F931F
:100E60001F93CF93DF93EC016A017B01E889F98935
:100E700082E080834115514E61057105B1F060E05B
:100E800079E08DE390E0A70196010E942614890184
:100E90009A010150110921093109369527951795B5
:100EA0000795980101151041A8F0E889F989108289
:100EB00060E874E88EE190E0A70196010E94261494
:100EC000DA01C9010197A109B109B695A7959795CE
:100ED00087959C01EC85FD853083EE85FF85208319
:100EE000188EEC89FD8986E08083EA89FB89808100
:100EF00080618083EA89FB89808188608083EA89B8
:100F0000FB89808180688083EA89FB8980818F7D6D
:100F10008083DF91CF911F910F91FF90EF90DF9031
:100F2000CF9008958F929F92AF92BF92CF92DF920F
:100F3000EF92FF920F931F93CF93DF938C01EB01FE
:100F40008091CE029091CF020E947805882309F407
:100F50003DC0B8018091CE029091CF020E944B0516
:100F600040E06EEB8091CE029091CF020E94090585
:100F70008E015E0189E0A80EB11C8090CE02909097
:100F8000CF0288E0C82ED12CEE24E394F12CC401CA
:100F90000E94B6048111FE28EE0CE1E0CE1AD108C1
:100FA000B1F7F801F1928F01EA15FB0531F7809155
:100FB000CE029091CF020E947805813039F468E02A
:100FC000CE010E94A90491E02885821390E0892F28
:100FD000DF91CF911F910F91FF90EF90DF90CF9015
:100FE000BF90AF909F908F900895CF93DF93CDB730
:100FF000DEB729970FB6F894DEBF0FBECDBFFC0158
:1010000020812031D1F0BE016F5F7F4F0E94920797
:10101000882389F08D818F3361F020F48F3159F46A
:1010200089E00CC08F3519F08F3739F004C08BE0A0
:1010300005C08AE003C080E001C08CE029960FB6AD
:10104000F894DEBF0FBECDBFDF91CF910895AF9270
:10105000BF92CF92DF92EF92FF920F931F93CF93A5
:10106000DF931F92CDB7DEB75C01D62EE72EFC01D1
:101070008585811105C0C5010E947805811106C0D2
:10108000F50113861586148680E065C040E060EFA8
:10109000C5010E94090501E0F12CC12C11E0C50138
:1010A0000E94B604682FC50169830E94B604698155
:1010B000613019F48130B9F433C04F2D50E068131A
:1010C0001BC0F5018385181730F4E40FF51F8381E9
:1010D000802349F402C0181731F060E0193058F449
:1010E000F501148708C0F501EF0DF11D8381802BF8
:1010F000838361E009C0C12EF501E40FF51F9381E0
:10110000802F809589238383C5010E94DA041F5FA5
:10111000000F11F4F39401E0F7E0FF1508F0BFCFE2
:10112000113408F4ADCFF501C386C11002C081E0CF
:101130008587F5018381882309F4A2CFD501139611
:10114000ED2DFE2D9501255F3F4F8D918193A217C7
:10115000B307D9F781E00F90DF91CF911F910F91E5
:10116000FF90EF90DF90CF90BF90AF9008950F93D6
:101170001F93CF93DF938C01D62FE091CE02F09195
:10118000CF02138615861486DF011B9633961E92B6
:10119000AE17BF07E1F7C0E0B8018091CE02909191
:1011A000CF020E942708811102C080E010C0CD1339
:1011B0000AC067E0C8010E94A904F8019781891359
:1011C00002C081E004C0CF5FDC1778F3E5CFDF9188
:1011D000CF911F910F9108958F929F92AF92BF92DE
:1011E000CF92DF92EF92FF920F931F938091C502EF
:1011F0009091C602069709F057C00E94D803C0908C
:101200008502D0908602E0908702F0908802DC018F
:10121000CB018C199D09AE09BF0989389341A105FD
:10122000B10508F447C061E080918C02811160E053
:1012300060938C028DE00E94B1020E94D8036093FB
:1012400085027093860280938702909388020E94A1
:10125000E312C12CD12C7601CA94A70196010E94F9
:10126000F413609389020E94E312A70196010E9481
:10127000F41360938A020E94E312A70196010E9470
:10128000F41360938B022091890230918A0240917D
:101290008B0260918D0270918E0280918F020AE024
:1012A00010E00E94E90506C010928C0260E08DE01B
:1012B0000E94B1028091A502882309F4A4C00E9473
:1012C000D803C090BE02D090BF02E090C002F09060
:1012D000C102AB01BC014C195D096E097F09809107
:1012E000BC029091BD02A0E0B0E084179507A6076C
:1012F000B70708F088C06091BA027091BB026F5FB7
:101300007F4F7093BB026093BA02072E000C880BCC
:10131000990B0E94F3126B017C016091A60270E0B0
:1013200080E090E00E94F3124B015C012091AC023E
:101330003091AD024091AE025091AF02C701B601AB
:101340000E942E139B01AC01C501B4010E948311C0
:101350000E94611260938D026091A70270E080E0AC
:1013600090E00E94F3124B015C012091B002309199
:10137000B1024091B2025091B302C701B6010E947E
:101380002E139B01AC01C501B4010E9483110E9480
:10139000611260938E026091A80270E080E090E09C
:1013A0000E94F3124B015C012091B4023091B5020E
:1013B0004091B6025091B702C701B6010E942E13A8
:1013C0009B01AC01C501B4010E9483110E9461120E
:1013D00060938F020E949B060E94D8036093BE0216
:1013E0007093BF028093C0029093C1022091BA0211
:1013F0003091BB028091B8029091B9022817390749
:1014000011F41092A5021F910F91FF90EF90DF90C1
:10141000CF90BF90AF909F908F900895CF93DF9320
:10142000CDB7DEB761970FB6F894DEBF0FBECDBF64
:10143000789484B5826084BD84B5816084BD85B5AF
:10144000826085BD85B5816085BD80916E008160BB
:1014500080936E0010928100809181008260809361
:101460008100809181008160809381008091800063
:101470008160809380008091B10084608093B1008E
:101480008091B00081608093B00080917A00846088
:1014900080937A0080917A00826080937A008091B4
:1014A0007A00816080937A0080917A0080688093CE
:1014B0007A001092C10062E089E00E94E10262E0DD
:1014C0008AE00E94E10262E08BE00E94E1028FEF7D
:1014D00080938D0280938E0280938F020E949B06E0
:1014E00080E00E947C03BC01990F880B990B611569
:1014F00071058105910511F00E94E81286E090E0E7
:101500000E94B00680E090E00E94EC13082F8093C8
:10151000830182E090E00E94EC13182F80938201F7
:10152000EDECF1E0119221E0E73DF207D9F713303D
:1015300051F0143071F01230B9F481E08093D00191
:101540008093D10111C081E08093D0018093D401B8
:101550000BC091E09093D0019093CF019093D20172
:101560009093D3019093D50161E08DE00E94E10258
:101570008FEF90E09093AE018093AD019093B00116
:101580008093AF019093B2018093B1018091CF011C
:10159000882309F421C1E091CE02F091CF02138695
:1015A00015861486DF011B9633961E92AE17BF0771
:1015B000E1F71092CD02FF24F394BE016F5F7F4FDD
:1015C0008091CE029091CF020E942708882309F4CF
:1015D0004AC067E0CE0101960E94A904988589134C
:1015E000ECCF8091C902811127C08091CE029091E9
:1015F000CF020E947805BE016F5F7F4F8091CE02BF
:101600009091CF020E944B0540E064EB8091CE02A6
:101610009091CF020E9409058091CE029091CF0255
:101620000E94B604E82E8091CE029091CF020E94D3
:101630007805EE2009F49BC5E090CA02CE01019620
:101640000E94F5078E1518F48091CA0204C0CE01DD
:1016500001960E94F5078093CA029091CD029F5F88
:101660009093CD02AACF60E08AE791E00E94B7088C
:101670008AE791E00E94F507893009F49EC0BE0117
:101680006F5F7F4F8AE791E00E949207882309F4F9
:1016900094C080917A01803109F48FC08FE18D83ED
:1016A0008091CE029091CF020E9478056AE771E0A6
:1016B0008091CE029091CF020E944B0540E06EE4F3
:1016C0008091CE029091CF020E94090540E06B818B
:1016D0008091CE029091CF020E94090540E06C817A
:1016E0008091CE029091CF020E94090580917A01EB
:1016F000803141F040E06D818091CE029091CF0227
:101700000E9409058091CE029091CF020E94780537
:101710006AE771E08091CE029091CF020E944B0562
:101720004091C90268E48091CE029091CF020E945C
:10173000090564E170E080E090E00E949E038091E2
:10174000C902882331F06AE070E080E090E00E94F6
:101750009E038091CE029091CF020E9478059091D5
:10176000CA02993008F499E09093CA02993029F19D
:1017700089E08093CA02E12CF12C2091CD0230E067
:10178000E216F306D4F46E2DCE010A960E94B70835
:10179000D090CA02CE010A960E94F5078D1518F462
:1017A0008091CA0204C0CE010A960E94F507809378
:1017B000CA024FEFE41AF40AE0CF1092CB020E9463
:1017C000D80360939B0170939C0180939D0190933B
:1017D0009E0181E0809301018091D501882351F021
:1017E0000E94D803609397017093980180939901A8
:1017F00090939A018091D401882331F162E08CE0CA
:101800000E94E1028CE0809384020E948802109280
:1018100083028CE00E948802892B19F083E0809378
:1018200083020E94D80360937D0270937E028093AE
:101830007F029093800285E090E0909382028093F3
:10184000810281E0809379018091D001882361F049
:1018500061E089E00E94E10261E08AE00E94E10229
:1018600061E08BE00E94E1028091D301882321F0A6
:1018700060E087E00E94E1028091D201882371F04C
:1018800061E086E00E94E10280917801882331F0D6
:101890001092780160E086E00E94B102812F90E012
:1018A0009093A00180939F0180EE91E09093770147
:1018B0008093760140E056E960E070E00E942B07DB
:1018C000009332018EEE92E090938901809388011B
:1018D00086ED96E09093300180932F0187E190E0B0
:1018E00090938701809386018FE991E09093850121
:1018F0008093840184E080932E0161E00E94E102E4
:1019000060E084E00E94B10210923501109234012F
:1019100040E056E960E070E080EE91E00E942B0725
:1019200071EB672E71E0772EE0E9CE2EDD24D394A3
:10193000E12CF12C0E94EC088091760190917701C6
:10194000DC01ED91FC910480F581E02D0995892B56
:1019500009F42BC100E010E08091760190917701AD
:10196000DC01ED91FC910480F581E02D0995892B36
:1019700031F18091760190917701002341F0DC01F3
:10198000ED91FC910680F781E02D099511C001E0F1
:10199000103409F000E0DC01ED91FC910680F78144
:1019A000E02D0995E12FF0E0EA5CFE4F80831F5F98
:1019B00080918801909189010E949303CDCF0111FC
:1019C000EBC0183008F4E5C080913601882319F087
:1019D0001092330103C091E09093330100913201E2
:1019E000801729F080913301882309F4DEC0A12EED
:1019F000B12C8EEF810F0E946804A5014A5C5E4FF6
:101A0000FA013297208130E0322F2227319640812F
:101A1000242B8217930709F0BFC0409137014093F0
:101A200031018091380190E0982F88272091390169
:101A3000822B20913A0130E0322F222750913B0136
:101A4000252BB901680F791F10913301111146C080
:101A5000433009F043C040918601509187018417BB
:101A6000950708F051C046175707B0F1220F15E04F
:101A7000120F0093360120933801982FA091840112
:101A8000B091850183E0492F50E046175707A8F42D
:101A9000440F551FFD01E40FF51F30814181E82FF0
:101AA000F0E0EA5CFE4F4083E1E0E80FF0E0EA5C42
:101AB000FE4F30838E5F9F5FE6CF83E0820F0E94F0
:101AC0006804212F30E02A5C3E4FF9013297908361
:101AD00031968083812F35C083E058C04630B1F005
:101AE000403109F052C020913C0130E0B9E0AB1A1E
:101AF000B1082A153B0509F04FC0209186013091AD
:101B000087018217930700F182E040C0409186016F
:101B10005091870184179507B8F7880F991FE091B6
:101B20008401F0918501E80FF91F3183208386E05D
:101B30000E94680490933C0180933D01111135C0CF
:101B400088E00E942E0431C02617370728F2409102
:101B500084015091850197E0282F30E02617370740
:101B600030F7A92FB0E0220F331FFA01E20FF31F65
:101B7000AA5CBE4F11962C911197AC9130E03A2B94
:101B8000318320839E5F8F5FE7CF81E00E948504D1
:101B90000CC01150173048F48091340190913501F8
:101BA000019690933501809334018091D10188236F
:101BB00039F080E10E947C039093A6018093A501F7
:101BC0008091CF01882309F4B7C080909B01909049
:101BD0009C01A0909D01B0909E010E94D803861A9E
:101BE000970AA80AB90AE9EE8E16E3E09E06A10458
:101BF000B10408F4A1C00E94D80360939B017093C4
:101C00009C0180939D0190939E0180910101882306
:101C100099F18091CE029091CF020E94780540E028
:101C20006CEC8091CE029091CF020E940905409108
:101C3000C90264E48091CE029091CF020E9409050E
:101C40008091CB028823A9F0E091CA02E950E330E9
:101C500040F4F0E0EE0FFF1FEA5FFE4F60817181FC
:101C600002C06EEE72E0072E000C880B990B0E94EA
:101C70009E031092010160C060E0CE010A960E94AE
:101C8000B708811105C060E070E08EEF92EC49C0AA
:101C9000BE016F5F7F4FCE010A960E949207882394
:101CA00059F16981F8E06F9FB00111248A81282FD2
:101CB00030E0322F2227330F330F330F262B372BF1
:101CC0008A858031E1F4688570E08F81AB01481B23
:101CD0005109CA019695982F8827979587950E9454
:101CE000541160517109207F83E0220F331F8A95C0
:101CF000E1F7620F731F04C060E874EE01C0B90120
:101D0000613854EE75070CF4BECF072E000C880B1B
:101D1000990B0E94F31220E030E040E05CE30E9467
:101D20002E139093A2018093A1017093A40160935C
:101D3000A30181E0809301018091D501882309F4FA
:101D40004AC10E94D80300919701109198012091F7
:101D5000990130919A01DC01CB01801B910BA20B00
:101D6000B30B813D9740A105B10508F434C1E5EC02
:101D7000F1E0B490F3018491E82FF0E0EE0FFF1F43
:101D8000EE55FE4F0591149161E085E00E94E1025D
:101D900060E085E00E94B10288EE93E00E94930328
:101DA00061E085E00E94B10260E085E00E94E1020E
:101DB00020E233E0D8018C918B2129F021503109A8
:101DC000C9F70DEF65C020E931E0F80180818B2172
:101DD00029F421503109C9F70CEF5AC020E931E04C
:101DE000D8018C918B2129F021503109C9F70BEFD3
:101DF0004FC0912C80E8A12C40E050E020E931E078
:101E0000E0E9F1E068E290E0D8017C917B2179F58E
:101E1000992369F1633298F02E173F0708F4F9010E
:101E2000A70196012E1B3F0B41095109B2E05595C0
:101E3000479537952795BA95D1F7A90107C0DF01D6
:101E4000A41BB50BA217B30708F0A82A90E095953C
:101E50008795009749F4A92DB0E0A657BE4F189674
:101E6000AC929394A12C80E8615020E931E021509C
:101E7000310969F0972F6111C7CF61E085E00E94B9
:101E8000E10261E085E00E94B10200E001C00EEFD6
:101E9000809192018370B82E8093920110919401E9
:101EA000B12FB378AB2EB093940190909301682F2B
:101EB00070E0762F6627690D711D072E000C880BC8
:101EC000990B0E94F3122DEC3CEC4CEC5DE30E946C
:101ED0002E131B012C0160938A0170938B01809358
:101EE0008C0190938D01809095011370612F70E0AB
:101EF000762F6627680D711D072E000C880B990B35
:101F00000E94F3122DEC3CEC4CEC5DE30E942E138E
:101F1000A7FC09C060938E0170938F01809390019C
:101F2000909391010BC0DC01CB01B05880938E01DE
:101F300090938F01A0939001B0939101980CB90CEC
:101F4000AB0C809196018A111BC001111AC08091BF
:101F50008E0190918F01A0919001B0919101B09369
:101F6000B601A093B5019093B8018093B701509248
:101F7000BA014092B9013092BC012092BB0121C04C
:101F80000FEF602F000F770B880B990B0E94F31255
:101F900020E030E046EC52E40E9482118C012227BE
:101FA00033271093B6010093B5017093B801609385
:101FB000B7011093BA010093B9017093BC0160930B
:101FC000BB010E94D803609397017093980180939E
:101FD000990190939A018091D301882339F087E089
:101FE0000E9488029093A8018093A7018091D40158
:101FF000882309F46DC0809184020E94880211E058
:10200000892B09F410E080918302982F977F909399
:10201000830286958170181779F00E94D803609327
:102020007D0270937E0280937F0290938002909154
:10203000830282E089272FC00E94D80380907D020E
:1020400090907E02A0907F02B0908002AB01BC0114
:10205000481959096A097B0980918102909182028D
:10206000A0E0B0E0481759076A077B07B0F08091FD
:1020700083028170811789F00E94D80360937D02EA
:1020800070937E0280937F029093800290918302EE
:1020900081E0892788608093830280918302817028
:1020A000282F30E03093AC012093AB0190910001D8
:1020B0008917A1F080930001811110C08091A901BE
:1020C0009091AA0101969093AA018093A90106C05C
:1020D00081E090E09093AC018093AB018091BD01D1
:1020E0009091BE011092BE011092BD0199278230DD
:1020F0009105B1F01CF4019739F034C0833091059B
:1021000009F1049769F12EC08091BF019091C0013F
:10211000892B19F485E090E020C086E090E01DC096
:102120008091BF019091C001892BD1F080917801FD
:102130008130C1F081E08093780161E086E00E9407
:10214000B10210C08091BF019091C001892B19F498
:1021500087E090E002C088E090E00E94B00602C0F4
:102160000E94AE050E94EC080E94D701E3CBF092DA
:10217000C90262CA1092E3011092E20188EE93E074
:10218000A0E0B0E08093E4019093E501A093E60124
:10219000B093E70182E291E09093E1018093E00146
:1021A00085EC90E09093ED018093EC0184EC90E05D
:1021B0009093EF018093EE0180EC90E09093F10119
:1021C0008093F00181EC90E09093F3018093F20111
:1021D00082EC90E09093F5018093F40186EC90E01E
:1021E0009093F7018093F6011092F9011092FA0191
:1021F0001092FB011092FC0160E088E00E94E10275
:10220000E8ECF1E0E491E093DC02E4EBF1E0E4914E
:10221000F0E0EE0FFF1FEE55FE4F859194919093E5
:10222000DE028093DD021092E7021092E902109222
:10223000E802E7EEF2E0129282E0EF3DF807D9F70C
:102240008FE292E09093DB028093DA028CED92E0D1
:102250009093CF028093CE021092CD021092C902C9
:1022600089E08093CA0281E08093CB028093CC0204
:1022700082E1ECE0F1E0A3E9B2E001900D928A95F1
:10228000E1F710927D0210927E0210927F0210926E
:1022900080028AE090E09093820280938102109203
:1022A000830210928402089597FB072E16F400947F
:1022B00007D077FD09D00E946E1107FC05D03EF4CF
:1022C000909581959F4F0895709561957F4F0895E2
:1022D000EE0FFF1F0590F491E02D0994AA1BBB1B84
:1022E00051E107C0AA1FBB1FA617B70710F0A61B16
:1022F000B70B881F991F5A95A9F780959095BC0137
:10230000CD0108955058BB27AA270E949A110C941A
:10231000B2130E94A41338F00E94AB1320F039F4DA
:102320009F3F19F426F40C94A1130EF4E095E7FBFB
:102330000C949B13E92F0E94C31358F3BA1762073A
:1023400073078407950720F079F4A6F50C94E5133C
:102350000EF4E0950B2EBA2FA02D0B01B9019001C0
:102360000C01CA01A0011124FF27591B99F0593F04
:1023700050F4503E68F11A16F040A22F232F342F4C
:102380004427585FF3CF469537952795A795F0409A
:102390005395C9F77EF41F16BA0B620B730B840BAF
:1023A000BAF09150A1F0FF0FBB1F661F771F881F67
:1023B000C2F70EC0BA0F621F731F841F48F48795BF
:1023C00077956795B795F7959E3F08F0B0CF9395B1
:1023D000880F08F09927EE0F9795879508950E942A
:1023E00003120C94B2130E94AB1358F00E94A41372
:1023F00040F029F45F3F29F00C949B1351110C9489
:10240000E6130C94A1130E94C31368F39923B1F34C
:10241000552391F3951B550BBB27AA27621773070A
:10242000840738F09F5F5F4F220F331F441FAA1F9E
:10243000A9F335D00E2E3AF0E0E832D0915050405A
:10244000E695001CCAF72BD0FE2F29D0660F771F08
:10245000881FBB1F261737074807AB07B0E809F0EE
:10246000BB0B802DBF01FF2793585F4F3AF09E3F73
:10247000510578F00C949B130C94E6135F3FE4F342
:10248000983ED4F3869577956795B795F7959F5FB6
:10249000C9F7880F911D9695879597F90895E1E002
:1024A000660F771F881FBB1F621773078407BA0761
:1024B00020F0621B730B840BBA0BEE1F88F7E095BC
:1024C00008950E94CB1388F09F5798F0B92F992751
:1024D000B751B0F0E1F0660F771F881F991F1AF00F
:1024E000BA95C9F714C0B13091F00E94E513B1E07C
:1024F00008950C94E513672F782F8827B85F39F07B
:10250000B93FCCF3869577956795B395D9F73EF4A7
:1025100090958095709561957F4F8F4F9F4F08954F
:1025200081E090E0F8940C9457148F929F92AF92B0
:10253000BF92CF92DF92EF92FF92CF93DF93EC01A5
:10254000688179818A819B81611571058105910579
:1025500021F464E279ED8BE597E02DE133EF41E082
:1025600050E00E94F41349015A019B01AC01A7EA13
:10257000B1E40E9413146B017C01ACEEB4EFA50131
:1025800094010E942114DC01CB018C0D9D1DAE1D18
:10259000BF1DB7FF03C00197A109B0488883998385
:1025A000AA83BB83BC01CD019F77DF91CF91FF90C0
:1025B000EF90DF90CF90BF90AF909F908F90089555
:1025C0000E949512089582E091E00E94951208956C
:1025D00060930201709303018093040190930501BD
:1025E0000895E89409C097FB3EF490958095709506
:1025F00061957F4F8F4F9F4F9923A9F0F92F96E94F
:10260000BB279395F695879577956795B795F111C3
:10261000F8CFFAF4BB0F11F460FF1BC06F5F7F4F60
:102620008F4F9F4F16C0882311F096E911C0772372
:1026300021F09EE8872F762F05C0662371F096E87B
:10264000862F70E060E02AF09A95660F771F881F4A
:10265000DAF7880F9695879597F908950E944113A8
:102660000C94B2130E94A41338F00E94AB1320F014
:10267000952311F00C949B130C94A11311240C942A
:10268000E6130E94C31370F3959FC1F3950F50E0BA
:10269000551F629FF001729FBB27F00DB11D639F14
:1026A000AA27F00DB11DAA1F649F6627B00DA11DBA
:1026B000661F829F2227B00DA11D621F739FB00D60
:1026C000A11D621F839FA00D611D221F749F3327D0
:1026D000A00D611D231F849F600D211D822F762F69
:1026E0006A2F11249F5750409AF0F1F088234AF046
:1026F000EE0FFF1FBB1F661F771F881F91505040B2
:10270000A9F79E3F510580F00C949B130C94E6139F
:102710005F3FE4F3983ED4F3869577956795B79538
:10272000F795E7959F5FC1F7FE2B880F911D969552
:10273000879597F9089597F99F6780E870E060E0C2
:1027400008959FEF80EC089500240A94161617064A
:1027500018060906089500240A9412161306140692
:1027600005060895092E0394000C11F4882352F0F5
:10277000BB0F40F4BF2B11F460FF04C06F5F7F4FAD
:102780008F4F9F4F089557FD9058440F551F59F094
:102790005F3F71F04795880F97FB991F61F09F3F4E
:1027A00079F087950895121613061406551FF2CF77
:1027B0004695F1DF08C0161617061806991FF1CFC7
:1027C00086957105610508940895E894BB276627EE
:1027D0007727CB0197F90895F999FECF92BD81BD76
:1027E000F89A992780B50895052E97FB1EF400945A
:1027F0000E940B1457FD07D00E94261407FC03D03B
:102800004EF40C940B1450954095309521953F4F04
:102810004F4F5F4F089590958095709561957F4FCC
:102820008F4F9F4F08950E944814A59F900DB49F0D
:10283000900DA49F800D911D11240895B7FF0C9455
:1028400013140E941314821B930B0895A1E21A2EF5
:10285000AA1BBB1BFD010DC0AA1FBB1FEE1FFF1F44
:10286000A217B307E407F50720F0A21BB30BE40B94
:10287000F50B661F771F881F991F1A9469F76095DB
:102880007095809590959B01AC01BD01CF01089595
:10289000A29FB001B39FC001A39F700D811D1124A1
:1028A000911DB29F700D811D1124911D0895F89402
:0228B000FFCF58
:1028B2000101010000005E00BC007701000000FE83
:1028C200FEFE7F7F7F141414030303FFFFFF00004B
:0E28D20000006E01BE05370115012901B50198
:00000001FF
