:100000000C94E2000C940A010C940A010C940A016D
:100010000C940A010C940A010C940A010C940A0134
:100020000C940A010C940A010C940A010C940A0124
:100030000C940A010C940A010C940A010C940A0114
:100040000C94C4030C940A010C9483010C945D017C
:100050000C940A010C940A010C940A010C940A01F4
:100060000C940A010C940A01005EBCE2613FDD833E
:10007000C29C7E20A3FD1F419DC3217FFCA2401E88
:100080005F01E3BD3E6082DC237D9FC1421CFEA078
:10009000E1BF5D0380DE3C62BEE0025CDF81633D68
:1000A0007C22C09E1D43A1FF4618FAA427799BC558
:1000B00084DA3866E5BB5907DB856739BAE4065848
:1000C0001947A5FB7826C49A653BD987045AB8E638
:1000D000A7F91B45C6987A24F8A6441A99C7257B28
:1000E0003A6486D85B05E7B98CD2306EEDB3510F18
:1000F0004E10F2AC2F7193CD114FADF3702ECC9208
:10010000D38D6F31B2EC0E50AFF1134DCE90722CF7
:100110006D33D18F0C52B0EE326C8ED0530DEFB1E7
:10012000F0AE4C1291CF2D73CA947628ABF51749D7
:100130000856B4EA6937D58B5709EBB536688AD4C7
:1001400095CB2977F4AA4816E9B7550B88D6346AB7
:100150002B7597C94A14F6A8742AC896154BA9F7A7
:10016000B6E80A54D7896B35000000002400270048
:100170002A0000000000250028002B0000000008D5
:10018000000201000003040700000000000000005E
:1001900000000000230026002900040404040404D5
:1001A0000404020202020202030303030303010226
:1001B00004081020408001020408102001020408F5
:1001C0001020EC0D11241FBECFEFD8E0DEBFCDBF55
:1001D00011E0A0E0B1E0E8E8F0E202C005900D9285
:1001E000A631B107D9F722E0A6E1B1E001C01D9226
:1001F000AF37B207E1F710E0C2EED0E004C02197BC
:10020000FE010E94C70EC13ED107C9F70E94B50783
:100210000C9442100C94000089EB91E00E94D701ED
:1002200021E0892B09F420E0822F0895EF92FF92BC
:100230000F931F93CF93DF93EC0181E0888F9B8D09
:100240008C8D981305C0E889F989808185FD24C0CB
:10025000F62E0B8D10E00F5F1F4F0F731127E02E4E
:100260008C8DE8120CC00FB607FCFACFE889F9892B
:10027000808185FFF5CFCE010E943C02F1CF8B8DAE
:10028000FE01E80FF11DE35AFF4FF0820B8FEA8960
:10029000FB898081806207C0EE89FF896083E889DD
:1002A000F98980818064808381E090E0DF91CF9143
:1002B0001F910F91FF90EF9008951F920F920FB62C
:1002C0000F9211242F933F934F935F936F937F93DC
:1002D0008F939F93AF93BF93EF93FF9389EB91E03D
:1002E0000E943C02FF91EF91BF91AF919F918F913E
:1002F0007F916F915F914F913F912F910F900FBE22
:100300000F901F9018951F920F920FB60F92112405
:100310002F938F939F93EF93FF93E091C901F091F7
:10032000CA018081E091CF01F091D00182FD12C01D
:1003300090818091D2018F5F8F732091D3018217BA
:1003400051F0E091D201F0E0E754FE4F958F809399
:10035000D20101C08081FF91EF919F918F912F91E8
:100360000F900FBE0F901F901895FC01918D828DFC
:10037000981761F0828DDF01A80FB11D5D968C91F9
:10038000928D9F5F9F73928F90E008958FEF9FEF04
:100390000895FC01918D828D981731F0828DE80FC0
:1003A000F11D858D90E008958FEF9FEF0895FC017A
:1003B000918D228D892F90E0805C9F4F821B910947
:1003C0008F739927089580E090E0892B29F00E948F
:1003D0000C0181110C9400000895833081F028F401
:1003E000813099F08230A1F008958730A9F08830EB
:1003F000B9F08430D1F4809180008F7D03C080916A
:1004000080008F7780938000089584B58F7702C035
:1004100084B58F7D84BD08958091B0008F7703C02F
:100420008091B0008F7D8093B00008953FB7F8941D
:100430008091B5019091B601A091B701B091B8013A
:1004400026B5A89B05C02F3F19F00196A11DB11D2F
:100450003FBFBA2FA92F982F8827820F911DA11D6A
:10046000B11DBC01CD0142E0660F771F881F991FA7
:100470004A95D1F708950895FC01848DDF01A80FF6
:10048000B11DA35ABF4F2C91848D90E001968F73BC
:100490009927848FA689B7892C93A089B1898C91DB
:1004A00080648C93938D848D981306C00288F389A1
:1004B000E02D80818F7D80830895CF93DF93EC01C1
:1004C000888D8823C9F0EA89FB89808185FD05C074
:1004D000A889B9898C9186FD0FC00FB607FCF5CFAE
:1004E000808185FFF2CFA889B9898C9185FFEDCFF6
:1004F000CE010E943C02E7CFDF91CF910895CF93C8
:10050000DF93282F30E0F901E458FE4F8491F90180
:10051000E255FE4FD491F901E656FE4FC491CC232B
:1005200091F081110E94ED01EC2FF0E0EE0FFF1F22
:10053000E057FE4FA591B491EC91ED2381E090E05E
:1005400021F480E002C080E090E0DF91CF91089537
:100550001F93CF93DF93282F30E0F901E458FE4F2B
:100560008491F901E255FE4FD491F901E656FE4F10
:10057000C491CC23C9F0162F81110E94ED01EC2FFC
:10058000F0E0EE0FFF1FEE58FE4FA591B4918FB72C
:10059000F894111105C09C91ED2FE095E92302C05C
:1005A000EC91ED2BEC938FBFDF91CF911F910895CC
:1005B000CF93DF9390E0FC01E255FE4F2491FC01C4
:1005C000E656FE4F8491882361F190E0880F991FD1
:1005D000FC01E859FE4FC591D491FC01EE58FE4F45
:1005E000A591B491611109C09FB7F89488812095B5
:1005F00082238883EC912E230BC0623061F49FB775
:10060000F8943881822F809583238883EC912E2B58
:100610002C939FBF06C08FB7F894E8812E2B2883B8
:100620008FBFDF91CF9108951F93CF93DF93182F42
:10063000EB0161E00E94D802209711F460E004C051
:10064000CF3FD10539F461E0812FDF91CF911F9128
:100650000C94A802E12FF0E0E458FE4FE491E3305F
:10066000F9F048F4E130B9F0E230A1F584B58062E8
:1006700084BDC8BD34C0E730E9F0E83019F1E4309A
:1006800049F580918000806280938000D0938B0038
:10069000C0938A0024C084B5806884BDC7BD1FC0D4
:1006A00080918000806880938000D0938900C093FF
:1006B000880015C08091B00080688093B000C0931E
:1006C000B3000DC08091B00080628093B000C093F1
:1006D000B40005C0C038D1050CF0B5CFAFCFDF9165
:1006E000CF911F9108958230910538F0880F991F9E
:1006F000880F991F05970197F1F708958F929F92A0
:10070000AF92BF92CF92DF92EF92FF926B017C018A
:100710000E9416024B015C01C114D104E104F104F2
:10072000F1F00E941602DC01CB0188199909AA098F
:10073000BB09883E9340A105B10570F321E0C21AC0
:10074000D108E108F10888EE880E83E0981EA11C0C
:10075000B11CC114D104E104F10419F7DDCFFF90FD
:10076000EF90DF90CF90BF90AF909F908F900895C3
:100770002FB7F8946091B1017091B2018091B301EB
:100780009091B4012FBF08951F920F920FB60F9250
:1007900011242F933F938F939F93AF93BF93809197
:1007A000B1019091B201A091B301B091B401309127
:1007B000B00123E0230F2D3720F40196A11DB11DB8
:1007C00005C026E8230F0296A11DB11D2093B0019C
:1007D0008093B1019093B201A093B301B093B4019F
:1007E0008091B5019091B601A091B701B091B80187
:1007F0000196A11DB11D8093B5019093B601A09300
:10080000B701B093B801BF91AF919F918F913F9184
:100810002F910F900FBE0F901F901895EF92FF929F
:100820001F93CF93DF93182F61E0809116010E94F0
:10083000A8028EE1E82E81E0F82EE701A0915E018A
:10084000B0915F019C2F9E19911750F46991ED9121
:10085000FC9111970190F081E02DCD010995EECF2B
:10086000ED91FC9111970284F385E02DCD0109955E
:1008700080911701909118010E94730360E08091AC
:100880001601DF91CF911F91FF90EF900C94A80279
:100890004EE151E0FA012FEF3FEF9E2F941B981786
:1008A00088F49191292798E0B901617077273695EE
:1008B0002795672B21F061E0262760EA36279150C3
:1008C00099F7EBCF922F832F089520911C0130913F
:1008D0001D012F5F3F4F30931D0120931C0190910C
:1008E0001B01911115C090911A0190931E019091D6
:1008F0001901906890931F018093200183E00E946A
:100900004804909321018093220185E00C940E0409
:100910000895DC01E0E0615038F08D91E827F0E0C7
:10092000E859FF4FE491F7CF8E2F0895FC01908195
:100930000180F281E02DF8948181892B81832281CD
:10094000892F809528232283A7E0B0E01197F1F743
:10095000218182238183A3E2B0E01197F1F78081A6
:100960007894EFECF0E03197F1F7982381E009F407
:1009700080E00895FC0190810180F281E02D892FB3
:10098000809560FF12C0F894228182238283818146
:10099000892B8183A3E2B0E01197F1F78281982B34
:1009A0009283789487ED90E011C0F894228182239D
:1009B00082838181892B8183AFEFB0E01197F1F7BA
:1009C0008281982B928378948FE090E00197F1F7E1
:1009D0000895CF92DF92EF92FF920F931F93CF93E0
:1009E000DF931F92CDB7DEB76C01E62E08E010E072
:1009F000FF24F39461E08F2D8E2109F460E0C6019D
:100A000049830E94BA04FF0C015011094981011564
:100A1000110581F7411115C0F894D6011196ED9199
:100A2000FC91129791818C918095892381831196F5
:100A3000ED91FC91129792818C918095892382830C
:100A400078940F90DF91CF911F910F91FF90EF90CD
:100A5000DF90CF900895CF92DF92EF92FF920F93A5
:100A60001F93CF93DF931F92CDB7DEB78C01F62E85
:100A700040E065E579830E94E904CF2C7981D72E87
:100A8000760188E0E80EF11CF60161916F0140E00B
:100A9000C8010E94E904CE14DF04B1F70F90DF9182
:100AA000CF911F910F91FF90EF90DF90CF9008951D
:100AB000FC0190810180F281E02DF8948181292F41
:100AC00020958223818378948DE743E050E0815024
:100AD00021F1DA011197F1F730813923C1F3F8944C
:100AE0008281822382838181892B81837894ABE701
:100AF000B7E01197F1F7F894818128232183A3E1CE
:100B0000B1E01197F1F78081982381E009F080E04E
:100B10007894E3E6F6E03197F1F708959091AF010C
:100B2000981731F08093AF01682F86E00C94A802EB
:100B30000895CF93DF9390916301992329F19091C8
:100B4000AC01981308C09091AD01961304C0909128
:100B5000AE019417C9F0C42FD62F8093AC016093D7
:100B6000AD014093AE01682F70E089E00E9414034C
:100B70006D2F70E08AE00E9414036C2F70E08BE010
:100B8000DF91CF910C941403DF91CF910895CF9210
:100B9000DF92EF92FF920F931F93CF93DF936C013D
:100BA0007A018B01C0E0D0E0CE15DF0589F0D801D5
:100BB0006D918D01D601ED91FC910190F081E02DB8
:100BC000C6010995892B11F47E0102C02196ECCF54
:100BD000C701DF91CF911F910F91FF90EF90DF90B0
:100BE000CF9008950E943510CF92DF92EF92FF923E
:100BF0000F931F93CF93DF93EC016A017B01E88988
:100C0000F98982E080834115514E61057105B1F08B
:100C100060E079E08DE390E0A70196010E94910EDB
:100C200089019A0101501109210931093695279549
:100C300017950795980101151041A8F0E889F989E1
:100C4000108260E874E88EE190E0A70196010E94AE
:100C5000910EDA01C9010197A109B109B695A795CD
:100C6000979587959C01EC85FD853083EE85FF8502
:100C70002083188EEC89FD8986E08083EA89FB89D0
:100C8000808180618083EA89FB898081886080839C
:100C9000EA89FB89808180688083EA89FB89808179
:100CA0008F7D8083DF91CF911F910F91FF90EF9007
:100CB000DF90CF9008958F929F92AF92BF92CF9284
:100CC000DF92EF92FF920F931F93CF93DF938C01EC
:100CD000EB0180916302909164020E945805882381
:100CE00009F43DC0B80180916302909164020E94B2
:100CF0002B0540E06EEB80916302909164020E94AC
:100D0000E9048E015E0189E0A80EB11C80906302A7
:100D10009090640288E0C82ED12CEE24E394F12C4C
:100D2000C4010E9496048111FE28EE0CE1E0CE1A67
:100D3000D108B1F7F801F1928F01EA15FB0531F7FF
:100D400080916302909164020E945805813039F4C9
:100D500068E0CE010E94890491E02885821390E02A
:100D6000892FDF91CF911F910F91FF90EF90DF902E
:100D7000CF90BF90AF909F908F900895CF93DF93C7
:100D8000CDB7DEB729970FB6F894DEBF0FBECDBF43
:100D9000FC0120812031D1F0BE016F5F7F4F0E94A6
:100DA0005B06882389F08D818F3361F020F48F31C9
:100DB00059F489E00CC08F3519F08F3739F004C031
:100DC0008BE005C08AE003C080E001C08CE029967A
:100DD0000FB6F894DEBF0FBECDBFDF91CF9108955F
:100DE000AF92BF92CF92DF92EF92FF920F931F9339
:100DF000CF93DF931F92CDB7DEB75C01D62EE72EDF
:100E0000FC018585811105C0C5010E94580581112D
:100E100006C0F50113861586148680E065C040E0A3
:100E200060EFC5010E94E90401E0F12CC12C11E042
:100E3000C5010E949604682FC50169830E9496042B
:100E40006981613019F48130B9F433C04F2D50E01D
:100E500068131BC0F5018385181730F4E40FF51FE4
:100E60008381802349F402C0181731F060E0193003
:100E700058F4F501148708C0F501EF0DF11D8381C9
:100E8000802B838361E009C0C12EF501E40FF51FBB
:100E90009381802F809589238383C5010E94BA04A2
:100EA0001F5F000F11F4F39401E0F7E0FF1508F065
:100EB000BFCF113408F4ADCFF501C386C11002C015
:100EC00081E08587F5018381882309F4A2CFD501CC
:100ED0001396ED2DFE2D9501255F3F4F8D9181934A
:100EE000A217B307D9F781E00F90DF91CF911F913F
:100EF0000F91FF90EF90DF90CF90BF90AF9008954B
:100F00000F931F93CF93DF938C01D62FE091630251
:100F1000F0916402138615861486DF011B963396C2
:100F20001E92AE17BF07E1F7C0E0B80180916302DF
:100F3000909164020E94F006811102C080E010C00E
:100F4000CD130AC067E0C8010E948904F8019781A7
:100F5000891302C081E004C0CF5FDC1778F3E5CFCE
:100F6000DF91CF911F910F910895CF93DF93CDB76C
:100F7000DEB761970FB6F894DEBF0FBECDBF789491
:100F800084B5826084BD84B5816084BD85B582608E
:100F900085BD85B5816085BD80916E00816080933F
:100FA0006E001092810080918100826080938100A8
:100FB00080918100816080938100809180008160B8
:100FC000809380008091B10084608093B100809113
:100FD000B00081608093B00080917A00846080933B
:100FE0007A0080917A00826080937A0080917A0002
:100FF000816080937A0080917A00806880937A0083
:101000001092C10080E090E00E943A10082F809377
:10101000740182E090E00E943A10182F80937301CF
:10102000E0E6F1E0119221E0EA36F207D9F7133059
:1010300051F0143071F01230B9F481E08093630103
:101040008093640111C081E0809363018093670104
:101050000BC091E0909363019093620190936501BE
:1010600090936601909368018FEF90E090939D01BB
:1010700080939C0190939F0180939E019093A10186
:101080008093A0014FEF6FEF8FEF0E949905809141
:101090006201882309F41CC1E0916302F0916402AB
:1010A000138615861486DF011B9633961E92AE17A3
:1010B000BF07E1F710926202FF24F394BE016F5F55
:1010C0007F4F80916302909164020E94F006882312
:1010D00009F44AC067E0CE0101960E948904988510
:1010E0008913ECCF80915E02811127C08091630249
:1010F000909164020E945805BE016F5F7F4F8091FE
:101100006302909164020E942B0540E064EB8091A1
:101110006302909164020E94E904809163029091BD
:1011200064020E949604E82E80916302909164020A
:101130000E945805EE2009F44CC5E0905F02CE01F4
:1011400001960E94BE068E1518F480915F0204C0BD
:10115000CE0101960E94BE0680935F0290916202CA
:101160009F5F90936202AACF60E08BE691E00E94BD
:1011700080078BE691E00E94BE06893009F49EC08C
:10118000BE016F5F7F4F8BE691E00E945B06882374
:1011900009F494C080916B01803109F48FC08FE114
:1011A0008D8380916302909164020E9458056BE6E2
:1011B00071E080916302909164020E942B0540E0EF
:1011C0006EE480916302909164020E94E90440E021
:1011D0006B8180916302909164020E94E90440E077
:1011E0006C8180916302909164020E94E904809175
:1011F0006B01803141F040E06D81809163029091FC
:1012000064020E94E90480916302909164020E944A
:1012100058056BE671E080916302909164020E9430
:101220002B0540915E0268E4809163029091640214
:101230000E94E90464E170E080E090E00E947E0397
:1012400080915E02882331F06AE070E080E090E0F7
:101250000E947E0380916302909164020E9458056F
:1012600090915F02993008F499E090935F02993071
:1012700029F189E080935F02E12CF12C2091620238
:1012800030E0E216F306D4F46E2DCE010A960E94E9
:101290008007D0905F02CE010A960E94BE068D158F
:1012A00018F480915F0204C0CE010A960E94BE0627
:1012B00080935F024FEFE41AF40AE0CF0E94B80374
:1012C00060938C0170938D0180938E0190938F01B8
:1012D00080916801882351F00E94B80360938801CF
:1012E0007093890180938A0190938B0180916701AB
:1012F000882331F162E08CE00E94D8028CE0809378
:101300005D020E947F0210925C028CE00E947F02CC
:10131000892B19F083E080935C020E94B8036093EC
:10132000560270935702809358029093590285E0B9
:1013300090E090935B0280935A0281E080936A016F
:1013400080916301882361F061E089E00E94D80206
:1013500061E08AE00E94D80261E08BE00E94D8023E
:1013600080916601882321F060E087E00E94D80226
:1013700080916501882339F061E086E00E94D802FF
:1013800080E00E948E05812F90E0909391018093E0
:10139000900189EB91E090935F0180935E0140E0C2
:1013A00056E960E070E00E94F40500931A018EEEA9
:1013B00092E090937A018093790186ED96E0909384
:1013C0001801809317018EE090E09093780180934C
:1013D000770180E991E0909376018093750184E034
:1013E0008093160161E00E94D80260E084E00E94D0
:1013F000A80210921D0110921C0140E056E960E025
:1014000070E089EB91E00E94F4057FE9672E71E0BE
:10141000772EE0E9CE2EDD24D394E12CF12C8091BF
:101420005E0190915F01DC01ED91FC910480F581FA
:10143000E02D0995892B09F42BC100E010E0809183
:101440005E0190915F01DC01ED91FC910480F581DA
:10145000E02D0995892B31F180915E0190915F011A
:10146000002341F0DC01ED91FC910680F781E02D35
:10147000099511C001E0103409F000E0DC01ED91A4
:10148000FC910680F781E02D0995E12FF0E0E25E06
:10149000FE4F80831F5F8091790190917A010E94B5
:1014A0007303CDCF0111EBC0183008F4E5C0809173
:1014B0001E01882319F010921B0103C091E0909344
:1014C0001B0100911A01801729F080911B018823CC
:1014D00009F4DEC0A12EB12C8EEF810F0E944804CA
:1014E000A501425E5E4FFA013297208130E0322F33
:1014F000222731964081242B8217930709F0BFC021
:1015000040911F01409319018091200190E0982F94
:10151000882720912101822B2091220130E0322F57
:10152000222750912301252BB901680F791F1091B3
:101530001B01111146C0433009F043C040917701AF
:10154000509178018417950708F051C04617570746
:10155000B0F1220F15E0120F00931E01209320011D
:10156000982FA0917501B091760183E0492F50E04A
:1015700046175707A8F4440F551FFD01E40FF51F48
:1015800030814181E82FF0E0E25EFE4F4083E1E0F0
:10159000E80FF0E0E25EFE4F30838E5F9F5FE6CFA4
:1015A00083E0820F0E944804212F30E0225E3E4FEC
:1015B000F9013297908331968083812F35C083E083
:1015C00058C04630B1F0403109F052C0209124019A
:1015D00030E0B9E0AB1AB1082A153B0509F04FC05D
:1015E00020917701309178018217930700F182E012
:1015F00040C0409177015091780184179507B8F762
:10160000880F991FE0917501F0917601E80FF91F9D
:101610003183208386E00E944804909324018093C4
:101620002501111135C088E00E940E0431C0261733
:10163000370728F2409175015091760197E0282FE5
:1016400030E02617370730F7A92FB0E0220F331FFD
:10165000FA01E20FF31FA25EBE4F11962C91119773
:10166000AC9130E03A2B318320839E5F8F5FE7CFD0
:1016700081E00E9465040CC01150173048F480913D
:101680001C0190911D01019690931D0180931C01F6
:10169000809164018823B1F082E480937C00809182
:1016A0007A00806480937A0080917A0086FDFCCF76
:1016B000809178002091790090E0922B909397018F
:1016C0008093960180916201882309F4ADC08090D7
:1016D0008C0190908D01A0908E01B0908F010E949E
:1016E000B803861A970AA80AB90AE9EE8E16E3E04B
:1016F0009E06A104B10408F497C00E94B803609349
:101700008C0170938D0180938E0190938F01809155
:101710006302909164020E94580540E06CEC809155
:101720006302909164020E94E90440915E0264E4C5
:1017300080916302909164020E94E90480916002AA
:101740008823A9F0E0915F02E950E33040F4F0E033
:10175000EE0FFF1FE050FF4F6081718102C06EEEFF
:1017600072E0072E000C880B990B0E947E0360E04C
:10177000CE010A960E948007811105C060E070E0EA
:101780008EEF92EC49C0BE016F5F7F4FCE010A968B
:101790000E945B06882359F16981F8E06F9FB001D0
:1017A00011248A81282F30E0322F2227330F330F64
:1017B000330F262B372B8A858031E1F4688570E062
:1017C0008F81AB01481B5109CA019695982F882734
:1017D000979587950E947D0E60517109207F83E067
:1017E000220F331F8A95E1F7620F731F04C060E870
:1017F00074EE01C0B901613854EE75070CF4BECF28
:10180000072E000C880B990B0E943C0F20E030E063
:1018100040E05CE30E94C80F909393018093920193
:10182000709395016093940180916801882309F475
:101830004AC10E94B803009188011091890120914A
:101840008A0130918B01DC01CB01801B910BA20B33
:10185000B30B813D9740A105B10508F434C1E3EB1A
:10186000F1E0B490F3018491E82FF0E0EE0FFF1F58
:10187000E057FE4F0591149161E085E00E94D80287
:1018800060E085E00E94A80288EE93E00E94730366
:1018900061E085E00E94A80260E085E00E94D80235
:1018A00020E233E0D8018C918B2129F021503109BD
:1018B000C9F70DEF65C020E931E0F80180818B2187
:1018C00029F421503109C9F70CEF5AC020E931E061
:1018D000D8018C918B2129F021503109C9F70BEFE8
:1018E0004FC0912C80E8A12C40E050E020E931E08D
:1018F000E0E9F1E068E290E0D8017C917B2179F5A4
:10190000992369F1633298F02E173F0708F4F90123
:10191000A70196012E1B3F0B41095109B2E05595D5
:10192000479537952795BA95D1F7A90107C0DF01EB
:10193000A41BB50BA217B30708F0A82A90E0959551
:101940008795009749F4A92DB0E0A558BE4F189689
:10195000AC929394A12C80E8615020E931E02150B1
:10196000310969F0972F6111C7CF61E085E00E94CE
:10197000D80261E085E00E94A80200E001C00EEFFD
:10198000809183018370B82E80938301109185012B
:10199000B12FB378AB2EB093850190908401682F5E
:1019A00070E0762F6627690D711D072E000C880BDD
:1019B000990B0E943C0F2DEC3CEC4CEC5DE30E943B
:1019C000C80F1B012C0160937B0170937C018093F5
:1019D0007D0190937E01809086011370612F70E0ED
:1019E000762F6627680D711D072E000C880B990B4A
:1019F0000E943C0F2DEC3CEC4CEC5DE30E94C80FC8
:101A0000A7FC09C060937F017093800180938101DE
:101A1000909382010BC0DC01CB01B05880937F0111
:101A200090938001A0938101B0938201980CB90C2E
:101A3000AB0C809187018A111BC001111AC08091E3
:101A40007F0190918001A0918101B0918201B093BA
:101A5000A501A093A4019093A7018093A6015092A1
:101A6000A9014092A8013092AB012092AA0121C0A5
:101A70000FEF602F000F770B880B990B0E943C0F24
:101A800020E030E046EC52E40E94CD0E8C0122278B
:101A900033271093A5010093A4017093A7016093CD
:101AA000A6011093A9010093A8017093AB01609364
:101AB000AA010E94B8036093880170938901809302
:101AC0008A0190938B0180916601882391F087E0D1
:101AD0000E947F0280939801909399010E948E0545
:101AE00087E00E947F0280939801909399010E9461
:101AF0008E054091A00160919E0180919C010E9401
:101B0000990580916701882309F45AC080915D028C
:101B10000E947F0211E0892B09F410E080915C02A1
:101B2000982F977F90935C0286958170181779F0B3
:101B30000E94B80360935602709357028093580234
:101B40009093590290915C0282E089272FC00E94F5
:101B5000B8038090560290905702A0905802B0901F
:101B60005902AB01BC01481959096A097B098091E6
:101B70005A0290915B02A0E0B0E0481759076A074B
:101B80007B07B0F080915C028170811789F00E9420
:101B9000B803609356027093570280935802909353
:101BA000590290915C0281E08927886080935C02F1
:101BB00080915C02817080939A0110929B0106C013
:101BC00081E090E090939B0180939A010E94E30151
:101BD00026CCF0925E02B1CA1092BC011092BB01F9
:101BE00088EE93E0A0E0B0E08093BD019093BE0149
:101BF000A093BF01B093C0018AE091E09093BA0135
:101C00008093B90185EC90E09093C6018093C50163
:101C100084EC90E09093C8018093C70180EC90E041
:101C20009093CA018093C90181EC90E09093CC011C
:101C30008093CB0182EC90E09093CE018093CD0114
:101C400086EC90E09093D0018093CF011092D20166
:101C50001092D3011092D4011092D50160E088E077
:101C60000E94D802E6EBF1E0E491E0937102E2EA2F
:101C7000F1E0E491F0E0EE0FFF1FE057FE4F859199
:101C80009491909373028093720210927C0210924E
:101C90007E0210927D02ECE7F2E0129282E0E437DD
:101CA000F807D9F78BE392E09093700280936F026C
:101CB00081E792E090936402809363021092620243
:101CC00010925E0289E080935F0281E0809360025F
:101CD000809361021092560210925702109258029D
:101CE000109259028AE090E090935B0280935A022E
:101CF00010925C0210925D02089597FB072E16F475
:101D0000009407D077FD09D00E94B30E07FC05D0E0
:101D10003EF4909581959F4F0895709561957F4F02
:101D20000895A1E21A2EAA1BBB1BFD010DC0AA1F1C
:101D3000BB1FEE1FFF1FA217B307E407F50720F034
:101D4000A21BB30BE40BF50B661F771F881F991FAF
:101D50001A9469F760957095809590959B01AC01F8
:101D6000BD01CF010895AA1BBB1B51E107C0AA1FEB
:101D7000BB1FA617B70710F0A61BB70B881F991F2C
:101D80005A95A9F780959095BC01CD010895EE0F65
:101D9000FF1F0590F491E02D09945058BB27AA2706
:101DA0000E94E50E0C948E0F0E94800F38F00E9466
:101DB000870F20F039F49F3F19F426F40C947D0F1F
:101DC0000EF4E095E7FB0C94770FE92F0E949F0F2C
:101DD00058F3BA17620773078407950720F079F460
:101DE000A6F50C94C10F0EF4E0950B2EBA2FA02D82
:101DF0000B01B90190010C01CA01A0011124FF27B8
:101E0000591B99F0593F50F4503E68F11A16F040B2
:101E1000A22F232F342F4427585FF3CF46953795B1
:101E20002795A795F0405395C9F77EF41F16BA0B76
:101E3000620B730B840BBAF09150A1F0FF0FBB1F24
:101E4000661F771F881FC2F70EC0BA0F621F731F6D
:101E5000841F48F4879577956795B795F7959E3FCA
:101E600008F0B0CF9395880F08F09927EE0F97955B
:101E700087950895E89409C097FB3EF49095809566
:101E8000709561957F4F8F4F9F4F9923A9F0F92F40
:101E900096E9BB279395F695879577956795B795BE
:101EA000F111F8CFFAF4BB0F11F460FF1BC06F5FA4
:101EB0007F4F8F4F9F4F16C0882311F096E911C0B6
:101EC000772321F09EE8872F762F05C0662371F0D7
:101ED00096E8862F70E060E02AF09A95660F771FEB
:101EE000881FDAF7880F9695879597F9089597F9DF
:101EF0009F6780E870E060E008959FEF80EC0895B0
:101F000000240A94161617061806090608950024D8
:101F10000A9412161306140605060895092E039452
:101F2000000C11F4882352F0BB0F40F4BF2B11F4C6
:101F300060FF04C06F5F7F4F8F4F9F4F089557FD25
:101F40009058440F551F59F05F3F71F04795880F27
:101F500097FB991F61F09F3F79F0879508951216BE
:101F600013061406551FF2CF4695F1DF08C016166A
:101F700017061806991FF1CF86957105610508941B
:101F80000895E894BB2766277727CB0197F9089532
:101F90000E94DB0F0C948E0F0E94800F38F00E947D
:101FA000870F20F0952311F00C94770F0C947D0F80
:101FB00011240C94C20F0E949F0F70F3959FC1F3E0
:101FC000950F50E0551F629FF001729FBB27F00DE7
:101FD000B11D639FAA27F00DB11DAA1F649F66273C
:101FE000B00DA11D661F829F2227B00DA11D621F8B
:101FF000739FB00DA11D621F839FA00D611D221F45
:10200000749F3327A00D611D231F849F600D211D28
:10201000822F762F6A2F11249F5750409AF0F1F0AB
:1020200088234AF0EE0FFF1FBB1F661F771F881F14
:1020300091505040A9F79E3F510580F00C94770FC6
:102040000C94C20F5F3FE4F3983ED4F386957795E6
:102050006795B795F795E7959F5FC1F7FE2B880FBA
:10206000911D9695879597F9089581E090E0F894F1
:102070000C944210F999FECF92BD81BDF89A992730
:0820800080B50895F894FFCF2C
:102088005E00BC007701000000001601C705D701FB
:06209800B501C9015D0263
:00000001FF
